:100000000C9463000C948B000C948B000C94DE0613
:100010000C94DE060C94DE060C948B000C948B0082
:100020000C948B000C948B000C948B000C948B0024
:100030000C948B000C948B000C948B000C948B0014
:100040000C940E050C948B000C947E050C945805B2
:100050000C948B000C948B000C948B000C948B00F4
:100060000C94B0050C948B000000000024002700C5
:100070002A0000000008000201000003040700003D
:1000800000000000000000000000230026002900FE
:1000900000000000250028002B00040404040404D0
:1000A0000404020202020202030303030303010227
:1000B00004081020408001020408102001020408F6
:1000C00010208C0D700D11241FBECFEFD8E0DEBFC5
:1000D000CDBF11E0A0E0B1E0E4EEFDE102C005908B
:1000E0000D92AC3DB107D9F724E0ACEDB1E001C011
:1000F0001D92A331B207E1F710E0C2E6D0E004C0E0
:100100002197FE010E94DA0EC136D107C9F70E947D
:10011000F5090C94E50E0C94000008950895CF9213
:10012000DF92EF92FF920F931F93CF93DF936C01B7
:100130007A018B01C0E0D0E0CE15DF0581F0D80157
:100140006D918D01D601ED91FC910190F081E02D32
:10015000C6010995892B11F02196EECF7E01C701CA
:10016000DF91CF911F910F91FF90EF90DF90CF9093
:100170000895FC01538D448D252F30E0842F90E0AD
:10018000821B930B541710F0CF9608950197089592
:10019000FC01918D828D981761F0828DDF01A80F8F
:1001A000B11D5D968C91928D9F5F9F73928F90E0B1
:1001B00008958FEF9FEF0895FC01918D828D981720
:1001C00031F0828DE80FF11D858D90E008958FEF5D
:1001D0009FEF0895FC01918D228D892F90E0805C26
:1001E0009F4F821B91098F739927089583E493E0B1
:1001F0000E94EA0021E0892B09F420E0822F089573
:10020000FC01848DDF01A80FB11DA35ABF4F2C91B3
:10021000848D90E001968F739927848FA689B78982
:100220002C93A089B1898C91837080648C93938D79
:10023000848D981306C00288F389E02D80818F7D1C
:1002400080830895EF92FF920F931F93CF93DF93D4
:10025000EC0181E0888F9B8D8C8D981305C0E88917
:10026000F989808185FD26C0F62E0B8D10E00F5F89
:100270001F4F0F731127E02E8C8DE8120CC00FB6A4
:1002800007FCFACFE889F989808185FFF5CFCE0197
:100290000E940001F1CF8B8DFE01E80FF11DE35AA2
:1002A000FF4FF0829FB7F8940B8FEA89FB8980811A
:1002B00080620AC09FB7F894EE89FF896083E8895D
:1002C000F98980818370806480839FBF81E090E0A2
:1002D000DF91CF911F910F91FF90EF900895CF93F1
:1002E000DF93EC01888D8823C9F0EA89FB8980813E
:1002F00085FD05C0A889B9898C9186FD0FC00FB610
:1003000007FCF5CF808185FFF2CFA889B9898C9150
:1003100085FFEDCFCE010E940001E7CFDF91CF91A5
:10032000089580E090E0892B29F00E94F600811169
:100330000C940000089585ED8093BC008091BC0072
:1003400084FDFCCF10921F03089540918402262F54
:1003500030E0240F311D21323105DCF420911F03E0
:100360002430C9F4FC0180E090E0861758F4309105
:1003700084022191DC01AC59BD4FA30FB11D2C9318
:100380000196F3CF80918402680F6093840280E02D
:10039000089581E0089582E008950895E091D802DB
:1003A0008091D702E81730F4F0E0E752FD4F8081EA
:1003B00090E008958FEF9FEF08959091D80280917B
:1003C000D702981750F4E92FF0E0E752FD4F208153
:1003D00030E09F5F9093D80202C02FEF3FEFC9013A
:1003E00008958091D70290E02091D802821B910954
:1003F0000895CF92DF92EF92FF920F931F93CF93C6
:10040000DF937C01CB018A0120914203222389F0F2
:10041000EB016B01C40ED51ECC15DD0569F06991A9
:10042000D701ED91FC910190F081E02DC701099574
:10043000F3CF642F0E94A501C801DF91CF911F91D6
:100440000F91FF90EF90DF90CF900895CF93DF93BF
:100450001F92CDB7DEB76983209142032223D1F0EA
:1004600020914003203240F021E030E0FC01338352
:10047000228380E090E015C080914103E82FF0E0F6
:10048000E05EFC4F998190838F5F8093410380935E
:10049000400305C061E0CE0101960E94A50181E004
:1004A00090E00F90DF91CF9108952091AD023091AF
:1004B000AE022817390771F49091AB028091AC021B
:1004C000981741F0E091AB02F0E0EC5DFD4F8081C8
:1004D00090E008958FEF9FEF08951F93CF93DF93E0
:1004E000DC015C968D919C915D97009739F421E039
:1004F00030E013963C932E9312973BC05196ED91AA
:10050000FC91529750962C915097322F30951FB7EF
:100510005E964C915E97742F727041FD6095F894D1
:100520004081772311F0422B01C043234083EC012B
:100530002197F1F748E0508160FF02C0522B01C0C3
:1005400053235083EC012197F1F76695415099F7B9
:100550008081772319F08323808302C0282B208396
:100560001FBF5C968D919C915D970197F1F781E09B
:1005700090E0DF91CF911F9108952091AD023091CD
:10058000AE022817390771F48091AC022091AB02BA
:1005900090E0805C9F4F821B910960E470E00E94B4
:1005A000B20E089580E090E008952091AD02309160
:1005B000AE0228173907B9F49091AB028091AC02D2
:1005C000981789F0E091AB02F0E0EC5DFD4F80817F
:1005D0002091AB0230E02F5F3F4F2F7333272093E2
:1005E000AB0290E008958FEF9FEF0895089580E0AB
:1005F00090E008951F93CF93DF93182F603883EF17
:1006000078079CF1EB0161387C4014F0C0E8DCE035
:100610006AEA8CEE93E00E946D02612F8CEE93E00B
:100620000E946D02D7FF09C066E08CEE93E00E9445
:100630006D02D195C195D10905C065E08CEE93E0BE
:100640000E946D026C2F6F718CEE93E00E946D0220
:10065000BE0185E0759567958A95E1F78CEE93E08C
:10066000DF91CF911F910C946D026AEA8CEE93E0BA
:100670000E946D02612F8CEE93E00E946D02C0E833
:10068000D3EFD2CF0F931F938C019B018091EA018E
:100690009091EB01019667E070E00E94B20E90939A
:1006A000EB018093EA01880F991FF901E80FF91F08
:1006B00011830083F901ACEDB1E0819191918D93AB
:1006C0009D9381E0AA3EB807C1F708EE11E048EE1D
:1006D00051E0ECEDF1E081E0619171912081318197
:1006E000261737075CF00E171F07B1F7882379F339
:1006F000EEEDF1E060E070E0CB0108C07183608353
:10070000DF0112972D933C9380E0EDCF0191119181
:10071000012E000C220B330B600F711F821F931FE1
:100720004E175F0799F725E030E040E050E00E9467
:10073000570EC9011F910F9108950E94E00E4F922C
:100740005F926F927F928F929F92AF92BF92CF9261
:10075000DF92EF92FF920F931F93CF93DF936C0181
:1007600081E08093030180930201809304018093D0
:10077000070161E082E00E94150961E083E00E94C8
:10078000150961E070E080E090E00E94BB099AE00A
:10079000E92E91E0F92E5701412C512C3201992478
:1007A000939426E0822EE2014C145D0408F062C0AE
:1007B000F5018081F2E0AF0EB11C0E949E098C0110
:1007C000063383E0180708F043C08091C10281110D
:1007D00017C08EE491E00E94E8084AE0C301B2012C
:1007E0000E94A70884EC91E00E94E808B80180E02C
:1007F00090E04AE00E94A70885E591E00E949908F0
:10080000209719F41092030105C0C130D10531F4CD
:1008100010920201909206018092B502809102012D
:10082000882329F081E090910301911101C080E0BB
:1008300080930401C230D10519F41092010104C063
:10084000239731F410920001909205018092B40236
:1008500080910101882329F081E09091000191119C
:1008600001C080E0809307019FEF491A590A690A85
:10087000790A99CF80910701882329F011E08091AE
:100880000401811101C010E060E082E00E941509BE
:1008900060E083E00E94150961E070E080E090E094
:1008A0000E94BB09C0E0D0E001E086E0B82ECC1584
:1008B000DD05A9F1F7018081F2E0EF0EF11C0E9445
:1008C0009E09843E910548F1209719F41092030186
:1008D00005C0C130D10531F4109202010093060128
:1008E000B092B50280910201882329F081E09091B5
:1008F0000301911101C080E080930401C230D10551
:1009000019F41092010105C0C330D10531F41092E1
:10091000000100930501B092B5022196C8CF8091E5
:100920000101882329F081E090910001911101C01B
:1009300080E08093070190910401992311F08111C7
:1009400001C010E060E082E00E94150961E083E0F0
:100950000E941509812FDF91CF911F910F91FF9078
:10096000EF90DF90CF90BF90AF909F908F907F904F
:100970006F905F904F9008958EE00E949E0966E10F
:1009800072E00E9442039093BD028093BC028FE00C
:100990000E949E0968E072E00E9442039093BB02AD
:1009A0008093BA0280E10E949E096AEF71E00E9482
:1009B00042039093C3028093C20281E10E949E0988
:1009C0006CEE71E00E9442039093B9028093B802EA
:1009D00008953FB7F8948091D1029091D202A091EE
:1009E000D302B091D40226B5A89B05C02F3F19F0C1
:1009F0000196A11DB11D3FBFBA2FA92F982F88279F
:100A0000820F911DA11DB11DBC01CD0142E0660FF9
:100A1000771F881F991F4A95D1F708951F920F924B
:100A20000FB60F9211242F933F938F939F93AF9301
:100A3000BF938091CD029091CE02A091CF02B09150
:100A4000D0023091CC0223E0230F2D3720F4019601
:100A5000A11DB11D05C026E8230F0296A11DB11DE1
:100A60002093CC028093CD029093CE02A093CF022C
:100A7000B093D0028091D1029091D202A091D30282
:100A8000B091D4020196A11DB11D8093D102909323
:100A9000D202A093D302B093D402BF91AF919F91A1
:100AA0008F913F912F910F900FBE0F901F9018952F
:100AB0001F920F920FB60F9211242F933F934F93D3
:100AC0005F936F937F938F939F93AF93BF93EF93B6
:100AD000FF9383E493E00E940001FF91EF91BF91A7
:100AE000AF919F918F917F916F915F914F913F91C6
:100AF0002F910F900FBE0F901F9018951F920F927D
:100B00000FB60F9211242F938F939F93EF93FF9320
:100B1000E0915303F09154038081E0915903F091E7
:100B20005A0382FD12C0908180915C038F5F8F73A6
:100B300020915D03821751F0E0915C03F0E0ED5BE2
:100B4000FC4F958F80935C0301C08081FF91EF91F2
:100B50009F918F912F910F900FBE0F901F9018951E
:100B60001F920F920FB60F9211242F933F934F9322
:100B70005F936F937F938F939F93AF93BF93EF9305
:100B8000FF938091B900887F803609F49CC068F596
:100B9000883209F45BC090F4803109F454C038F411
:100BA000882309F4F6C0883009F44DC0F6C08831B6
:100BB00009F44CC0803209F45DC0EFC0803409F400
:100BC00068C048F4803309F455C0883309F0E5C0A3
:100BD00080931D03D8C0803509F44FC0883509F4CF
:100BE0005DC0883409F0D9C0D6C0883909F4C7C0BF
:100BF000A8F4883709F467C038F4883609F463C06C
:100C0000803709F460C0C9C0883809F4B8C0803999
:100C100009F45FC0803809F0C0C05BC0803B09F4B4
:100C200086C038F4803A09F466C0883A09F47FC077
:100C3000B4C0803C09F4A7C0883C09F4A4C0883B38
:100C400009F48AC0AAC08091FA0210C090911C03D6
:100C500080911B03981770F5E0911C0381E08E0FC3
:100C600080931C03F0E0E550FD4F80818093BB0032
:100C700085EC86C080931D038EC0E0911C0381E04B
:100C80008E0F80931C038091BB00F0E0E550FD4F78
:100C9000808390911C0380911B036EC0E0911C0324
:100CA00081E08E0F80931C038091BB00F0E0E55043
:100CB000FD4F808380911E0381116DC081E0809380
:100CC000F90284EA61C083E080931F031092A602B8
:100CD000CFCF8091A602803208F051C0E091A602E9
:100CE00081E08E0F8093A6028091BB00F0E0EA576E
:100CF000FD4F8083BDCF85EC8093BC0010921F0315
:100D00008091A602803230F4E091A602F0E0EA572A
:100D1000FD4F10826091A60270E0E091A702F09171
:100D2000A80286E892E009951092A60236C084E0F7
:100D300080931F031092850210928402E091A90211
:100D4000F091AA02099580918402811105C081E089
:100D50008093840210926402E091850281E08E0FFC
:100D600080938502F0E0EC59FD4F80818093BB00B9
:100D70009091850280918402981708F479CF85E8D4
:100D80008093BC000AC085EC8093BC0010921F03C6
:100D900004C010921D030E949B01FF91EF91BF912F
:100DA000AF919F918F917F916F915F914F913F9103
:100DB0002F910F900FBE0F901F9018951F920F92BA
:100DC0000FB60F9211242F933F934F935F936F931E
:100DD0007F938F939F93AF93BF93EF93FF93E09194
:100DE000AD02F091AE02309709F451C0968DA68500
:100DF000B785858591FF04C09C91892329F447C05C
:100E00009C91892309F043C0A389B4899C91858969
:100E1000809589238C93868997890197F1F7608D56
:100E2000718DA685B785558538E020E0CB01019707
:100E3000F1F7822F90E095958795282F4C914523C7
:100E400009F02068315091F7868D81FD20958091C1
:100E5000AC0290E001968F7399273091AB0238175E
:100E600049F0A091AC02B0E0AC5DBD4F2C938093F3
:100E7000AC0203C0868D8160868F828D938D019731
:100E8000F1F7A389B4899C918589892B8C93FF9173
:100E9000EF91BF91AF919F918F917F916F915F91F2
:100EA0004F913F912F910F900FBE0F901F9018956B
:100EB000CF9340910F0421E030E0611109C001C0DF
:100EC000220F8A95EAF72095242320930F040AC065
:100ED000B90102C0660F771F8A95E2F7CB01842B18
:100EE00080930F0460910F04C0910D0481E0809302
:100EF0004203C0930C04109241031092400380EE11
:100F000093E00E94260220914003213208F049C05C
:100F100080911F038111FCCF92E090931F0391E019
:100F200090931E039FEF90931D0310921C03209338
:100F30001B03A0E2B3E0EBEFF2E090E0291721F011
:100F40003D9131939F5FFACF1092FA029091FA028D
:100F5000CC0FC92BC093FA029091F902913061F441
:100F60001092F9029091FA029093BB009091BC000C
:100F700093FDF8CF95EC01C095EE9093BC00909155
:100F80001F039230E1F390911D039F3F79F0809110
:100F90001D03803241F080911D03803331F084E0E5
:100FA00005C081E003C082E001C083E010924103EC
:100FB000109240031092420390E0909312048093A9
:100FC0001104CF91089580910D0490911F03911108
:100FD000FCCF91E090931F0390931E032FEF20937B
:100FE0001D0310921C0310921B039093FA02909120
:100FF000FA02880F892B8093FA028091F9028130DE
:1010000061F41092F9028091FA028093BB00809102
:10101000BC0083FDF8CF85EC01C085EE8093BC0059
:1010200080911F038130E1F380911C03811103C083
:1010300090911C0301C091E0EBEFF2E0A9EDB2E06A
:1010400080E0891721F021912D938F5FFACF1092C4
:10105000D8028093D702813049F082E890E09093E3
:1010600012048093110480910E04089580EE93E0A1
:101070000E94DD0180930E040895CF92DF92FF92CB
:101080000F931F93CF93DF93EC016B01F42E122F7C
:101090000E94E30790910E0481E090FF80E0888336
:1010A0000E94E30790910E0481E091FF80E0F60139
:1010B00080830E94E30790910E0481E092FF80E01C
:1010C0008093D6020E94E30790910E0481E093FF83
:1010D00080E08093D502C881C0930B046F2D84E01B
:1010E0000E945807612F85E00E945807602F86E014
:1010F0000E94580761E0C11160E087E0DF91CF9165
:101100001F910F91FF90DF90CF900C94580700979C
:1011100069F0FC0101900020E9F73197AF01481B0D
:10112000590BBC0183E493E00C948F0080E090E0C5
:101130000895CF93DF930E948708EC0181E991E045
:101140000E9487088C0F9D1FDF91CF9108958F9289
:101150009F92AF92BF920F931F93CF93DF93CDB720
:10116000DEB7A1970FB6F894DEBF0FBECDBF19A2B0
:10117000423008F44AE08E010F5D1F4F842E912CFF
:10118000A12CB12CA50194010E94810EE62FB9017A
:10119000CA0101501109EA3014F4E05D01C0E95CB4
:1011A000D801EC93232B242B252B61F7C8010E9437
:1011B0008708A1960FB6F894DEBF0FBECDBFDF91B2
:1011C000CF911F910F91BF90AF909F908F900895F6
:1011D0000C948708CF92DF92EF92FF92CF93DF9328
:1011E0006B017C016DE283E493E00E942201EC013B
:1011F00066277727CB016C197D098E099F094AE084
:101200000E94A7088C0F9D1FDF91CF91FF90EF9058
:10121000DF90CF900895BC01990F880B990B97FD33
:101220000C94EA084AE00C94A70890E0FC01EE5800
:10123000FF4F2491FC01E255FF4F3491FC01E6562B
:10124000FF4FE491EE2309F43CC0222339F123300F
:1012500091F038F42130A9F0223001F584B58F7D6A
:1012600012C0273091F02830A1F02430B9F48091D9
:1012700080008F7D03C0809180008F7780938000F5
:101280000DC084B58F7784BD09C08091B0008F7781
:1012900003C08091B0008F7D8093B000F0E0EE0F2E
:1012A000FF1FE057FF4FA591B4919FB7F8946111CC
:1012B00004C08C913095382302C0EC913E2B3C93B6
:1012C0009FBF0895CF93DF9390E0FC01E255FF4F5D
:1012D0002491FC01E656FF4F8491882361F190E050
:1012E000880F991FFC01E859FF4FC591D491FC016B
:1012F000E057FF4FA591B491611109C09FB7F894D1
:101300008881209582238883EC912E230BC0623044
:1013100061F49FB7F8948881322F309583238883B6
:10132000EC912E2B2C939FBF06C08FB7F894E881C9
:101330002E2B28838FBFDF91CF9108958E3008F038
:101340008E502091090190E4299F9001112487700B
:10135000822B80937C0080917A00806480937A0055
:1013600080917A0086FDFCCF8091780020917900F1
:1013700090E0922B08958F929F92AF92BF92CF925E
:10138000DF92EF92FF926B017C010E94E9044B0116
:101390005C01C114D104E104F104F1F00E94E904FC
:1013A000DC01CB0188199909AA09BB09883E934041
:1013B000A105B10570F321E0C21AD108E108F108D6
:1013C00088EE880E83E0981EA11CB11CC114D104C4
:1013D000E104F10419F7DDCFFF90EF90DF90CF909B
:1013E000BF90AF909F908F900895CF93DF9300D0E0
:1013F00000D000D0CDB7DEB7789484B5826084BDCC
:1014000084B5816084BD85B5826085BD85B5816008
:1014100085BD80916E00816080936E001092810086
:101420008091810082608093810080918100816041
:101430008093810080918000816080938000809102
:10144000B10084608093B1008091B000816080938E
:10145000B00080917A00846080937A0080917A0055
:10146000826080937A0080917A00816080937A0014
:1014700080917A00806880937A001092C100109267
:10148000D8021092D702109241031092400310929A
:101490001F0381E080931E031092F90261E082E154
:1014A0000E94150961E083E10E9415098091B9004D
:1014B0008E7F8093B9008091B9008D7F8093B900B1
:1014C00088E48093B80085E48093BC008DE890E0C8
:1014D0009093AA028093A9028EE890E09093A802CC
:1014E0008093A702E0915303F091540382E080833C
:1014F000E0914F03F09150031082E0915103F0917D
:10150000520380E1808310925B03E0915703F091D6
:10151000580386E08083E0915503F0915603808163
:1015200080618083E0915503F0915603808188604B
:101530008083E0915503F091560380818068808319
:10154000E0915503F091560380818F7D80838AE678
:1015500091E00E94990810920704109206041092DC
:1015600005041092040410920304109202048DE901
:1015700091E090930904809308049091F8039631C8
:1015800008F058C02DEB30E03093030420930204A0
:101590002BE931E030930504209304042CE231E080
:1015A000309307042093060440916800983058F067
:1015B00031E09E3008F430E021E0822F01C0880F36
:1015C0003A95EAF701C084E0842B80936800983054
:1015D00038F09E3040F0963148F020E030E008C00E
:1015E0002DE630E005C02BE630E002C02CE630E00E
:1015F000309300042093FF03983030F481E001C061
:10160000880F9A95EAF70EC0292F30E09E3018F423
:101610002850310902C02E50310981E001C0880FE5
:101620002A95EAF7809301048091080490910904B7
:101630000197F1F78091060490910704892B49F1F5
:10164000E091AD02F091AE0223E0EC3EF20709F129
:10165000309739F0A389B4899C9185898095892335
:101660008C9380910A048E7F80930A041092AC02BE
:101670001092AB028CEE93E09093AE028093AD0299
:10168000E091FF03F0910004908180910104892B87
:10169000808381E08093090162E083E10E94620916
:1016A00062E089E00E94620961E083E00E946209D1
:1016B00061E082E00E94620984E090E00E949F0362
:1016C000809308018FE791E00E94E808609108018B
:1016D00070E080E090E04AE00E94A70881E991E094
:1016E0000E94870887E090E09D838C830E94BC0461
:1016F0008C819D8101979D838C83892BB9F768EB41
:101700007BE080E090E00E94BB0960ED77E080E044
:1017100090E00E94BB0984E991E00E949908109131
:1017200048013090490190914A019C8320914B01DE
:101730002E8399832A831B83232C82E8882E912C65
:10174000A12CB12C95E8492E512C612C712C809143
:101750000801882309F464C18FB7F894C090CD02C2
:10176000D090CE02E090CF02F090D0028FBFC09216
:10177000C802D092C902E092CA02F092CB020E9443
:10178000BC048091C4029091C502A091C602B091A0
:10179000C702C81AD90AEA0AFB0A84E1C816D104AA
:1017A000E104F1040CF499C101E08091050181117B
:1017B00000E021E08091C002811120E041E08091B1
:1017C0000601811140E06FEB72E08EEB92E00E9427
:1017D0003D0886EA91E00E94E8088091BC02909161
:1017E000BD020E940B098CEA91E00E94E8088091FA
:1017F000BA029091BB020E940B098091BA029091AB
:10180000BB028F3F21E092070CF041C02091BC0247
:101810003091BD02243082E03807BCF0C901330F9B
:10182000AA0BBB0B9C01AD0122503240410951096A
:10183000A0E8BCE00E94760EA30192010E94570E20
:101840003093B2022093B1026EC0213092E039078A
:101850000CF069C0C901330FAA0BBB0B9C01AD0191
:101860002058314041095109A0E8BCE00E94760EA1
:10187000A50194010E94570EDA01C90180589C40CD
:10188000A109B1099093B2028093B1024CC0823099
:1018900092400CF440C02091BC023091BD02243033
:1018A00082E03807BCF0C901330FAA0BBB0B9C01C7
:1018B000AD012250324041095109A0E8BCE00E942C
:1018C000760EA30192010E94570E3093B00220932E
:1018D000AF0229C0213092E039072CF5C901330F3E
:1018E000AA0BBB0B9C01AD012058314041095109A5
:1018F000A0E8BCE00E94760EA50194010E94570E5C
:10190000DA01C90180589C40A109B1099093B00245
:101910008093AF0208C01092B2021092B1021092EE
:10192000B0021092AF026091B1027091B20289814F
:101930009A810E94FA026091AF027091B0028B818D
:10194000922D0E94FA0282EB91E00E94E8088091B9
:10195000C2029091C3020E940B098BEB91E00E949E
:10196000E8088DEB91E00E94E8088091B802909120
:10197000B9020E940B098BEB91E00E94E8088FE806
:1019800091E00E9499088091B6029091B702019669
:101990009093B7028093B602499770F184E090E08B
:1019A0000E949F03809308011092B7021092B60222
:1019B0008091B502882321F081508093B50205C043
:1019C000809104018111109206018091B402882354
:1019D00021F081508093B40205C0809107018111EC
:1019E000109205018091B302882321F081508093E9
:1019F000B30202C01092C0022FB7F8948091CD02BA
:101A00009091CE02A091CF02B091D0022FBF8093CF
:101A1000C4029093C502A093C602B093C7025DC0F2
:101A20008091C10281111BC086EC91E00E94E80800
:101A300080910601882321F082ED91E00E94E80860
:101A400080910501882321F087ED91E00E94E8084C
:101A50008DE791E00E94990821E02093C10260E89F
:101A600073EF812F932D0E94FA0280910701882342
:101A700069F08091C2029091C3028B54910929E1CF
:101A8000289FB001299F700D11240EC060E87CE0F2
:101A90008C819E810E94FA026CED75E080E090E0FE
:101AA0000E94BB0960E070E08C819E810E94FA0276
:101AB00084E090E00E949F038093080181111092BE
:101AC000C102009105012091C002409106016EEB18
:101AD00072E08FEB92E00E943D080E94910137CEA8
:101AE0008AE391E09093ED038093EC038091AD0243
:101AF0009091AE028C5E934071F4E091FF03F091FF
:101B00000004908180910104809589238083109244
:101B1000AE021092AD020895109246031092450352
:101B200088EE93E0A0E0B0E08093470390934803F1
:101B3000A0934903B0934A0326E131E03093440374
:101B40002093430325EC30E03093500320934F0360
:101B500024EC30E0309352032093510320EC30E02A
:101B6000309354032093530321EC30E03093560319
:101B70002093550322EC30E0309358032093570311
:101B800026EC30E030935A032093590310925C0303
:101B900010925D0310925E0310925F031092E303B4
:101BA0001092E2038093E4039093E503A093E6038D
:101BB000B093E70328E231E03093E1032093E003A0
:101BC0001092EF031092EE038093F0039093F103D1
:101BD000A093F203B093F3038AE391E09093ED03B3
:101BE0008093EC03109203041092020410920504F7
:101BF0001092040410920704109206041092090433
:101C00001092080460910A046E7F6D7F60930A044D
:101C10006695617081E0682788E00E94150961E09F
:101C200088E00E946209E6EBF0E0E491E093FC03B7
:101C3000E2EAF0E0E491F0E0EE0FFF1FE057FF4F23
:101C4000859194919093FE038093FD0360E087E07B
:101C50000E94620980910A0481FD04C061E087E06E
:101C60000E94150987E08093F803E5EBF0E0E4912A
:101C7000E093F903E1EAF0E0E491F0E0EE0FFF1FFA
:101C8000EA57FF4F859194919093FB038093FA0359
:101C900080E280930D0410920E048FEF80930F0466
:101CA0008093100410921204109211040895052ECE
:101CB00097FB1EF400940E946E0E57FD07D00E9401
:101CC000810E07FC03D04EF40C946E0E5095409597
:101CD000309521953F4F4F4F5F4F089590958095D8
:101CE000709561957F4F8F4F9F4F08950E94A30E6F
:101CF000A59F900DB49F900DA49F800D911D112460
:101D00000895A1E21A2EAA1BBB1BFD010DC0AA1F3C
:101D1000BB1FEE1FFF1FA217B307E407F50720F054
:101D2000A21BB30BE40BF50B661F771F881F991FCF
:101D30001A9469F760957095809590959B01AC0118
:101D4000BD01CF010895A29FB001B39FC001A39F21
:101D5000700D811D1124911DB29F700D811D1124E4
:101D6000911D089597FB072E16F4009407D077FD78
:101D700009D00E94C60E07FC05D03EF490958195CF
:101D80009F4F0895709561957F4F0895AA1BBB1BC7
:101D900051E107C0AA1FBB1FA617B70710F0A61B6B
:101DA000B70B881F991F5A95A9F780959095BC018C
:101DB000CD010895EE0FFF1F0590F491E02D0994D9
:101DC00081E090E0F8940C94E50E10E0C2E6D0E0DB
:101DD00004C0FE010E94DA0E2196C336D107C9F76E
:041DE000F894FFCFA5
:101DE400010101010101010101010E000F001000B8
:101DF40011000000000022018F00B9006F01EA0009
:101E0400C800DC00000000002602F901F702CD0141
:101E1400F101DD01CE01000000006D028F00F70228
:101E2400CD01BD02D50255020A000D0000022C208E
:101E340020506F74002A2A2A20446573636F6E65EC
:101E4400637461646F2E2A2A2A00436F6D205365E0
:101E54007269616C20496E6963696164612E005026
:101E64006F747320436F6E65637461646F733A209B
:101E7400000D0A0053697374656D612061637469B0
:101E84007661646F2E002C204A793A002C094A7836
:101E94003A002C20465F7028613A0029002C20412A
:101EA4005F7028613A005061726F20456D657267FA
:0C1EB4003A004A79732C004163747300FB
:00000001FF
