:100000000C9463000C948B000C948B000C948F0563
:100010000C948F050C948F050C948B000C948B0022
:100020000C948B000C948B000C948B000C948B0024
:100030000C948B000C948B000C948B000C948B0014
:100040000C94ED040C948B000C945D050C94370516
:100050000C948B000C948B000C948B000C948B00F4
:100060000C948B000C948B000000000024002700EF
:100070002A0000000008000201000003040700003D
:1000800000000000000000000000230026002900FE
:1000900000000000250028002B00040404040404D0
:1000A0000404020202020202030303030303010227
:1000B00004081020408001020408102001020408F6
:1000C000102007067C0C11241FBECFEFD8E0DEBF46
:1000D000CDBF12E0A0E0B1E0EAE9FAE102C005908C
:1000E0000D92AA3DB107D9F724E0AAEDB2E001C014
:1000F0001D92AB35B207E1F710E0C2E6D0E004C0D4
:100100002197FE010E943A0DC136D107C9F70E941E
:10011000D0060C94400D0C940000833081F028F43C
:10012000813099F08230A9F008958730A9F08830A5
:10013000C9F08430B1F4809180008F7D03C080913C
:1001400080008F7780938000089584B58F7784BD79
:10015000089584B58F7DFBCF8091B0008F77809319
:10016000B00008958091B0008F7DF9CFCF93DF93D9
:10017000282F30E0F901EE58FF4F8491F901E25544
:10018000FF4FD491F901E656FF4FC491CC23A1F063
:1001900081110E948D00EC2FF0E0EE0FFF1FEA5757
:1001A000FF4FA591B491EC91ED2381E090E009F42B
:1001B00080E0DF91CF91089580E090E0FACF1F9327
:1001C000CF93DF93282F30E0F901EE58FF4F849151
:1001D000F901E255FF4FD491F901E656FF4FC49162
:1001E000CC23A9F0162F81110E948D00EC2FF0E096
:1001F000EE0FFF1FE057FF4FA591B4918FB7F89412
:10020000EC91111108C0D095DE23DC938FBFDF91F4
:10021000CF911F910895DE2BF8CFCF93DF9390E01D
:10022000FC01E255FF4F249186569F4FFC018491BB
:100230008823C9F090E0880F991FFC01E859FF4F0F
:10024000A591B491FC01E057FF4FC591D491611184
:100250000DC09FB7F8948C91209582238C93888150
:10026000282328839FBFDF91CF910895623051F4F6
:100270009FB7F8943C91822F809583238C93E881DB
:100280002E2BEFCF8FB7F894EC912E2B2C938FBFA2
:10029000EACF8E3008F08E502091040190E4299F1F
:1002A000900111248770822B80937C0080917A00CA
:1002B000806480937A0080917A0086FDFCCF8091E3
:1002C00078009091790008953FB7F8948091910358
:1002D00090919203A0919303B091940326B5A89BAB
:1002E00005C02F3F19F00196A11DB11D3FBFBA2FC8
:1002F000A92F982F8827BC01CD01620F711D811D88
:10030000911D42E0660F771F881F991F4A95D1F70C
:100310000895CF92DF92EF92FF920E9464016B01E9
:100320007C010E9464016C197D098E099F09683E59
:10033000734081059105A8F3FF90EF90DF90CF9077
:100340000895AF92BF92CF92DF92EF92FF920F93F8
:100350001F93CF93DF936C017B018B01040F151F5B
:10036000EB015E01AE18BF08C017D10759F06991C3
:10037000D601ED91FC910190F081E02DC601099527
:10038000892B79F7C501DF91CF911F910F91FF90D4
:10039000EF90DF90CF90BF90AF900895FC01538D08
:1003A000448D252F30E0842F90E0821B930B54174F
:1003B00010F0CF96089501970895FC01918D828DDC
:1003C000981761F0A28DAE0FBF2FB11D5D968C9175
:1003D000928D9F5F9F73928F90E008958FEF9FEFB4
:1003E0000895FC01918D828D981731F0828DE80F70
:1003F000F11D858D90E008958FEF9FEF0895FC012A
:10040000918D228D892F90E0805C9F4F821B9109F6
:100410008F739927089585E993E00E94FF0121E0F9
:10042000892B09F420E0822F089580E090E0892B49
:1004300029F00E940B0281110C9400000895FC0128
:10044000A48DA80FB92FB11DA35ABF4F2C91848D35
:1004500090E001968F739927848FA689B7892C9392
:10046000A089B1898C91837080648C93938D848DE5
:10047000981306C00288F389E02D80818F7D8083E8
:100480000895EF92FF920F931F93CF93DF93EC01A8
:1004900081E0888F9B8D8C8D98131AC0E889F9892B
:1004A000808185FF15C09FB7F894EE89FF8960832E
:1004B000E889F98980818370806480839FBF81E0AF
:1004C00090E0DF91CF911F910F91FF90EF900895F1
:1004D000F62E0B8D10E00F5F1F4F0F731127E02ECC
:1004E0008C8D8E110CC00FB607FCFACFE889F98904
:1004F000808185FFF5CFCE010E941F02F1CFEB8DE9
:10050000EC0FFD2FF11DE35AFF4FF0829FB7F894D7
:100510000B8FEA89FB8980818062CFCFCF93DF93F5
:10052000EC01888D8823B9F0AA89BB89E889F9890B
:100530008C9185FD03C0808186FD0DC00FB607FC40
:10054000F7CF8C9185FFF2CF808185FFEDCFCE0173
:100550000E941F02E9CFDF91CF91089520915603A9
:10056000309157032817390771F490915403809103
:100570005503981741F0E0915403F0E0EC5EFC4F16
:10058000808190E008958FEF9FEF08950895EF9296
:10059000FF920F931F93CF93DF93DC015C96ED9056
:1005A000FC905D97E114F10479F481E090E01396FA
:1005B0009C938E93129790E080E0DF91CF911F91F2
:1005C0000F91FF90EF9008955196ED91FC91529705
:1005D00050968C915097982F90950FB75E962C91CE
:1005E0005E97122F127021FD6095F89420811123DF
:1005F00019F1282B2083E7012197F1F728E0462FF6
:1006000050E0308160FF1AC0382B3083E70121971A
:10061000F1F7BA0175956795215089F7112381F09B
:100620008081892380830FBF5C968D919C91019777
:10063000F1F781E090E0C1CF2923DCCF3923E5CF6A
:100640009081892BEFCF20915603309157032817C3
:10065000390771F4809155032091540390E0805C38
:100660009F4F821B910960E470E00E940B0D08957A
:1006700090E080E0089520915603309157032817A9
:100680003907B9F49091540380915503981789F074
:10069000E0915403F0E0EC5EFC4F80812091540324
:1006A00030E02F5F3F4F2F7333272093540390E0A8
:1006B00008958FEF9FEF089590E080E0089560E047
:1006C00082E00E94DF0061E083E00C94DF00FF9293
:1006D0000F931F93CF93DF93F82E8B01962F812FCB
:1006E00061387C4014F090E88CE0C92FD82FC038D6
:1006F00083EFD80714F4C0E8D3EF6AEA8CE394E000
:100700000E94C7026F2D8CE394E00E94C70217FF7E
:100710001DC066E08CE394E00E94C702D195C195AC
:10072000D1096C2F6F718CE394E00E94C702BE0167
:1007300085E0759567958A95E1F78CE394E0DF9104
:10074000CF911F910F91FF900C94C70265E08CE34D
:1007500094E00E94C702E5CF0F931F939C01FB0119
:100760008091E8029091E902019667E070E00E94B2
:100770000B0D9093E9028093E802880F991FDF0127
:10078000A80FB91F2D933C93CF010E96AAEDB2E0AE
:10079000219131912D933D938E179F07C9F766EEF6
:1007A00072E0EAEDF2E081E04191519120813181E6
:1007B000241735073CF451834083DF0112972D93B2
:1007C0003C9380E06E177F0779F7882351F30091FF
:1007D000DC021091DD02012E000C220B330B409144
:1007E000DE025091DF02052E000C660B770B400FE6
:1007F000511F621F731F8091E0029091E102092E48
:10080000000CAA0BBB0B8C019D01040F151F261FAA
:10081000371F8091E2029091E302092E000CAA0B8F
:10082000BB0B080F191F2A1F3B1F8091E4029091F8
:10083000E502092E000CAA0BBB0BBC01CD01600F19
:10084000711F821F931F25E030E040E050E00E94BE
:10085000980CC9011F910F91089581E10E944901EF
:1008600066E073E00E94AC03909377038093760375
:1008700008950F931F93CF93DF938EE00E94490159
:100880008C018FE00E944901EC0168EF72E0C80121
:100890000E94AC0390937E0380937D036AEE72E026
:1008A000CE010E94AC0390937C0380937B03DF9185
:1008B000CF911F910F910895FC0101900020E9F75D
:1008C0003197AF01481B590BBC0185E993E00C94AB
:1008D000A1018F929F92AF92BF920F931F93CF93DC
:1008E000DF93CDB7DEB7A1970FB6F894DEBF0FBE8A
:1008F000CDBF19A2423008F44AE08E010F5D1F4FB0
:10090000842E912CB12CA12CA50194010E94CA0C1B
:10091000E62FB901CA01EA30F4F4E05DD801EE93A4
:100920008D01232B242B252B79F790E080E0109765
:1009300019F0CD010E945C04A1960FB6F894DEBFB9
:100940000FBECDBFDF91CF911F910F91BF90AF90A0
:100950009F908F900895E95CE1CFCF92DF92EF9264
:10096000FF92CF93DF936C01990FEE08FF08F7FE1B
:1009700019C06DE285E993E00E944102EC0166270F
:100980007727CB016C197D098E099F094AE00E94E7
:1009900069048C0F9D1FDF91CF91FF90EF90DF9046
:1009A000CF9008954AE0C701B601DF91CF91FF9043
:1009B000EF90DF90CF900C9469040C945C04CF937B
:1009C000DF930E945C04EC0189E291E00E945C04E8
:1009D0008C0F9D1FDF91CF9108951F920F920FB63C
:1009E0000F9211242F933F938F939F93AF93BF93B5
:1009F00080918D0390918E03A0918F03B09190030D
:100A000030918C0323E0230F2D3758F50196A11D5B
:100A1000B11D20938C0380938D0390938E03A0933C
:100A20008F03B09390038091910390919203A091D2
:100A30009303B09194030196A11DB11D809391037E
:100A400090939203A0939303B0939403BF91AF91BB
:100A50009F918F913F912F910F900FBE0F901F90FC
:100A6000189526E8230F0296A11DB11DD2CF1F9223
:100A70000F920FB60F9211242F933F934F935F93D2
:100A80006F937F938F939F93AF93BF93EF93FF9356
:100A900085E993E00E941F02FF91EF91BF91AF9112
:100AA0009F918F917F916F915F914F913F912F9186
:100AB0000F900FBE0F901F9018951F920F920FB6B8
:100AC0000F9211242F938F939F93EF93FF93E091B5
:100AD000A503F091A6038081E091AB03F091AC03F4
:100AE00082FD1BC090818091AE038F5F8F73209138
:100AF000AF03821741F0E091AE03F0E0EB56FC4FFC
:100B0000958F8093AE03FF91EF919F918F912F91DD
:100B10000F900FBE0F901F9018958081F4CF1F92F9
:100B20000F920FB60F9211242F933F934F935F9321
:100B30006F937F938F939F93AF93BF93EF93FF93A5
:100B4000E0915603F0915703309749F0A685B78599
:100B50008585968D91FF14C09C918923A1F4FF9106
:100B6000EF91BF91AF919F918F917F916F915F9125
:100B70004F913F912F910F900FBE0F901F9018959E
:100B80009C91892361F7A389B4899C91858980957B
:100B900089238C93868997890197F1F7608D718DF0
:100BA000A685B785558538E020E0CB010197F1F7A0
:100BB000822F90E095958795282F4C91452309F039
:100BC0002068315091F7868D81FD209580915503E5
:100BD00090E001968F73992730915403381799F05C
:100BE000A0915503B0E0AC5EBC4F2C9380935503AD
:100BF000828D938D0197F1F7A389B4898C919589A2
:100C0000892B8C93ACCF868D8160868FF1CF10922B
:100C100098031092970388EE93E0A0E0B0E08093F1
:100C2000990390939A03A0939B03B0939C0329E0AC
:100C300031E0309396032093950325EC30E0309318
:100C4000A2032093A10324EC30E03093A40320936B
:100C5000A30320EC30E03093A6032093A50321ECFE
:100C600030E03093A8032093A70322EC30E03093C8
:100C7000AA032093A90326EC30E03093AC03209321
:100C8000AB031092AE031092AF031092B003109218
:100C9000B10310923F0410923E048093400490935D
:100CA0004104A0934204B09343048BE191E09093FC
:100CB0003D0480933C04109253041092520410920D
:100CC0005504109254041092570410925604109236
:100CD00059041092580460915A046E7F6D7F60939E
:100CE0005A046695617081E0682788E00E94DF0001
:100CF00061E088E00E940D01E6EBF0E0E491E09312
:100D00004C04E2EAF0E0E491F0E0EE0FFF1FE05760
:100D1000FF4F8591949190934E0480934D0460E031
:100D200087E00E940D0180915A0481FD04C061E0BA
:100D300087E00E94DF0087E080934804E5EBF0E065
:100D4000E491E0934904E1EAF0E0E491F0E0EE0F91
:100D5000FF1FEA57FF4F8591949190934B04809326
:100D60004A048EEA91E090933B0480933A0489E42C
:100D700092E0909339048093380480E694E0909355
:100D800037048093360480EA9BEF90933504809378
:100D9000340482E490E09093330480933204089505
:100DA000789484B5826084BD84B5816084BD85B546
:100DB000826085BD85B5816085BD80916E00816052
:100DC00080936E00109281008091810082608093F8
:100DD00081008091810081608093810080918000FA
:100DE0008160809380008091B10084608093B10025
:100DF0008091B00081608093B00080917A0084601F
:100E000080937A0080917A00826080937A0080914A
:100E10007A00816080937A0080917A008068809364
:100E20007A001092C100E091A503F091A60382E040
:100E30008083E091A103F091A2031082E091A303CB
:100E4000F091A40380E180831092AD03E091A903A7
:100E5000F091AA0386E08083E091A703F091A803B4
:100E6000808180618083E091A703F091A803808155
:100E700088608083E091A703F091A8038081806857
:100E80008083E091A703F091A80380818F7D808308
:100E90008CE291E00E94DF041092570410925604F5
:100EA000109255041092540410925304109252045C
:100EB0008DE991E0909359048093580490914804EF
:100EC000963108F047C02DEB30E030935304209367
:100ED00052042BE931E030935504209354042CE262
:100EE00031E030935704209356042091680084E049
:100EF000983048F031E09E3008F430E081E001C0E5
:100F0000880F3A95EAF7822B809368002DE630E04F
:100F1000983050F02BE630E09E3030F02CE630E098
:100F2000963110F030E020E03093500420934F04CD
:100F3000292F30E0983008F055C381E001C0880FB8
:100F40009A95EAF78093510480915804909159043E
:100F50000197F1F78091560490915704892B49F13C
:100F6000E0915603F091570344E0EC33F40709F1A4
:100F7000309739F0A389B4899C918589809589231C
:100F80008C9380915A048E7F80935A04109255035B
:100F9000109254038CE394E090935703809356038C
:100FA000E0914F04F0915004808190915104892B7D
:100FB00080831092040162E089E00E940D0161E0EB
:100FC00083E00E940D0161E082E00E940D0160E07B
:100FD0008AE00E940D0160E083E10E940D0160E063
:100FE0008BE00E940D0160E082E10E940D0161E052
:100FF00084E00E940D0161E085E00E940D0160E047
:1010000084E00E94DF0060E085E00E94DF000E9433
:101010005F03C8E0D0E00E9439040E942D042197AC
:10102000D1F72FB7F89480918D0390918E03A09102
:101030008F03B09190032FBF809384039093850317
:10104000A0938603B09387038BE491E00E94DD04B4
:1010500088E691E00E94DF0484E791E00E94DF04CB
:1010600086E991E00E94DF0488EB91E00E94DD04B4
:101070004AE060ED77E080E090E00E94690489E258
:1010800091E00E945C0482ED91E00E94DD044AE060
:101090006EE170E080E090E00E94690489E291E0F6
:1010A0000E945C0486EE91E00E94DD0460913204AF
:1010B0007091330490E080E04AE00E94690489E284
:1010C00091E00E945C048EEC682E83E0782E93E021
:1010D000292E312C2FB7F89480918D0390918E0397
:1010E000A0918F03B09190032FBF809388039093BA
:1010F0008903A0938A03B0938B034091840350919A
:1011000085036091860370918703841B950BA60B62
:10111000B70B4E97A105B1050CF457C289E00E94A8
:10112000B600892B09F4ACC30E94390483E10E9404
:10113000B60021E0892B09F020E020937A038BE0B0
:101140000E94B60021E0892B09F020E0209379036A
:101150008AE00E94B60021E0892B09F020E020936C
:10116000780382E10E94B600EC0181E0209709F04B
:1011700080E0809383030E942D0480EB91E0CD2BCF
:1011800011F084ED92E09093010180930001209191
:1011900076033091770341E040937503233E53E09B
:1011A00035074CF480910001909101014497281774
:1011B00039070CF024C21092740385E192E00E947A
:1011C000DD0490E080E00E94AD0481E791E00E94A0
:1011D000DD041092730310927203109282038091C7
:1011E0007003909171030196909371038093700343
:1011F00020913204309133048217930720F48091B8
:10120000810381118EC010926F0310926E031092B1
:101210006D0310926C0310926B0310926A0361E0ED
:1012200082E00E94DF0061E083E00E94DF000E9414
:1012300089018EE00E9449015C018FE00E94490112
:101240007C0181E10E944901EC01552453948235CF
:10125000934008F4512C78EEA71673E0B70628F0F7
:1012600088EEE81683E0F80608F4512C60E082E08E
:101270000E94DF0060E083E00E94DF000E9489019D
:101280008EE00E9449016C018FE00E9449018C01AF
:1012900081E10E9449014C0191E5C916D10448F44D
:1012A0000135110530F4442443944AEB841691042B
:1012B00008F0412C0E945F035110542C58EEA516E3
:1012C00053E0B50628F081E061E5C616D10408F0C8
:1012D00080E080936E0378EEE71673E0F70620F067
:1012E00091E00135110508F090E090936F038111B2
:1012F000892F80936D0381E080936B03C235D340C7
:1013000008F480C14AEB8416910408F07BC18093F5
:101310006C0380936A0350928103109271031092C0
:10132000700300917F0310918003E0900301A0916E
:101330007D03B0917E03C0917B03D0917C03F0903C
:101340007803AF3F51E0B5070CF460C170926503BC
:1013500060926403F11014C0AD5FB14021E232E04D
:101360000E941F0D22E830E040E050E00E94980CFF
:1013700021503F4F4F4F5F4F3093670320936603D9
:101380008091620390916303E1100AC0809164032D
:10139000909165032091760330917703821B930B24
:1013A0009093610380936003809160039091610347
:1013B00030925F0320925E039C0197FF04C02227B6
:1013C0003327281B390B70E060E0233031054CF0E7
:1013D00022EE3FEF829FB001839F700D929F700DB0
:1013E000112470935B0360935A0383E090E00E94A2
:1013F00067030630110509F045C110926903109288
:10140000680387E292E00E94DD0480917D03909161
:101410007E030E94AD048DE292E00E94DD04809183
:101420007B0390917C030E94AD0485E392E00E94CF
:10143000DD046091780370E090E080E04AE00E9473
:1014400069048DE392E00E94DD0460917A0370E00C
:1014500090E080E04AE00E94690485E492E00E9406
:10146000DD046091790370E090E080E04AE00E9442
:1014700069048DE492E00E94DD046091830370E0D2
:1014800090E080E04AE00E94690485E592E00E94D5
:10149000DD0490E080E00E94AD048DE592E00E94C2
:1014A000DD0480916603909167030E94AD0487E696
:1014B00092E00E94DD0480915803909159030E94AC
:1014C000AD0481E792E00E94DD0480915C0390917D
:1014D0005D030E94AD048BE792E00E94DD048091E1
:1014E0007603909177030E94AD0483E892E00E9416
:1014F000DD0480916403909165030E94AD048DE842
:1015000092E00E94DD0480916003909161030E944B
:10151000AD0487E992E00E94DD0480915A03909126
:101520005B030E94AD0481EA92E00E94DD04809199
:101530006803909169030E94AD048EEA92E00E94D4
:10154000DD0490E080E00E94AD04C0908803D0905C
:101550008903E0908A03F0908B038091840390913B
:101560008503A0918603B0918703C81AD90AEA0AB5
:10157000FB0A85ED92E00E94DD044AE0C701B60156
:10158000F7FE0DC06DE285E993E00E9441026627F7
:101590007727CB016C197D098E099F094AE00E94CB
:1015A00069048BE392E00E94DF04809188039091AC
:1015B0008903A0918A03B0918B0380938403909355
:1015C0008503A0938603B093870380E090E0892B86
:1015D00009F480CD0E940B02882309F474CD0E9487
:1015E000000071CD9E3040F42850310981E001C0E7
:1015F000880F2A95EAF7A6CC2E503109F7CF4093F1
:101600007403DBCD10926C0380E083CEAC3F61E0CD
:10161000B6075CF52091000130910101032E000C0A
:10162000440B550B2E5C3340410951098DEF91E07D
:10163000BC016A1B7B0BDB010E94C20C27E830E077
:1016400040E050E00E94980C22533C4F4F4F5F4FB8
:101650003093650320936403F11092CE8FEF90E0F6
:1016600090936703809366038BCEF11006C08FEFD3
:1016700090E0909367038093660370926503609295
:1016800064037ECE0130110509F0DAC0CC3F71E071
:10169000D707F4F1C13082E0D8070CF4AECEC09089
:1016A0003A04D0903B04CC15DD050CF062C080906C
:1016B000360490903704092C000CAA08BB080D2CA6
:1016C000000CEE08FF089E01DD0F440B550B2C1992
:1016D0003D094E095F0960E87CE080E090E0681910
:1016E00079098A099B090E94FB0C29E731E040E057
:1016F00050E02C193D094E095F090E94980C820E9A
:10170000931EA41EB51E909269038092680379CE41
:10171000E0913A04F0913B04CE17DF070CF4BFCF01
:101720002091360430913704032E000C440B550BE6
:10173000285C310941095109BE01DD0F880B990B65
:101740006E5F7140810991090E94FB0C9F01FF0FA0
:10175000440B550B2E5F3140410951090E94980CF2
:1017600028533F4F4F4F5F4F3093690320936803D7
:1017700048CE8090380490903904C13092E0D90767
:1017800054F18C169D065CF120913404309135049F
:10179000032E000C440B550B28533F4F4F4F5F4F08
:1017A000BE01DD0F880B990B6E5F714081099109B5
:1017B0000E94FB0C092C000CAA08BB08A50194018F
:1017C0002E5F3140410951090E94980C285C310973
:1017D00041095109C9CF8C169D060CF012CEC0905C
:1017E0003404D09035040D2C000CEE08FF08092CB1
:1017F000000CAA08BB089E01DD0F440B550B2819ED
:1018000039094A095B0960E873EF8FEF9FEF6C19A4
:101810007D098E099F090E94FB0C2CE732E040E015
:1018200050E0281939094A095B090E94980CC20E38
:10183000D31EE41EF51ED0926903C0926803E1CD69
:10184000012B09F0DECDCE018D5F9140039708F4A6
:10185000D4CD9E01DD0F440B550B29573140410972
:101860005109A0E0B7EE0E94C50C23E031E040E052
:1018700050E00E94980C2058334F4F4F5F4F74CF69
:1018800086EB92E00E94DF0421E020930301809127
:10189000000190910101A301481B590B5093630370
:1018A0004093620380916B03882319F160E273E037
:1018B000709359036093580389E090E090935F031D
:1018C00080935E0340EC57EC50935D0340935C03C0
:1018D00060EC77EC8AE090E00E94670366E070E0DD
:1018E0007093800360937F031092690310926803E2
:1018F0002CCE20930201F2CF8BE191E090933D0436
:1019000080933C0480915603909157038C539440EC
:1019100071F4E0914F04F091500490818091510452
:10192000809589238083109257031092560308955F
:10193000052E97FB1EF400940E94AF0C57FD07D0B4
:101940000E94CA0C07FC03D04EF40C94AF0C5095C7
:101950004095309521953F4F4F4F5F4F089590959B
:101960008095709561957F4F8F4F9F4F08950E948E
:10197000EC0CA59F900DB49F900DA49F800D911D20
:1019800011240895B7FF0C94B70C0E94B70C821B6A
:10199000930B0895A1E21A2EAA1BBB1BFD010DC0DB
:1019A000AA1FBB1FEE1FFF1FA217B307E407F5070F
:1019B00020F0A21BB30BE40BF50B661F771F881FEB
:1019C000991F1A9469F760957095809590959B0181
:1019D000AC01BD01CF010895A29FB001B39FC0012A
:1019E000A39F700D811D1124911DB29F700D811D4B
:1019F0001124911D0895DB018F939F930E94B70CD2
:101A0000BF91AF91A29F800D911DA39F900DB29F9A
:101A1000900D1124089597FB072E16F4009407D01B
:101A200077FD09D00E94260D07FC05D03EF4909565
:101A300081959F4F0895709561957F4F08950E94FD
:101A4000EC0CB7FF0895821B930B0895AA1BBB1BD8
:101A500051E107C0AA1FBB1FA617B70710F0A61BAE
:101A6000B70B881F991F5A95A9F780959095BC01CF
:101A7000CD010895EE0FFF1F0590F491E02D09941C
:101A800010E0C2E6D0E004C0FE010E943A0D2196AB
:0A1A9000C336D107C9F7F894FFCF61
:101A9A00D402010101000000004102A101CE018E21
:101AAA0002FF01DD01F10100000000C702A1015C93
:101ABA0003C60223033B03AE020D0A00436F6D7592
:101ACA006E6963616369C3B36E2053657269616C41
:101ADA0020496E6963696164612E002A2A4D6F6428
:101AEA006F204F706572616369C3B36E204A6F7964
:101AFA00737469636B3A2000496E766572736F2E50
:101B0A00202A2A002A2AC2A1454C204652454E4F75
:101B1A00204E4F20455354C38120414354495641D6
:101B2A00444F212A2A002A2A456C204163656C65A4
:101B3A007261646F7220657374C3A1204163746912
:101B4A007661646F2E2A2A002A2A506572696F64A8
:101B5A006F2076657269666963616369C3B36E3AB9
:101B6A0020002A2A506572696F646F204465736584
:101B7A0061646F3A20002A2A43616E746964616461
:101B8A0020646520697465726163696F6E6573208C
:101B9A00706172612076657269666963616369C39F
:101BAA00B36E3A20002A2A4272616B654F757452ED
:101BBA00616E67653A20004A5F593A20002C094A4B
:101BCA005F583A20002C096246423A20002C2062D3
:101BDA0050553A20002C206250443A20002C2062B2
:101BEA004D433A20002C09425F703A20002C2020F5
:101BFA0020425F743A20002C202020425F653A2060
:101C0A00002C202020425F633A20002C09415F709B
:101C1A003A20002C202020415F743A20002C2020FA
:101C2A0020415F653A20002C202020415F633A2042
:101C3A00002C094374726C5F566F6C3A20002C209A
:101C4A0065646F3A20002A2A5061726F2064652009
:101C5A00456D657267656E636961204D616E756178
:0A1C6A006C2E2A2A002C09543A00BF
:00000001FF
