:100000000C9463000C948B000C948B000C944C05A6
:100010000C944C050C944C050C948B000C948B00A8
:100020000C948B000C948B000C948B000C948B0024
:100030000C948B000C948B000C948B000C948B0014
:100040000C94E8000C948B000C945B030C9432012C
:100050000C948B000C948B000C948B000C948B00F4
:100060000C941E040C948B00000000002400270058
:100070002A0000000008000201000003040700003D
:1000800000000000000000000000230026002900FE
:1000900000000000250028002B00040404040404D0
:1000A0000404020202020202030303030303010227
:1000B00004081020408001020408102001020408F6
:1000C00010200E0FF20E11241FBECFEFD8E0DEBFBE
:1000D000CDBF11E0A0E0B1E0EEE3F5E202C0059093
:1000E0000D92AE3FB107D9F724E0AEEFB1E001C009
:1000F0001D92A335B207E1F710E0C2E6D0E004C0DC
:100100002197FE010E94B610C136D107C9F70E949F
:10011000F6090C9492120C940000CF92DF92EF92A9
:10012000FF920F931F93CF93DF936C017A018B01A2
:10013000C0E0D0E0CE15DF0581F0D8016D918D01D2
:10014000D601ED91FC910190F081E02DC601099559
:10015000892B11F02196EECF7E01C701DF91CF915F
:100160001F910F91FF90EF90DF90CF9008950E9424
:100170008D1283E793E00E94890121E0892B09F425
:1001800020E0822F08953FB7F89480913402909137
:100190003502A0913602B091370226B5A89B05C062
:1001A0002F3F19F00196A11DB11D3FBFBA2FA92FF6
:1001B000982F8827820F911DA11DB11DBC01CD0173
:1001C00042E0660F771F881F991F4A95D1F708955F
:1001D0001F920F920FB60F9211242F933F938F937C
:1001E0009F93AF93BF938091300290913102A09181
:1001F0003202B091330230912F0223E0230F2D37CA
:1002000020F40196A11DB11D05C026E8230F02961A
:10021000A11DB11D20932F028093300290933102D3
:10022000A0933202B0933302809134029091350250
:10023000A0913602B09137020196A11DB11D8093A5
:10024000340290933502A0933602B0933702BF91E7
:10025000AF919F918F913F912F910F900FBE0F9073
:100260001F9018951F920F920FB60F9211242F9383
:100270003F934F935F936F937F938F939F93AF932E
:10028000BF93EF93FF9383E793E00E948D03FF9169
:10029000EF91BF91AF919F918F917F916F915F91FE
:1002A0004F913F912F910F900FBE0F901F90189577
:1002B000FC01538D448D252F30E0842F90E0821B6C
:1002C000930B541710F0CF96089501970895FC01F1
:1002D000918D828D981761F0828DDF01A80FB11D7D
:1002E0005D968C91928D9F5F9F73928F90E00895A1
:1002F0008FEF9FEF0895FC01918D828D981731F05B
:10030000828DE80FF11D858D90E008958FEF9FEFAE
:100310000895FC01918D228D892F90E0805C9F4F84
:10032000821B91098F739927089580E090E0892BB3
:1003300029F00E94B90081110C940000089585ED08
:100340008093BC008091BC0084FDFCCF10924F03D1
:1003500008954091E002262F30E0240F311D213214
:100360003105DCF420914F032430C9F4FC0180E016
:1003700090E0861758F43091E0022191DC01A054FE
:10038000BD4FA30FB11D2C930196F3CF8091E002D6
:10039000680F6093E00280E0089581E0089582E0B4
:1003A0000895089508950895E09108038091070342
:1003B000E81730F4F0E0E75FFC4F808190E00895AB
:1003C0008FEF9FEF0895909108038091070398178E
:1003D00050F4E92FF0E0E75FFC4F208130E09F5FB1
:1003E0009093080302C02FEF3FEFC9010895809159
:1003F000070390E020910803821B91090895CF9292
:10040000DF92EF92FF920F931F93CF93DF937C01C4
:10041000CB018A0120917203222389F0EB016B0149
:10042000C40ED51ECC15DD0569F06991D701ED919B
:10043000FC910190F081E02DC7010995F3CF642F65
:100440000E94A901C801DF91CF911F910F91FF90E8
:10045000EF90DF90CF900895CF93DF931F92CDB7A9
:10046000DEB76983209172032223D1F020917003BB
:10047000203240F021E030E0FC013383228380E031
:1004800090E015C080917103E82FF0E0E05BFC4F35
:10049000998190838F5F809371038093700305C06F
:1004A00061E0CE0101960E94A90181E090E00F90E9
:1004B000DF91CF9108952091040230910502281711
:1004C000390771F49091020280910302981741F06C
:1004D000E0910202F0E0E058FD4F808190E0089545
:1004E0008FEF9FEF08951F93CF93DF93DC015C960E
:1004F0008D919C915D97009739F421E030E013963F
:100500003C932E9312973BC05196ED91FC915297DC
:1005100050962C915097322F30951FB75E964C9184
:100520005E97742F727041FD6095F8944081772337
:1005300011F0422B01C043234083EC012197F1F7D6
:1005400048E0508160FF02C0522B01C0532350830A
:10055000EC012197F1F76695415099F78081772357
:1005600019F08323808302C0282B20831FBF5C9651
:100570008D919C915D970197F1F781E090E0DF917B
:10058000CF911F9108952091040230910502281700
:10059000390771F4809103022091020290E0805C9F
:1005A0009F4F821B910960E470E00E948E100895B5
:1005B00080E090E008952091040230910502281710
:1005C0003907B9F49091020280910302981789F0DB
:1005D000E0910202F0E0E058FD4F8081209102029C
:1005E00030E02F5F3F4F2F7333272093020290E0BC
:1005F00008958FEF9FEF0895089580E090E00895AB
:100600000F931F938C019B018091460290914702AA
:10061000019667E070E00E948E10909347028093ED
:100620004602880F991FF901E80FF91F1183008313
:10063000F901A8E3B2E0819191918D939D9382E0BD
:10064000A634B807C1F704E412E044E452E0E8E35A
:10065000F2E081E0619171912081318126173707A5
:100660005CF00E171F07B1F7882379F3EAE3F2E095
:1006700060E070E0CB0108C071836083DF011297F6
:100680002D933C9380E0EDCF01911191012E000C50
:10069000220B330B600F711F821F931F4E175F07D2
:1006A00099F725E030E040E050E00E941B10C901BE
:1006B0001F910F9108951F920F920FB60F92112460
:1006C0002F938F939F93EF93FF93E0918303F09188
:1006D00084038081E0918903F0918A0382FD12C036
:1006E000908180918C038F5F8F7320918D0382178F
:1006F00051F0E0918C03F0E0ED58FC4F958F809322
:100700008C0301C08081FF91EF919F918F912F9178
:100710000F900FBE0F901F901895FC01848DDF0184
:10072000A80FB11DA35ABF4F2C91848D90E0019664
:100730008F739927848FA689B7892C93A089B18953
:100740008C91837080648C93938D848D981306C0F4
:100750000288F389E02D80818F7D80830895EF9258
:10076000FF920F931F93CF93DF93EC0181E0888F6B
:100770009B8D8C8D981305C0E889F989808185FD52
:1007800026C0F62E0B8D10E00F5F1F4F0F73112741
:10079000E02E8C8DE8120CC00FB607FCFACFE8896A
:1007A000F989808185FFF5CFCE010E948D03F1CFBD
:1007B0008B8DFE01E80FF11DE35AFF4FF0829FB7CA
:1007C000F8940B8FEA89FB89808180620AC09FB709
:1007D000F894EE89FF896083E889F98980818370C4
:1007E000806480839FBF81E090E0DF91CF911F9173
:1007F0000F91FF90EF900895CF93DF93EC01888DD8
:100800008823C9F0EA89FB89808185FD05C0A88914
:10081000B9898C9186FD0FC00FB607FCF5CF80819A
:1008200085FFF2CFA889B9898C9185FFEDCFCE01E4
:100830000E948D03E7CFDF91CF9108951F920F9211
:100840000FB60F9211242F933F934F935F936F93A3
:100850007F938F939F93AF93BF93EF93FF93809179
:10086000B900887F803609F49CC068F5883209F4A5
:100870005BC090F4803109F454C038F4882309F443
:10088000F6C0883009F44DC0F6C0883109F44CC078
:10089000803209F45DC0EFC0803409F468C048F4C8
:1008A000803309F455C0883309F0E5C080934D03C7
:1008B000D8C0803509F44FC0883509F45DC088344C
:1008C00009F0D9C0D6C0883909F4C7C0A8F4883760
:1008D00009F467C038F4883609F463C0803709F436
:1008E00060C0C9C0883809F4B8C0803909F45FC055
:1008F000803809F0C0C05BC0803B09F486C038F482
:10090000803A09F466C0883A09F47FC0B4C0803CDC
:1009100009F4A7C0883C09F4A4C0883B09F48AC044
:10092000AAC080912A0310C090914C0380914B0380
:10093000981770F5E0914C0381E08E0F80934C0383
:10094000F0E0E55DFC4F80818093BB0085EC86C0C4
:1009500080934D038EC0E0914C0381E08E0F809315
:100960004C038091BB00F0E0E55DFC4F80839091EB
:100970004C0380914B036EC0E0914C0381E08E0FDD
:1009800080934C038091BB00F0E0E55DFC4F8083D9
:1009900080914E0381116DC081E08093290384EA28
:1009A00061C083E080934F0310920203CFCF809108
:1009B0000203803208F051C0E091020381E08E0F03
:1009C000809302038091BB00F0E0EE51FD4F8083E5
:1009D000BDCF85EC8093BC0010924F038091020341
:1009E000803230F4E0910203F0E0EE51FD4F1082CE
:1009F0006091020370E0E091FE01F091FF0182EE50
:100A000092E009951092020336C084E080934F0370
:100A10001092E1021092E002E0910002F0910102D6
:100A200009958091E002811105C081E08093E00288
:100A30001092C002E091E10281E08E0F8093E1020A
:100A4000F0E0E054FD4F80818093BB009091E10283
:100A50008091E002981708F479CF85E88093BC0074
:100A60000AC085EC8093BC0010924F0304C0109222
:100A70004D030E949F01FF91EF91BF91AF919F9114
:100A80008F917F916F915F914F913F912F910F9037
:100A90000FBE0F901F9018951F920F920FB60F92D6
:100AA00011242F933F934F935F936F937F938F9373
:100AB0009F93AF93BF93EF93FF93E0910402F09164
:100AC0000502309709F451C0968DA685B7858585B6
:100AD00091FF04C09C91892329F447C09C918923EC
:100AE00009F043C0A389B4899C91858980958923A5
:100AF0008C93868997890197F1F7608D718DA68512
:100B0000B785558538E020E0CB010197F1F7822FBA
:100B100090E095958795282F4C91452309F0206802
:100B2000315091F7868D81FD20958091030290E0F0
:100B300001968F73992730910202381749F0A091DE
:100B40000302B0E0A058BD4F2C938093030203C072
:100B5000868D8160868F828D938D0197F1F7A389B1
:100B6000B4899C918589892B8C93FF91EF91BF91DA
:100B7000AF919F918F917F916F915F914F913F9135
:100B80002F910F900FBE0F901F9018959F92AF92CC
:100B9000BF92CF92DF92EF92FF920F931F93CF936A
:100BA000DF936C0181E080930701809306018093BD
:100BB0000001809305018093030161E082E00E94BF
:100BC000160961E083E00E94160961E070E080E0B0
:100BD00090E00E94BC098BE0A82E81E0B82E850130
:100BE000C0E0D0E096E0992ECC15DD0509F45BC09D
:100BF000F80180810E5F1F4F0E949F097C0161E018
:100C000070E080E090E00E94BC092097D9F4F8EEF3
:100C1000EF16F3E0FF06A8F580910F0281110FC0D7
:100C200084EB91E00E94E50883EE91E00E94E508E4
:100C300080EC91E00E94E508C7010E940910109223
:100C400007011DC0C130D105E1F488EEE81683E04C
:100C5000F806B8F480910F0281110FC08DEC91E07D
:100C60000E94E50883EE91E00E94E50880EC91E0A7
:100C70000E94E508C7010E94091010920601909297
:100C80000C0280910601882329F081E090910701F0
:100C9000911101C080E08093000180910501809353
:100CA00003012196A1CF80910301882329F011E04F
:100CB00080910001811101C010E060E082E00E949B
:100CC000160960E083E00E94160961E070E080E0B0
:100CD00090E00E94BC09C0E0D0E006E0CC15DD0544
:100CE00009F456C0F5018081F2E0AF0EB11C0E94FC
:100CF0009F097C0161E070E080E090E00E94BC0907
:100D00002097D1F481E5E816F104A0F180910F025B
:100D100081110FC088ED91E00E94E50882EE91E01C
:100D20000E94E50880EC91E00E94E508C7010E945E
:100D30000910109207011CC0C130D105D9F491E50A
:100D4000E916F104B8F080910F0281110FC083EF12
:100D500091E00E94E50882EE91E00E94E50880ECB7
:100D600091E00E94E508C7010E9409101092060157
:100D700000930C0280910601882329F081E0909174
:100D80000701911101C080E0809300012196A6CF58
:100D900081E08093030180910001811101C010E086
:100DA00060E082E00E94160961E083E00E9416097B
:100DB000812FDF91CF911F910F91FF90EF90DF90E6
:100DC000CF90BF90AF909F9008951F93CF93DF93E4
:100DD000182F603883EF78079CF1EB0161387C4075
:100DE00014F0C0E8DCE06AEA8CE294E00E9473024E
:100DF000612F8CE294E00E947302D7FF09C066E085
:100E00008CE294E00E947302D195C195D10905C08E
:100E100065E08CE294E00E9473026C2F6F718CE2AB
:100E200094E00E947302BE0185E0759567958A95EE
:100E3000E1F78CE294E0DF91CF911F910C94730263
:100E40006AEA8CE294E00E947302612F8CE294E0E3
:100E50000E947302C0E8D3EFD2CF8EE00E949F09B8
:100E600062E772E00E94000390930B0280930A02F3
:100E70008FE00E949F0964E672E00E940003909355
:100E800007028093060280E10E949F0966E572E0F6
:100E90000E94000390930E0280930D0281E10E9454
:100EA0009F0968E472E00E94000390930902809316
:100EB00008020895CF9340914F0421E030E0611182
:100EC00009C001C0220F8A95EAF7209524232093B8
:100ED0004F040AC0B90102C0660F771F8A95E2F776
:100EE000CB01842B80934F0460914F04C0914D043B
:100EF00081E080937203C0934C04109271031092AE
:100F0000700380E194E00E942C0220917003213252
:100F100008F049C080914F038111FCCF92E090937B
:100F20004F0391E090934E039FEF90934D031092E7
:100F30004C0320934B03A0E5B3E0EBE2F3E090E039
:100F4000291721F03D9131939F5FFACF10922A0328
:100F500090912A03CC0FC92BC0932A0390912903A7
:100F6000913061F41092290390912A039093BB0071
:100F70009091BC0093FDF8CF95EC01C095EE909355
:100F8000BC0090914F039230E1F390914D039F3F4D
:100F900079F080914D03803241F080914D03803390
:100FA00031F084E005C081E003C082E001C083E04D
:100FB00010927103109270031092720390E090935C
:100FC000520480935104CF91089580914D049091E3
:100FD0004F039111FCCF91E090934F0390934E03F8
:100FE0002FEF20934D0310924C0310924B039093DC
:100FF0002A0390912A03880F892B80932A038091DA
:101000002903813061F41092290380912A0380938F
:10101000BB008091BC0083FDF8CF85EC01C085EE5C
:101020008093BC0080914F038130E1F380914C03A9
:10103000811103C090914C0301C091E0EBE2F3E019
:10104000A9E0B3E080E0891721F021912D938F5F13
:10105000FACF1092080380930703813049F082E8A9
:1010600090E0909352048093510480914E0408952F
:1010700080E194E00E94E30180934E0408950F9371
:101080001F93CF93DF93082F162FD42F0E94E507CD
:1010900090914E0481E090FF80E0809306030E94CF
:1010A000E50790914E0481E091FF80E08093050375
:1010B0000E94E50790914E0481E092FF80E08093CA
:1010C00004030E94E50790914E0481E093FF80E0C5
:1010D00080930303C0910603C0934B04602F84E008
:1010E0000E945A07612F85E00E945A076D2F86E003
:1010F0000E945A0761E0C11160E087E00E945A0730
:1011000080910503813019F488E891E002C08AE8F3
:1011100092E090930A0180930901DF91CF911F9192
:101120000F910895009769F0FC0101900020E9F704
:101130003197AF01481B590BBC0183E793E00C9436
:101140008D0080E090E008958F929F92AF92BF92C1
:101150000F931F93CF93DF93CDB7DEB7A1970FB651
:10116000F894DEBF0FBECDBF19A2423008F44AE0AA
:101170008E010F5D1F4F842E912CA12CB12CA50147
:1011800094010E944D10E62FB901CA0101501109C6
:10119000EA3014F4E05D01C0E95CD801EC93232B44
:1011A000242B252B61F7C8010E949208A1960FB647
:1011B000F894DEBF0FBECDBFDF91CF911F910F918D
:1011C000BF90AF909F908F9008950C949208CF930A
:1011D000DF930E949208EC018AE791E00E94920856
:1011E0008C0F9D1FDF91CF910895CF92DF92EF92E8
:1011F000FF92CF93DF936B017C016DE283E793E075
:101200000E94AF03EC0166277727CB016C197D099B
:101210008E099F094AE00E94A4088C0F9D1FDF9150
:10122000CF91FF90EF90DF90CF90089590E0FC0178
:10123000EE58FF4F2491FC01E255FF4F3491FC0121
:10124000E656FF4FE491EE2309F43CC0222339F126
:10125000233091F038F42130A9F0223001F584B523
:101260008F7D12C0273091F02830A1F02430B9F4DE
:10127000809180008F7D03C0809180008F77809364
:1012800080000DC084B58F7784BD09C08091B00007
:101290008F7703C08091B0008F7D8093B000F0E025
:1012A000EE0FFF1FE057FF4FA591B4919FB7F89441
:1012B000611104C08C913095382302C0EC913E2B13
:1012C0003C939FBF0895CF93DF9390E0FC01E255DC
:1012D000FF4F2491FC01E656FF4F8491882361F172
:1012E00090E0880F991FFC01E859FF4FC591D491F8
:1012F000FC01E057FF4FA591B491611109C09FB760
:10130000F8948881209582238883EC912E230BC04A
:10131000623061F49FB7F8948881322F309583232F
:101320008883EC912E2B2C939FBF06C08FB7F89427
:10133000E8812E2B28838FBFDF91CF9108958E30C7
:1013400008F08E502091080190E4299F900111240B
:101350008770822B80937C0080917A0080648093D8
:101360007A0080917A0086FDFCCF809178002091F0
:10137000790090E0922B08958F929F92AF92BF9246
:10138000CF92DF92EF92FF926B017C010E94C3002B
:101390004B015C01C114D104E104F104F1F00E949D
:1013A000C300DC01CB0188199909AA09BB09883E51
:1013B0009340A105B10570F321E0C21AD108E108FC
:1013C000F10888EE880E83E0981EA11CB11CC114A0
:1013D000D104E104F10419F7DDCFFF90EF90DF9025
:1013E000CF90BF90AF909F908F900895CF93DF9351
:1013F000CDB7DEB728970FB6F894DEBF0FBECDBFCE
:10140000789484B5826084BD84B5816084BD85B5DF
:10141000826085BD85B5816085BD80916E008160EB
:1014200080936E0010928100809181008260809391
:101430008100809181008160809381008091800093
:101440008160809380008091B10084608093B100BE
:101450008091B00081608093B00080917A008460B8
:1014600080937A0080917A00826080937A008091E4
:101470007A00816080937A0080917A0080688093FE
:101480007A001092C1001092080310920703109284
:1014900071031092700310924F0381E080934E030A
:1014A0001092290361E082E10E94160961E083E164
:1014B0000E9416098091B9008E7F8093B9008091B7
:1014C000B9008D7F8093B90088E48093B80085E4EB
:1014D0008093BC0081ED91E0909301028093000223
:1014E00082ED91E09093FF018093FE01E0918303F0
:1014F000F091840382E08083E0917F03F091800388
:101500001082E0918103F091820380E18083109248
:101510008B03E0918703F091880386E08083E0915C
:101520008503F0918603808180618083E09185034B
:10153000F0918603808188608083E0918503F0913B
:101540008603808180688083E0918503F091860323
:1015500080818F7D808383E591E00E94E70810926F
:1015600047041092460410924504109244041092CD
:101570004304109242048DE991E0909349048093D2
:10158000480490913804963108F058C02DEB30E0B3
:1015900030934304209342042BE931E03093450417
:1015A000209344042CE231E0309347042093460416
:1015B00040916800983058F031E09E3008F430E0F7
:1015C00021E0822F01C0880F3A95EAF701C084E03C
:1015D000842B80936800983038F09E3040F096312C
:1015E00048F020E030E008C02DE630E005C02BE6F2
:1015F00030E002C02CE630E03093400420933F04FA
:10160000983030F481E001C0880F9A95EAF70EC057
:10161000292F30E09E3018F42850310902C02E5096
:10162000310981E001C0880F2A95EAF780934104CF
:1016300080914804909149040197F1F78091460404
:1016400090914704892B49F1E0910402F091050241
:1016500024E0EC32F20709F1309739F0A389B4891C
:101660009C918589809589238C9380914A048E7FF3
:1016700080934A0410920302109202028CE294E0DA
:101680009093050280930402E0913F04F09140049E
:10169000908180914104892B808381E080930801AF
:1016A00062E083E10E94630962E089E00E946309CD
:1016B00061E083E00E94630961E082E00E946309C7
:1016C00084E090E00E94C6058093040188E691E0E2
:1016D0000E94E5086091040170E080E090E04AE03B
:1016E0000E94A4088AE791E00E94920883E793E0B1
:1016F0000E94FC0347E050E05A8349830E942D0773
:1017000089819A8101979A838983892BB9F76CED36
:1017100075E080E090E00E94BC0981E090E0909349
:101720001902809318022FB7F8948091300290919B
:101730003102A0913202B09133022FBF8093270271
:1017400090932802A0932902B0932A028DE791E09A
:101750000E94E7082090490130904A0120914B01F6
:1017600030914C013E832D838101412C512C32015B
:10177000539480910401882309F4DAC28FB7F89456
:10178000C0903002D0903102E0903202F0903302EB
:101790008FBFC0922B02D0922C02E0922D02F092C9
:1017A0002E020E942D0710920F0280912702909125
:1017B0002802A0912902B0912A02C81AD90AEA0A7D
:1017C000FB0A34E1C316D104E104F1040CF407C3AD
:1017D00041E080910101811140E061E080912602A9
:1017E000811160E081E090910201911180E00E94FE
:1017F0003F0860910A0270910B02643042E0740766
:101800006CF182EF93E0909321028093200220916B
:10181000090130910A01C901330FAA0BBB0B9C01CE
:10182000AD012A5A334041095109CB01770FAA0B68
:10183000BB0BBC01CD0162507240810991090E942D
:101840007E1025E830E040E050E00E941B10DA01F5
:10185000C90186559C4FAF4FBF4F31C0613092E0F8
:1018600079072CF52AEA33E030931F0220931E02F9
:10187000CB01770FAA0BBB0B9C01AD012058314067
:1018800041095109A2E6B2E00E943A1022E830E094
:1018900040E050E00E941B10DA01C90180579E4FC2
:1018A000AF4FBF4F90932102809320020CC042EFB4
:1018B00053E050932102409320028AEA93E09093F0
:1018C0001F0280931E0280910D0290910E022091C2
:1018D000200230912102821B930B29E1289FB00145
:1018E000299F700D112440911E0250911F022091DA
:1018F000080230910902421B530B5A8349835093CB
:101900001D0240931C029A0131952195310959E13C
:10191000529F7001539FF00C1124F0921B02E09231
:101920001A020396079710F460E070E08D819E81A3
:101930000E94E50689819A810396079710F0B70106
:1019400002C060E070E0C8010E94E506C090280473
:10195000D0902904E0902A04F0902B048091180282
:1019600090911902009709F0B0C0A701960160E0BC
:1019700070E0CB010E94C1106B017C012091260414
:10198000309127043A832983B9016E5C7F4F072E7B
:10199000000C880B990B0E946B114B015C019B01A1
:1019A000AC01C701B6010E941B121816A4F4609185
:1019B00024047091250462537109072E000C880BD2
:1019C000990B0E946B119B01AC01C701B6010E94EB
:1019D000BC1087FD7DC049815A81BA01550F880B23
:1019E000990B0E946B1169837A838B839C839B0183
:1019F000AC01C701B6010E941B12181644F4A501E0
:101A00009401C701B6010E94BC1087FD28C08091D7
:101A100024049091250498878F83BC01990F880B2B
:101A2000990B0E946B114B015C019B01AC01C7013A
:101A3000B6010E94BC1087FF2FC02F81388522532A
:101A40003109B901330F880B990B0E946B119B016F
:101A5000AC01C701B6010E941B121816ECF42091CC
:101A6000060230910702C901330FAA0BBB0B9C0180
:101A7000AD012358314041095109A0EAB6EF0E9457
:101A80004810A30192010E941B10CA01B9016055C0
:101A90007B4F8F4F9F4FFBC029813A814B815C81E7
:101AA000C701B6010E94BC1087FF03C060EC79EF4C
:101AB000EEC0A5019401C701B6010E941B121816C1
:101AC0000CF0E9C060E476E0E2C08130910529F5D0
:101AD0002091060230910702C9018F5F9140039760
:101AE00018F460E070E0D3C0C901330FAA0BBB0B40
:101AF0009C01AD012358314041095109A0E0B7EEE6
:101B00000E944810A30192010E941B10CA01B90152
:101B10006058734F8F4F9F4FBAC0029709F0BBC0F8
:101B200090910603209106023091070280910503EF
:101B30009923C9F0811130C0809026049090270429
:101B4000092C000CAA08BB08C901330FAA0BBB0B58
:101B50009C01AD0123583140410951096091240491
:101B6000709125042FC08823B9F080901E049090B6
:101B70001F04092C000CAA08BB08C901330FAA0BCB
:101B8000BB0B9C01AD0123583140410951096091C3
:101B90001C0470911D0416C08090220490902304B0
:101BA000092C000CAA08BB08C901330FAA0BBB0BF8
:101BB0009C01AD0123583140410951096091200435
:101BC00070912104CB01770FAA0BBB0BBC01CD0197
:101BD000681979098A099B090E947E10A301920164
:101BE0000E941B10CA01B901680D791D8A1D9B1D39
:101BF0000E946B1160931402709315028093160279
:101C00009093170220911402309115024091160210
:101C100050911702C701B6010E9420126B017C018E
:101C2000609310027093110280931202909313023A
:101C30000E9433119B0177FF04C022273327261B04
:101C4000370BB901330F880B990B0E946B1120E001
:101C500030E040E85FE30E941B1218160CF041CF01
:101C600020E030E040EA51E4C701B6010E942012B2
:101C700090580E943311603833EF730714F460E812
:101C800073EF61384CE0740714F060E87CE084E0A6
:101C900090E00E94E5068091240290912502019631
:101CA0009093250280932402499770F184E090E09C
:101CB0000E94C6058093040110922502109224020E
:101CC00080910C02882321F0815080930C0205C082
:101CD00080910001811110920201809123028823DA
:101CE00021F081508093230205C08091030181116E
:101CF0001092010180912202882321F0815080936B
:101D0000220202C0109226022FB7F894809130026E
:101D100090913102A0913202B09133022FBF809393
:101D2000270290932802A0932902B0932A0257C059
:101D300080910F0281111BC08FE891E00E94E5089D
:101D400080910201882321F08BE991E00E94E5084F
:101D500080910101882321F080EA91E00E94E5084A
:101D600086E691E00E94E70851E050930F0260E898
:101D700073EFC1010E94E50660E070E084E090E04E
:101D80000E94E50684E090E00E94C605809304016D
:101D900085EA91E00E94E5084AE064E070E080E0B6
:101DA00090E00E94A40880910401811110920F021A
:101DB00041E080910101811140E061E080912602C3
:101DC000811160E081E090910201911180E00E9418
:101DD0003F0864E670E080E090E00E94BC090E9449
:101DE0009501C7CC8BE391E090932D0480932C0454
:101DF00080910402909105028C52944071F4E0911C
:101E00003F04F091400490818091410480958923A2
:101E100080831092050210920402089510927603B6
:101E20001092750388EE93E0A0E0B0E08093770312
:101E300090937803A0937903B0937A0327E131E07C
:101E4000309374032093730325EC30E030938003C8
:101E500020937F0324EC30E03093820320938103AE
:101E600020EC30E0309384032093830321EC30E0B6
:101E7000309386032093850322EC30E0309388036F
:101E80002093870326EC30E030938A032093890364
:101E900010928C0310928D0310928E0310928F0378
:101EA000109213041092120480931404909315045A
:101EB000A0931604B093170429E231E03093110483
:101EC0002093100410922F0410922E04809330045B
:101ED00090933104A0933204B09333048BE391E0E8
:101EE00090932D0480932C0410924304109242048A
:101EF0001092450410924404109247041092460434
:101F0000109249041092480460914A046E7F6D7FDC
:101F100060934A046695617081E0682788E00E94BA
:101F2000160961E088E00E946309E6EBF0E0E491C5
:101F3000E0933C04E2EAF0E0E491F0E0EE0FFF1FF2
:101F4000E057FF4F8591949190933E0480933D0418
:101F500060E087E00E94630980914A0481FD04C02B
:101F600061E087E00E94160987E080933804E5EB82
:101F7000F0E0E491E0933904E1EAF0E0E491F0E08C
:101F8000EE0FFF1FEA57FF4F8591949190933B040A
:101F900080933A0486E696E6A6EABFE38093280497
:101FA00090932904A0932A04B0932B0489E29EEF16
:101FB00090932704809326048CEE92E0909325045E
:101FC0008093240489EB9FEF909323048093220451
:101FD0008CE591E0909321048093200480E390E0CD
:101FE00090931F0480931E0484EE90E090931D0450
:101FF00080931C0480E280934D0410924E048FEF76
:1020000080934F0480935004109252041092510414
:102010000895CF93DF93BC0180E090E04AE00E94F6
:10202000A408EC018AE791E00E9492088C0F9D1FA2
:10203000DF91CF910895052E97FB1EF400940E9426
:10204000321057FD07D00E944D1007FC03D04EF40C
:102050000C94321050954095309521953F4F4F4F3D
:102060005F4F089590958095709561957F4F8F4F44
:102070009F4F08950E946F10A59F900DB49F900DE3
:10208000A49F800D911D11240895B7FF0C943A1060
:102090000E943A10821B930B0895A1E21A2EAA1BEC
:1020A000BB1BFD010DC0AA1FBB1FEE1FFF1FA21708
:1020B000B307E407F50720F0A21BB30BE40BF50B05
:1020C000661F771F881F991F1A9469F7609570958E
:1020D000809590959B01AC01BD01CF010895A29F11
:1020E000B001B39FC001A39F700D811D1124911DEC
:1020F000B29F700D811D1124911D0895DB018F93F6
:102100009F930E943A10BF91AF91A29F800D911DA5
:10211000A39F900DB29F900D1124089597FB072E59
:1021200016F4009407D077FD09D00E94A21007FC96
:1021300005D03EF4909581959F4F089570956195D7
:102140007F4F0895AA1BBB1B51E107C0AA1FBB1FED
:10215000A617B70710F0A61BB70B881F991F5A9533
:10216000A9F780959095BC01CD010895EE0FFF1F52
:102170000590F491E02D09940E94A61108F481E0E5
:1021800008950E94D5100C94E1110E94DA1158F0C4
:102190000E94D31140F029F45F3F29F00C94CA113A
:1021A00051110C9415120C94D0110E94F21168F385
:1021B0009923B1F3552391F3951B550BBB27AA2700
:1021C00062177307840738F09F5F5F4F220F331F3A
:1021D000441FAA1FA9F335D00E2E3AF0E0E832D002
:1021E00091505040E695001CCAF72BD0FE2F29D005
:1021F000660F771F881FBB1F261737074807AB07D7
:10220000B0E809F0BB0B802DBF01FF2793585F4F4B
:102210003AF09E3F510578F00C94CA110C941512B7
:102220005F3FE4F3983ED4F3869577956795B7952D
:10223000F7959F5FC9F7880F911D9695879597F938
:102240000895E1E0660F771F881FBB1F62177307B1
:102250008407BA0720F0621B730B840BBA0BEE1FC6
:1022600088F7E09508950E943A116894B1110C9492
:10227000151208950E94FA1188F09F5798F0B92F0F
:102280009927B751B0F0E1F0660F771F881F991FAB
:102290001AF0BA95C9F714C0B13091F00E94141227
:1022A000B1E008950C941412672F782F8827B85F37
:1022B00039F0B93FCCF3869577956795B395D9F703
:1022C0003EF490958095709561957F4F8F4F9F4F0D
:1022D0000895E89409C097FB3EF490958095709519
:1022E00061957F4F8F4F9F4F9923A9F0F92F96E962
:1022F000BB279395F695879577956795B795F111D7
:10230000F8CFFAF4BB0F11F460FF1BC06F5F7F4F73
:102310008F4F9F4F16C0882311F096E911C0772385
:1023200021F09EE8872F762F05C0662371F096E88E
:10233000862F70E060E02AF09A95660F771F881F5D
:10234000DAF7880F9695879597F90895990F000801
:10235000550FAA0BE0E8FEEF16161706E807F90777
:10236000C0F012161306E407F50798F0621B730B12
:10237000840B950B39F40A2661F0232B242B252B93
:1023800021F408950A2609F4A140A6958FEF811D36
:10239000811D089597F99F6780E870E060E00895D7
:1023A0009FEF80EC089500240A941616170618066D
:1023B0000906089500240A94121613061406050649
:1023C0000895092E0394000C11F4882352F0BB0FDA
:1023D00040F4BF2B11F460FF04C06F5F7F4F8F4F3D
:1023E0009F4F089557FD9058440F551F59F05F3F78
:1023F00071F04795880F97FB991F61F09F3F79F027
:1024000087950895121613061406551FF2CF4695A8
:10241000F1DF08C0161617061806991FF1CF86952A
:102420007105610508940895E894BB27662777270E
:10243000CB0197F908950E94A61108F48FEF089533
:102440000E9433120C94E1110E94D31138F00E94C3
:10245000DA1120F0952311F00C94CA110C94D011CC
:1024600011240C9415120E94F21170F3959FC1F380
:10247000950F50E0551F629FF001729FBB27F00D32
:10248000B11D639FAA27F00DB11DAA1F649F662787
:10249000B00DA11D661F829F2227B00DA11D621FD6
:1024A000739FB00DA11D621F839FA00D611D221F90
:1024B000749F3327A00D611D231F849F600D211D74
:1024C000822F762F6A2F11249F5750409AF0F1F0F7
:1024D00088234AF0EE0FFF1FBB1F661F771F881F60
:1024E00091505040A9F79E3F510580F00C94CA11BD
:1024F0000C9415125F3FE4F3983ED4F386957795DC
:102500006795B795F795E7959F5FC1F7FE2B880F05
:10251000911D9695879597F9089581E090E0F8943C
:102520000C94921210E0C2E6D0E004C0FE010E94BA
:0E253000B6102196C336D107C9F7F894FFCF35
:10253E0001010101010101010188010E000F0010CE
:10254E0000110000000000AF038D005801FC03894C
:10255E000167017B01000000002C02FF01FD02D388
:10256E0001F701E301D4010000000073028D00FDAC
:10257E0002D301C302DB025B020A000D0083028359
:10258E00010002436F6D2053657269616C20496EC4
:10259E006963696164612E00506F747320436F6EBE
:1025AE0065637461646F733A20000D0A005369739A
:1025BE0074656D6120616374697661646F2E00507D
:1025CE0061726F20456D6572673A004A79732C000F
:1025DE00416374730063616E7469646164506F74F7
:1025EE00733A20002C20202A2A4A6F795F56200049
:1025FE002C0976616C6F72506F743A20002C202A71
:10260E002A4A6F795F4820002C202A2A4A6F795F68
:10261E00560020646573636F6E65637461646F2E1C
:0E262E002A2A002C20202A2A4A6F795F4800B1
:00000001FF
