:100000000C9463000C948B000C948B000C942505CD
:100010000C9425050C9425050C948B000C948B00F6
:100020000C948B000C948B000C948B000C948B0024
:100030000C948B000C948B000C948B000C948B0014
:100040000C948E0A0C948B000C947D030C94570333
:100050000C948B000C948B000C948B000C948B00F4
:100060000C94F7030C948B00000000002400270080
:100070002A0000000008000201000003040700003D
:1000800000000000000000000000230026002900FE
:1000900000000000250028002B00040404040404D0
:1000A0000404020202020202030303030303010227
:1000B00004081020408001020408102001020408F6
:1000C00010205C11401111241FBECFEFD8E0DEBF1D
:1000D000CDBF12E0A0E0B1E0EAECFAE202C0059088
:1000E0000D92A432B107D9F724E0A4E2B2E001C036
:1000F0001D92AB38B207E1F710E0C2E6D0E004C0D1
:100100002197FE010E940A13C136D107C9F70E9448
:10011000D80A0C9458150C940000CF92DF92EF92FD
:10012000FF920F931F93CF93DF936C017A018B01A2
:10013000C0E0D0E0CE15DF0581F0D8016D918D01D2
:10014000D601ED91FC910190F081E02DC601099559
:10015000892B11F02196EECF7E01C701DF91CF915F
:100160001F910F91FF90EF90DF90CF900895FC01C9
:10017000538D448D252F30E0842F90E0821B930B0C
:10018000541710F0CF96089501970895FC01918DB2
:10019000828D981761F0828DDF01A80FB11D5D96E9
:1001A0008C91928D9F5F9F73928F90E008958FEF57
:1001B0009FEF0895FC01918D828D981731F0828D0B
:1001C000E80FF11D858D90E008958FEF9FEF089562
:1001D000FC01918D228D892F90E0805C9F4F821BC6
:1001E00091098F739927089586E993E00E94E800AA
:1001F00021E0892B09F420E0822F0895FC01848DF1
:10020000DF01A80FB11DA35ABF4F2C91848D90E040
:1002100001968F739927848FA689B7892C93A0891B
:10022000B1898C91837080648C93938D848D9813A5
:1002300006C00288F389E02D80818F7D8083089538
:10024000EF92FF920F931F93CF93DF93EC0181E026
:10025000888F9B8D8C8D981305C0E889F9898081E2
:1002600085FD26C0F62E0B8D10E00F5F1F4F0F731C
:100270001127E02E8C8DE8120CC00FB607FCFACFC8
:10028000E889F989808185FFF5CFCE010E94FE00C3
:10029000F1CF8B8DFE01E80FF11DE35AFF4FF08285
:1002A0009FB7F8940B8FEA89FB89808180620AC02E
:1002B0009FB7F894EE89FF896083E889F989808186
:1002C0008370806480839FBF81E090E0DF91CF9155
:1002D0001F910F91FF90EF900895CF93DF93EC0162
:1002E000888D8823C9F0EA89FB89808185FD05C056
:1002F000A889B9898C9186FD0FC00FB607FCF5CF90
:10030000808185FFF2CFA889B9898C9185FFEDCFD7
:10031000CE010E94FE00E7CFDF91CF91089580E0EB
:1003200090E0892B29F00E94F40081110C940000C8
:10033000089585ED8093BC008091BC0084FDFCCFC6
:1003400010927003089540910203262F30E0240F8D
:10035000311D21323105DCF4209170032430C9F4C1
:10036000FC0180E090E0861758F43091020321915F
:10037000DC01AE51BD4FA30FB11D2C930196F3CFFD
:1003800080910203680F6093020380E0089581E08A
:10039000089582E00895089508950895E09129034D
:1003A00080912803E81730F4F0E0E65DFC4F80818F
:1003B00090E008958FEF9FEF089590912903809129
:1003C0002803981750F4E92FF0E0E65DFC4F2081F8
:1003D00030E09F5F9093290302C02FEF3FEFC901E8
:1003E00008958091280390E020912903821B9109B0
:1003F0000895CF92DF92EF92FF920F931F93CF93C6
:10040000DF937C01CB018A0120919303222389F0A1
:10041000EB016B01C40ED51ECC15DD0569F06991A9
:10042000D701ED91FC910190F081E02DC701099574
:10043000F3CF642F0E94A301C801DF91CF911F91D8
:100440000F91FF90EF90DF90CF900895CF93DF93BF
:100450001F92CDB7DEB76983209193032223D1F099
:1004600020919103203240F021E030E0FC01338301
:10047000228380E090E015C080919203E82FF0E0A5
:10048000EF58FC4F998190838F5F80939203809304
:10049000910305C061E0CE0101960E94A30181E0B5
:1004A00090E00F90DF91CF91089520912A02309132
:1004B0002B022817390771F49091280280912902A4
:1004C000981741F0E0912802F0E0EE55FD4F808151
:1004D00090E008958FEF9FEF08951F93CF93DF93E0
:1004E000DC015C968D919C915D97009739F421E039
:1004F00030E013963C932E9312973BC05196ED91AA
:10050000FC91529750962C915097322F30951FB7EF
:100510005E964C915E97742F727041FD6095F894D1
:100520004081772311F0422B01C043234083EC012B
:100530002197F1F748E0508160FF02C0522B01C0C3
:1005400053235083EC012197F1F76695415099F7B9
:100550008081772319F08323808302C0282B208396
:100560001FBF5C968D919C915D970197F1F781E09B
:1005700090E0DF91CF911F91089520912A02309150
:100580002B022817390771F4809129022091280243
:1005900090E0805C9F4F821B910960E470E00E94B4
:1005A000E212089580E090E0089520912A023091AF
:1005B0002B0228173907B9F490912802809129025B
:1005C000981789F0E0912802F0E0EE55FD4F808108
:1005D0002091280230E02F5F3F4F2F733327209365
:1005E000280290E008958FEF9FEF0895089580E02E
:1005F00090E008950F931F938C019B0180916802F6
:1006000090916902019667E070E00E94E212909377
:10061000690280936802880F991FF901E80FF91F9A
:1006200011830083F901AAE5B2E0819191918D9344
:100630009D9382E0A836B807C1F706E612E046E6C9
:1006400052E0EAE5F2E081E061917191208131812F
:10065000261737075CF00E171F07B1F7882379F3C9
:10066000ECE5F2E060E070E0CB0108C071836083EC
:10067000DF0112972D933C9380E0EDCF0191119112
:10068000012E000C220B330B600F711F821F931F72
:100690004E175F0799F725E030E040E050E00E94F8
:1006A0006F12C9011F910F9108950E9453151F9257
:1006B0000F920FB60F9211242F933F934F935F9396
:1006C0006F937F938F939F93AF93BF93EF93FF931A
:1006D00086E993E00E94FE00FF91EF91BF91AF91F8
:1006E0009F918F917F916F915F914F913F912F914A
:1006F0000F900FBE0F901F9018951F920F920FB67C
:100700000F9211242F938F939F93EF93FF93E09178
:10071000A603F091A7038081E091AC03F091AD03B3
:1007200082FD12C090818091AF038F5F8F73209103
:10073000B003821751F0E091AF03F0E0EA56FC4FAE
:10074000958F8093AF0301C08081FF91EF919F91BE
:100750008F912F910F900FBE0F901F9018959FB7FC
:10076000F89480912503882319F081508093250304
:1007700080912503811103C08CB58F7B8CBD9FBFF9
:100780000895CF93CFB7F89480912503811127C0A6
:10079000E4EAF0E08491E8EBF0E09491E82FF0E0F7
:1007A000EE0FFF1FE859FF4FA591B491EC91E9239B
:1007B00021F461E08AE00E943B0961E08AE00E9446
:1007C00088098CB580618CBD8CB580648CBD61E07E
:1007D0008DE00E94880961E08BE00E948809809189
:1007E00025038F5F80932503CFBFCF9108951F927C
:1007F0000F920FB60F9211242F933F934F935F9355
:100800006F937F938F939F93AF93BF93EF93FF93D8
:100810008091B900887F803609F49CC068F58832E1
:1008200009F45BC090F4803109F454C038F4882393
:1008300009F4F6C0883009F44DC0F6C0883109F4D7
:100840004CC0803209F45DC0EFC0803409F468C048
:1008500048F4803309F455C0883309F0E5C080932B
:100860006E03D8C0803509F44FC0883509F45DC0E7
:10087000883409F0D9C0D6C0883909F4C7C0A8F4B3
:10088000883709F467C038F4883609F463C08037C4
:1008900009F460C0C9C0883809F4B8C0803909F4C7
:1008A0005FC0803809F0C0C05BC0803B09F486C0DF
:1008B00038F4803A09F466C0883A09F47FC0B4C0BD
:1008C000803C09F4A7C0883C09F4A4C0883B09F423
:1008D0008AC0AAC080914B0310C090916D03809193
:1008E0006C03981770F5E0916D0381E08E0F809393
:1008F0006D03F0E0E45BFC4F80818093BB0085ECEE
:1009000086C080936E038EC0E0916D0381E08E0FF0
:1009100080936D038091BB00F0E0E45BFC4F80832B
:1009200090916D0380916C036EC0E0916D0381E046
:100930008E0F80936D038091BB00F0E0E45BFC4F71
:10094000808380916F0381116DC081E080934A03A1
:1009500084EA61C083E08093700310922403CFCFB8
:1009600080912403803208F051C0E091240381E09B
:100970008E0F809324038091BB00F0E0EC5FFC4F6E
:100980008083BDCF85EC8093BC0010927003809172
:100990002403803230F4E0912403F0E0EC5FFC4F5C
:1009A00010826091240370E0E0912402F09125020E
:1009B00084E093E009951092240336C084E080938C
:1009C00070031092030310920203E0912602F0914B
:1009D0002702099580910203811105C081E080936F
:1009E00002031092E202E091030381E08E0F8093F4
:1009F0000303F0E0EE51FD4F80818093BB009091A6
:100A0000030380910203981708F479CF85E8809357
:100A1000BC000AC085EC8093BC001092700304C037
:100A200010926E030E949901FF91EF91BF91AF91D7
:100A30009F918F917F916F915F914F913F912F91F6
:100A40000F900FBE0F901F9018951F920F920FB628
:100A50000F9211242F933F934F935F936F937F9344
:100A60008F939F93AF93BF93EF93FF93E0912A02ED
:100A7000F0912B02309709F451C0968DA685B78569
:100A8000858591FF04C09C91892329F447C09C91DE
:100A9000892309F043C0A389B4899C9185898095F5
:100AA00089238C93868997890197F1F7608D718DE1
:100AB000A685B785558538E020E0CB010197F1F791
:100AC000822F90E095958795282F4C91452309F02A
:100AD0002068315091F7868D81FD20958091290203
:100AE00090E001968F73992730912802381749F0CA
:100AF000A0912902B0E0AE55BD4F2C9380932902FE
:100B000003C0868D8160868F828D938D0197F1F76A
:100B1000A389B4899C918589892B8C93FF91EF914E
:100B2000BF91AF919F918F917F916F915F914F9105
:100B30003F912F910F900FBE0F901F9018954F92DD
:100B40005F926F927F929F92AF92BF92CF92DF920D
:100B5000EF92FF920F931F93CF93DF935C0181E09D
:100B6000809300018093010161E082E00E943B09D3
:100B700061E083E00E943B0961E070E080E090E08A
:100B80000E94E10987E0E82E81E0F82E6701412C00
:100B9000512C3201C0E0D0E099249394CA15DB05B2
:100BA000D9F1F6018081F2E0CF0ED11C0E94C40978
:100BB0008C01063383E0180740F580913B028111D8
:100BC00017C083EF91E00E94AC084AE0C301B20174
:100BD0000E94AE0881EF91E00E94AC08B80180E06D
:100BE00090E04AE00E94AE088AEF91E00E94EF0890
:100BF000C230D10518F41092000106C0CE01029750
:100C0000029710F410920101912C21969FEF491A3E
:100C1000590A690A790AC2CF60E082E00E943B0962
:100C200060E083E00E943B0961E070E080E090E0DA
:100C30000E94E109412C512C3201C0E0D0E0CA15DC
:100C4000DB05D1F1F7018081F2E0EF0EF11C0E948B
:100C5000C4098C01843E910540F180913B028111D1
:100C600017C083EF91E00E94AC084AE0C301B201D3
:100C70000E94AE0881EF91E00E94AC08B80180E0CC
:100C800090E04AE00E94AE088FE092E00E94AC083B
:100C9000C230D10518F41092000106C0CE010297AF
:100CA000029710F410920101912C21968FEF481AAF
:100CB000580A680A780AC3CF60E082E00E943B09C4
:100CC00061E083E00E943B09892DDF91CF911F9164
:100CD0000F91FF90EF90DF90CF90BF90AF909F90DB
:100CE0007F906F905F904F900895CF92DF92EF9238
:100CF000FF920E941B0ABC0180910601882309F41F
:100D00004DC020912C0230912D02261B370B909163
:100D10002E0229338EE0380714F0915004C0283C8D
:100D2000314F1CF49F5F90932E0270932D026093BD
:100D30002C0280E090E00E942A149B01AC0160E04C
:100D400070E080E895E40E94101320914F043091E8
:100D5000500440915104509152040E94E1146B01DF
:100D60007C0140912E0228E631E04203B001439F0E
:100D7000700D1124072E000C880B990B0E942C1467
:100D80009B01AC01C701B6010E94111360933502AB
:100D9000709336028093370290933802FF90EF9061
:100DA000DF90CF900895CF93C82F60E08AE00E9433
:100DB0003B09CEBD00000DB407FEFDCFCEB561E00E
:100DC0008AE00E943B098C2FCF9108951F93CF9307
:100DD000DF93182F603883EF78079CF1EB016138BF
:100DE0007C4014F0C0E8DCE06AEA83E594E00E940D
:100DF0006D02612F83E594E00E946D02D7FF09C068
:100E000066E083E594E00E946D02D195C195D10919
:100E100005C065E083E594E00E946D026C2F6F7160
:100E200083E594E00E946D02BE0185E075956795AB
:100E30008A95E1F783E594E0DF91CF911F910C94BF
:100E40006D026AEA83E594E00E946D02612F83E5FA
:100E500094E00E946D02C0E8D3EFD2CF8EE00E94F2
:100E6000C40964E972E00E94FA029093340280930C
:100E700033028FE00E94C40966E872E00E94FA0221
:100E8000909332028093310280E10E94C40968E7A6
:100E900072E00E94FA0290933A028093390281E153
:100EA0000E94C4096AE672E00E94FA02909330023E
:100EB00080932F020895CF9340917E0421E030E08B
:100EC000611109C001C0220F8A95EAF720952423F9
:100ED00020937E040AC0B90102C0660F771F8A956D
:100EE000E2F7CB01842B80937E0460917E04C09155
:100EF0007C0481E080939303C09377041092920363
:100F00001092910383E394E00E94260220919103C2
:100F1000213208F049C0809170038111FCCF92E02A
:100F20009093700391E090936F039FEF90936E0303
:100F300010926D0320936C03A1E7B3E0ECE4F3E0BF
:100F400090E0291721F03D9131939F5FFACF1092E5
:100F50004B0390914B03CC0FC92BC0934B03909143
:100F60004A03913061F410924A0390914B0390939D
:100F7000BB009091BC0093FDF8CF95EC01C095EEBD
:100F80009093BC00909170039230E1F390916E03C6
:100F90009F3F79F080916E03803241F080916E0323
:100FA000803331F084E005C081E003C082E001C0FD
:100FB00083E010929203109291031092930390E0B9
:100FC0009093810480938004CF91089580917C0454
:100FD000909170039111FCCF91E0909370039093E6
:100FE0006F032FEF20936E0310926D0310926C032A
:100FF00090934B0390914B03880F892B80934B0365
:1010000080914A03813061F410924A0380914B032E
:101010008093BB008091BC0083FDF8CF85EC01C0BC
:1010200085EE8093BC00809170038130E1F3809164
:101030006D03811103C090916D0301C091E0ECE458
:10104000F3E0AAE2B3E080E0891721F021912D932B
:101050008F5FFACF1092290380932803813049F0E3
:1010600082E890E0909381048093800480917D04D5
:10107000089583E394E00E94DD0180937D04089548
:10108000CF92DF92EF92FF920F931F93CF93DF9354
:101090007C01EB01C42ED22E0E94E60790917D04C4
:1010A00081E090FF80E0F70180830E94E607909145
:1010B0007D0481E091FF80E088830E94E6079091A3
:1010C0007D0481E092FF80E0809327030E94E60781
:1010D00090917D0481E093FF80E080932603F701E7
:1010E0001081109376046C2D84E00E945B076D2DB7
:1010F00085E00E945B07602F86E00E945B0761E04D
:10110000111160E087E00E945B078881813019F44B
:1011100088E790E002C088EC90E09093050180930E
:101120000401DF91CF911F910F91FF90EF90DF901D
:10113000CF900895009769F0FC0101900020E9F735
:101140003197AF01481B590BBC0186E993E00C9421
:101150008D0080E090E008950C949A088F929F9201
:10116000AF92BF920F931F93CF93DF93CDB7DEB7AC
:10117000A1970FB6F894DEBF0FBECDBF19A24230C3
:1011800008F44AE08E010F5D1F4F842E912CA12C94
:10119000B12CA50194010E94A112E62FB901CA0148
:1011A00001501109EA3014F4E05D01C0E95CD80196
:1011B000EC93232B242B252B61F7C8010E949A085E
:1011C000A1960FB6F894DEBF0FBECDBFDF91CF91D1
:1011D0001F910F91BF90AF909F908F900895CF93E4
:1011E000DF930E949A08EC0183ED91E00E949A0837
:1011F0008C0F9D1FDF91CF910895CF92DF92EF92D8
:10120000FF92CF93DF9397FF1BC06B017C016DE2D0
:1012100086E993E00E942001EC0166277727CB0145
:101220006C197D098E099F094AE00E94AE088C0F57
:101230009D1FDF91CF91FF90EF90DF90CF900895A9
:101240004AE0DF91CF91FF90EF90DF90CF900C9428
:10125000AE08CF93DF93BC01990F880B990B0E94C6
:10126000FD08EC0183ED91E00E949A088C0F9D1F10
:10127000DF91CF91089590E0FC01EE58FF4F24914B
:10128000FC01E255FF4F3491FC01E656FF4FE4911B
:10129000EE2309F43CC0222339F1233091F038F4D5
:1012A0002130A9F0223001F584B58F7D12C027309E
:1012B00091F02830A1F02430B9F4809180008F7D26
:1012C00003C0809180008F77809380000DC084B52B
:1012D0008F7784BD09C08091B0008F7703C0809163
:1012E000B0008F7D8093B000F0E0EE0FFF1FE0575D
:1012F000FF4FA591B4919FB7F894611104C08C91F0
:101300003095382302C0EC913E2B3C939FBF08954B
:10131000CF93DF9390E0FC01E255FF4F2491FC0155
:10132000E656FF4F8491882361F190E0880F991F62
:10133000FC01E859FF4FC591D491FC01E057FF4FE4
:10134000A591B491611109C09FB7F8948881209547
:1013500082238883EC912E230BC0623061F49FB707
:10136000F8948881322F309583238883EC912E2B3B
:101370002C939FBF06C08FB7F894E8812E2B28834B
:101380008FBFDF91CF9108958E3008F08E5020915D
:10139000030190E4299F900111248770822B809390
:1013A0007C0080917A00806480937A0080917A003A
:1013B00086FDFCCF809178002091790090E0922BFF
:1013C00008958F929F92AF92BF92CF92DF92EF9249
:1013D000FF926B017C010E94690A4B015C01C11400
:1013E000D104E104F104F1F00E94690ADC01CB01AF
:1013F00088199909AA09BB09883E9340A105B1053E
:1014000070F321E0C21AD108E108F10888EE880ED5
:1014100083E0981EA11CB11CC114D104E104F104A5
:1014200019F7DDCFFF90EF90DF90CF90BF90AF9096
:101430009F908F900895CF93DF930E94C10360E047
:101440008AE00E943B0980E10E94D30680E00E946E
:10145000D306C82FC031C1F080E00E94D306C82F48
:1014600061E070E080E090E00E94E10980917A0400
:1014700090917B04019690937B0480937A04893E3B
:10148000934040F31092060110927B0410927A046C
:10149000C03119F481E08093060180E00E94D306F8
:1014A000C82F80E00E94D306D82F8093790461E092
:1014B0008AE00E943B090E94AF038C2F8F708093BB
:1014C000780490E0982F88278D0F911DDF91CF91A0
:1014D00008953FB7F8948091870490918804A09173
:1014E0008904B0918A0426B5A89B05C02F3F19F046
:1014F0000196A11DB11D3FBFBA2FA92F982F882794
:10150000820F911DA11DB11DBC01CD0142E0660FEE
:10151000771F881F991F4A95D1F708951F920F9240
:101520000FB60F9211242F933F938F939F93AF93F6
:10153000BF938091820490918304A0918404B09120
:1015400085043091860423E0230F2D3720F4019683
:10155000A11DB11D05C026E8230F0296A11DB11DD6
:10156000209386048093820490938304A093840440
:10157000B09385048091870490918804A091890498
:10158000B0918A040196A11DB11D809387049093A8
:101590008804A0938904B0938A04BF91AF919F916E
:1015A0008F913F912F910F900FBE0F901F90189524
:1015B000CF93DF93CDB7DEB728970FB6F894DEBF91
:1015C0000FBECDBF789484B5826084BD84B5816040
:1015D00084BD85B5826085BD85B5816085BD8091FE
:1015E0006E00816080936E00109281008091810076
:1015F000826080938100809181008160809381006E
:10160000809180008160809380008091B10084602F
:101610008093B1008091B00081608093B000809190
:101620007A00846080937A0080917A00826080934F
:101630007A0080917A00816080937A0080917A00AC
:10164000806880937A001092C10010922903109252
:10165000280310929203109291031092700381E07C
:1016600080936F0310924A0361E082E10E943B097C
:1016700061E083E10E943B098091B9008E7F8093F5
:10168000B9008091B9008D7F8093B90088E4809380
:10169000B80085E48093BC008BEC91E09093270226
:1016A000809326028CEC91E0909325028093240293
:1016B000E091A603F091A70382E08083E091A2036A
:1016C000F091A3031082E091A403F091A50380E1BF
:1016D00080831092AE03E091AA03F091AB0386E001
:1016E0008083E091A803F091A903808180618083C9
:1016F000E091A803F091A903808188608083E09144
:10170000A803F091A903808180688083E091A803F9
:10171000F091A90380818F7D808381E591E00E9413
:10172000EF0810926E0410926D0410926C041092E7
:101730006B0410926A04109269048DE991E0909311
:10174000700480936F0490915F04963108F058C044
:101750002DEB30E030936A04209369042BE931E0EB
:1017600030936C0420936B042CE231E030936E04D0
:1017700020936D0440916800983058F031E09E301D
:1017800008F430E021E0822F01C0880F3A95EAF793
:1017900001C084E0842B80936800983038F09E303C
:1017A00040F0963148F020E030E008C02DE630E00F
:1017B00005C02BE630E002C02CE630E03093670431
:1017C00020936604983030F481E001C0880F9A9528
:1017D000EAF70EC0292F30E09E3018F42850310966
:1017E00002C02E50310981E001C0880F2A95EAF726
:1017F0008093680480916F04909170040197F1F7D1
:1018000080916D0490916E04892B49F1E0912A0238
:10181000F0912B0224E0E335F20709F1309739F01B
:10182000A389B4899C918589809589238C93809123
:1018300071048E7F80937104109229021092280205
:1018400083E594E090932B0280932A02E091660452
:10185000F0916704908180916804892B808381E0F6
:101860008093030162E083E10E94880962E089E0DD
:101870000E94880961E083E00E94880961E082E0BB
:101880000E94880984E090E00E949F0580930201F5
:1018900086E591E00E94AC088091740490917504F3
:1018A0000E94290985E691E00E94AC0880917204AB
:1018B000909173040E94290961E08AE00E948809DE
:1018C00061E08AE00E943B090E94C1038CB58F7DD4
:1018D0008CBD8CB5837F8CBD8CB58C7F82608CBDBC
:1018E0008DB581608DBD0E94AF0310922E0284E7FA
:1018F00091E00E94AC0880912E02082E000C990BFA
:101900000E94290981E090E0909341028093400277
:1019100086E993E00E946D0147E050E058874F83CD
:101920000E942E078F819885019798878F83892B36
:10193000B9F768EB7BE080E090E00E94E10960EDA0
:1019400077E080E090E00E94E1090E941B0A9093FA
:101950002D0280932C0280910601811104C08AE738
:1019600091E00E94EF082FB7F89480918204909143
:101970008304A0918404B09185042FBF8093520208
:1019800090935302A0935402B09355020E9475069F
:101990008FE891E00E94EF08909145019983209192
:1019A00046012A83309047011091480189E1282E91
:1019B0003B821C839D832E8380910601882309F43A
:1019C000C6C380910201882309F4C1C38FB7F8947C
:1019D000C0908204D0908304E0908404F090850449
:1019E0008FBFC0925602D0925702E0925802F092F6
:1019F00059020E942E0710923B0280915202909150
:101A00005302A0915402B0915502C81AD90AEA0AA9
:101A1000FB0A34E1C316D104E104F1040CF42DC433
:101A20000091010120910601409100016DE472E0F6
:101A30008CE492E00E9440080E94750681EA91E0E1
:101A40000E94AC086091330270913402072E000CA2
:101A5000880B990B0E94FD0860913302709134024B
:101A6000643042E074076CF184E893E0909349029B
:101A7000809348022091040130910501C901330F80
:101A8000AA0BBB0B9C01AD012C57314041095109F8
:101A9000CB01770FAA0BBB0BBC01CD01625072408A
:101AA000810991090E94D21225E830E040E050E01F
:101AB0000E946F12DA01C90184589E4FAF4FBF4F89
:101AC00030C0613092E0790724F52CE731E03093A3
:101AD000470220934602CB01770FAA0BBB0B9C0158
:101AE000AD012058314041095109A8E6B3E00E94F8
:101AF0008E1222E830E040E050E00E946F12DA01DE
:101B0000C9014C96A11DB11D9093490280934802D2
:101B10000CC044E853E050934902409348028CE7DC
:101B200091E0909347028093460280913902909110
:101B30003A022091480230914902821B930B289E61
:101B4000B001299E700D1124209146023091470268
:101B500038872F8320912F02309130024F81588592
:101B6000421B530B58874F835093450240934402C6
:101B70009A01319521953109229E7001239EF00C26
:101B80001124F0924302E09242020396079710F468
:101B900060E070E08B819C810E94E6068F819885D1
:101BA0000396079710F0B70102C060E070E08D81E6
:101BB0009E810E94E60687EA91E00E94AC0860914F
:101BC000310270913202072E000C880B990B0E9493
:101BD000FD08C0903502D0903602E0903702F090B8
:101BE000380280904B0490904C04A0904D04B0902B
:101BF0004E048091400290914102009709F05BC031
:101C0000A5019401C701B6010E9482136B017C01FA
:101C10002091490430914A0438872F83B9016E5CC2
:101C20007F4F072E000C880B990B0E942C144B0140
:101C30005C019B01AC01C701B6010E94DC141816BF
:101C40000CF0BAC060914704709148046253710966
:101C5000072E000C880B990B0E942C149B01AC01E1
:101C6000C701B6010E947D1387FFA6C020913102F3
:101C700030913202C9018F5F9140039708F495C0FB
:101C8000C901330FAA0BBB0B9C01AD012358314096
:101C900041095109A0E0B7EE0E949C1220E031E01A
:101CA00040E050E00E946F12CA01B9016058734FC2
:101CB0008F4F9F4F7CC0019709F000C290914C025A
:101CC000209131023091320280914D02992309F422
:101CD000EBC0811102C14090490450904A04052C88
:101CE000000C66087708C901330FAA0BBB0B9C01D7
:101CF000AD01235831404109510960914704709169
:101D00004804CB01770FAA0BBB0BBC01CD016419B2
:101D10007509860997090E94D21220E031E040E05F
:101D200050E00E946F12CA01B901640D751D861D35
:101D3000971D0E942C1460933C0270933D02809387
:101D40003E0290933F0220913C0230913D0240912F
:101D50003E0250913F02C501B4010E94E114A70167
:101D600096010E9410136B017C0160934E027093E8
:101D70004F0280935002909351020E94F4139B01F2
:101D800077FF04C022273327261B370BB901330FF7
:101D9000880B990B0E942C1420E030E040E85FE3B0
:101DA0000E94DC1418160CF4AFC060E070E084E010
:101DB00090E00E94E60682C14F815885BA01550F16
:101DC000880B990B0E942C142B013C019B01AC0148
:101DD000C701B6010E94DC14181644F4A501940151
:101DE000C701B6010E947D1387FD28C0809147047A
:101DF0009091480498878F83BC01990F880B990BA9
:101E00000E942C144B015C019B01AC01C701B6017F
:101E10000E947D1387FF31C06F81788562537109FD
:101E2000072E000C880B990B0E942C149B01AC010F
:101E3000C701B6010E94DC141816FCF4209131028F
:101E400030913202C901330FAA0BBB0B9C01AD01CB
:101E50002358314041095109A0EAB6EF0E949C1273
:101E600020E031E040E050E00E946F12CA01B90169
:101E700060557B4F8F4F9F4F9ACFA3019201C701AF
:101E8000B6010E947D1387FF03C060EC79EF8FCF0E
:101E9000A5019401C701B6010E94DC1418160CF0CC
:101EA0000DC160E476E083CF8823B9F0409041040F
:101EB00050904204052C000C66087708C901330FC6
:101EC000AA0BBB0B9C01AD012358314041095109BC
:101ED00060913F047091400414CF409045045090AD
:101EE0004604052C000C66087708C901330FAA0BBD
:101EF000BB0B9C01AD012358314041095109609150
:101F0000430470914404FDCE20E030E040EA51E407
:101F1000C701B6010E94E11490580E94F413603882
:101F200093EF790714F460E873EF78876F83613873
:101F30007C4024F040E85CE058874F836F817885CF
:101F400084E090E00E94E6068DEA91E00E94AC08F1
:101F5000C0904E02D0904F02E0905002F09051029B
:101F6000A7019601C701B6010E944E15882319F0FA
:101F700089EB91E01AC046015701E894B7F82FEFBA
:101F80003FEF4FE75FE7C501B4010E944E15811195
:101F90000FC02FEF3FEF4FE75FE7C501B4010E948D
:101FA0007D1318162CF48DEB91E00E949A0876C0F0
:101FB0002FEF3FEF4FE75FE4C701B6010E94DC144B
:101FC00018161CF481EC91E0F0CF2FEF3FEF4FE7B4
:101FD0005FECC701B6010E947D1387FDF3CF20E0BF
:101FE00030E0A901C701B6010E947D1387FF09C037
:101FF0006DE286E993E00E942001F7FAF094F7F889
:10200000F0942AE037ED43EA5BE3C701B6010E9492
:1020100011134B015C010E94FB136B017C010E94B8
:102020002A149B01AC01C501B4010E9410134B019D
:102030005C014AE0C701B6010E94AE086EE286E983
:1020400093E00E94200120E030E040E251E4C5012D
:10205000B4010E94E1144B015C010E94FB136B016F
:10206000E12CF12C4AE0C701B6010E94AE08C7017D
:10207000B6010E942A149B01AC01C501B4010E9463
:10208000101320E030E040E251E40E94E1140E948D
:10209000FB1380E090E04AE00E94AE0885EC91E0FE
:1020A0000E94AC082F813885B901330F880B990B3A
:1020B0000E94FD088CEC91E00E94AC088EEC91E04F
:1020C0000E94AC088091560290915702A09158024C
:1020D000B0915902C0905202D0905302E090540245
:1020E000F0905502BC01CD016C197D098E099F0944
:1020F0000E94FD0883ED91E00E949A0880914A02B7
:1021000090914B02019690934B0280934A0249971B
:1021100050F084E090E00E949F05809302011092AD
:102120004B0210924A022FB7F8948091820490914A
:102130008304A0918404B09185042FBF8093520240
:1021400090935302A0935402B093550296C080918D
:102150003B02811123C086ED91E00E94AC08809182
:102160000001811104C082EE91E00E94AC088091D0
:102170000101811104C087EE91E00E94AC088091BA
:102180000601811104C08CEE91E00E94AC088FE939
:1021900091E00E94EF0831E030933B0260E873EF7A
:1021A00089819A810E94E60680910101882361F06D
:1021B0008091390290913A028B549109289EB00186
:1021C000299E700D11240EC060E87CE0832D912FB4
:1021D0000E94E6066CED75E080E090E00E94E10967
:1021E00060E070E0832D912F0E94E6068091060149
:1021F000882301F120E030E0A90160914B04709147
:102200004C0480914D0490914E040E94E114209161
:1022100035023091360240913702509138020E94C7
:10222000101360934E0270934F028093500290936C
:10223000510206C060E070E084E090E00E94E60693
:1022400084E090E00E949F058F83809302010E94AA
:1022500075064F81442329F0809106018111109267
:102260003B020091010120910601409100016CE4C4
:1022700072E08DE492E00E9440080E948F019CCBA6
:1022800087E391E0909354048093530480912A0251
:1022900090912B028355944071F4E0916604F09183
:1022A00067049081809168048095892380831092CF
:1022B0002B0210922A02089510929903109298030B
:1022C00088EE93E0A0E0B0E080939A0390939B03A4
:1022D000A0939C03B0939D0323E131E030939703D7
:1022E0002093960325EC30E03093A3032093A203C0
:1022F00024EC30E03093A5032093A40320EC30E0DD
:102300003093A7032093A60321EC30E03093A90378
:102310002093A80322EC30E03093AB032093AA0370
:1023200026EC30E03093AD032093AC031092AF0362
:102330001092B0031092B1031092B20310923604BF
:10234000109235048093370490933804A093390495
:10235000B0933A0425E231E03093340420933304FF
:102360002CEA31E0309375042093740427E532E0C1
:102370003093730420937204109256041092550403
:102380008093570490935804A0935904B0935A042F
:1023900087E391E0909354048093530410926A046D
:1023A0001092690410926C0410926B0410926E04E7
:1023B00010926D041092700410926F046091710479
:1023C0006E7F6D7F609371046695617081E0682710
:1023D00088E00E943B0961E088E00E948809E6EB02
:1023E000F0E0E491E0936304E2EAF0E0E491F0E0ED
:1023F000EE0FFF1FE057FF4F859194919093650476
:102400008093640460E087E00E94880980917104F1
:1024100081FD04C061E087E00E943B0987E0809372
:102420005F04E5EBF0E0E491E0936004E1EAF0E0C2
:10243000E491F0E0EE0FFF1FEA57FF4F8591949172
:10244000909362048093610480E090E0A4EBBDE38C
:1024500080934F0490935004A0935104B09352047E
:1024600086E696E6A6EABFE380934B0490934C047D
:10247000A0934D04B0934E0489E29EEF90934A04DA
:10248000809349048CEE92E0909348048093470433
:1024900089EB9FEF90934604809345048CE591E08F
:1024A000909344048093430480E390E0909342042B
:1024B0008093410484EE90E09093400480933F0425
:1024C00080E280937C0410927D048FEF80937E04E1
:1024D00080937F0410928104109280040895052E49
:1024E00097FB1EF400940E94861257FD07D00E94AD
:1024F000A11207FC03D04EF40C948612509540951F
:10250000309521953F4F4F4F5F4F0895909580959F
:10251000709561957F4F8F4F9F4F08950E94C31212
:10252000A59F900DB49F900DA49F800D911D112427
:102530000895B7FF0C948E120E948E12821B930B8B
:102540000895A1E21A2EAA1BBB1BFD010DC0AA1FF4
:10255000BB1FEE1FFF1FA217B307E407F50720F00C
:10256000A21BB30BE40BF50B661F771F881F991F87
:102570001A9469F760957095809590959B01AC01D0
:10258000BD01CF010895A29FB001B39FC001A39FD9
:10259000700D811D1124911DB29F700D811D11249C
:1025A000911D0895DB018F939F930E948E12BF911E
:1025B000AF91A29F800D911DA39F900DB29F900D92
:1025C0001124089597FB072E16F4009407D077FD89
:1025D00009D00E94F61207FC05D03EF49095819533
:1025E0009F4F0895709561957F4F0895AA1BBB1B5F
:1025F00051E107C0AA1FBB1FA617B70710F0A61B03
:10260000B70B881F991F5A95A9F780959095BC0123
:10261000CD010895EE0FFF1F0590F491E02D099470
:102620005058BB27AA270E9428130C94A2140E947A
:10263000941438F00E949B1420F039F49F3F19F451
:1026400026F40C9491140EF4E095E7FB0C948B1493
:10265000E92F0E94B31458F3BA176207730784076F
:10266000950720F079F4A6F50C94D5140EF4E095B6
:102670000B2EBA2FA02D0B01B90190010C01CA013C
:10268000A0011124FF27591B99F0593F50F4503EE7
:1026900068F11A16F040A22F232F342F4427585FD9
:1026A000F3CF469537952795A795F0405395C9F7F1
:1026B0007EF41F16BA0B620B730B840BBAF09150A9
:1026C000A1F0FF0FBB1F661F771F881FC2F70EC048
:1026D000BA0F621F731F841F48F48795779567951B
:1026E000B795F7959E3F08F0B0CF9395880F08F007
:1026F0009927EE0F9795879508950E94671408F41F
:1027000081E008950E9496130C94A2140E949B14D9
:1027100058F00E94941440F029F45F3F29F00C9483
:102720008B1451110C94D6140C9491140E94B31470
:1027300068F39923B1F3552391F3951B550BBB27F0
:10274000AA2762177307840738F09F5F5F4F220F35
:10275000331F441FAA1FA9F335D00E2E3AF0E0E82C
:1027600032D091505040E695001CCAF72BD0FE2F76
:1027700029D0660F771F881FBB1F2617370748070A
:10278000AB07B0E809F0BB0B802DBF01FF279358C2
:102790005F4F3AF09E3F510578F00C948B140C94E7
:1027A000D6145F3FE4F3983ED4F38695779567950A
:1027B000B795F7959F5FC9F7880F911D96958795F7
:1027C00097F90895E1E0660F771F881FBB1F621716
:1027D00073078407BA0720F0621B730B840BBA0BD4
:1027E000EE1F88F7E09508950E94FB136894B111DD
:1027F0000C94D61408950E94BB1488F09F5798F04B
:10280000B92F9927B751B0F0E1F0660F771F881FF5
:10281000991F1AF0BA95C9F714C0B13091F00E940F
:10282000D514B1E008950C94D514672F782F88271C
:10283000B85F39F0B93FCCF3869577956795B39536
:10284000D9F73EF490958095709561957F4F8F4FA5
:102850009F4F0895E89409C097FB3EF490958095AA
:10286000709561957F4F8F4F9F4F9923A9F0F92F56
:1028700096E9BB279395F695879577956795B795D4
:10288000F111F8CFFAF4BB0F11F460FF1BC06F5FBA
:102890007F4F8F4F9F4F16C0882311F096E911C0CC
:1028A000772321F09EE8872F762F05C0662371F0ED
:1028B00096E8862F70E060E02AF09A95660F771F01
:1028C000881FDAF7880F9695879597F90895990FDD
:1028D0000008550FAA0BE0E8FEEF16161706E807EA
:1028E000F907C0F012161306E407F50798F0621B0B
:1028F000730B840B950B39F40A2661F0232B242BE0
:10290000252B21F408950A2609F4A140A6958FEFFE
:10291000811D811D089597F99F6780E870E060E050
:1029200008959FEF80EC089500240A941616170668
:1029300018060906089500240A94121613061406B0
:1029400005060895092E0394000C11F4882352F013
:10295000BB0F40F4BF2B11F460FF04C06F5F7F4FCB
:102960008F4F9F4F089557FD9058440F551F59F0B2
:102970005F3F71F04795880F97FB991F61F09F3F6C
:1029800079F087950895121613061406551FF2CF95
:102990004695F1DF08C0161617061806991FF1CFE5
:1029A00086957105610508940895E894BB2766270C
:1029B0007727CB0197F908950E94671408F48FEFE9
:1029C00008950E94F4140C94A2140E94941438F0F8
:1029D0000E949B1420F0952311F00C948B140C94FE
:1029E000911411240C94D6140E94B31470F3959F83
:1029F000C1F3950F50E0551F629FF001729FBB27F6
:102A0000F00DB11D639FAA27F00DB11DAA1F649F91
:102A10006627B00DA11D661F829F2227B00DA11D44
:102A2000621F739FB00DA11D621F839FA00D611DCA
:102A3000221F749F3327A00D611D231F849F600DEB
:102A4000211D822F762F6A2F11249F5750409AF014
:102A5000F1F088234AF0EE0FFF1FBB1F661F771FA0
:102A6000881F91505040A9F79E3F510580F00C946B
:102A70008B140C94D6145F3FE4F3983ED4F3869500
:102A800077956795B795F795E7959F5FC1F7FE2B0B
:102A9000880F911D9695879597F908950E94671460
:102AA000880B990B089581E090E0F8940C945815E8
:102AB00010E0C2E6D0E004C0FE010E940A13219695
:0A2AC000C336D107C9F7F894FFCF21
:102ACA0001010101C800010E000F001000110000F1
:102ADA0000000020018D00B7006D01E800C600DA91
:102AEA0000000000002602F901F702CD01F101DD24
:102AFA0001CE01000000006D028D00F702CD01BD7C
:102B0A0002D50255020A000D00001083028301005B
:102B1A0002496E6974004A6F79497A715F4D65643A
:102B2A00696F3A20004A6F794465725F4D6564693E
:102B3A006F3A20007674733A2000456E636F6465BD
:102B4A007220646573636F6E65637461646F0053AA
:102B5A00697374656D6120616374697661646F2E4F
:102B6A00002C204A793A002C094A783A002C204D48
:102B7A00446972286572723A006E616E00696E6607
:102B8A00006F7666002C2063746C3A0029002C20B2
:102B9A00743A000D0A005061726F20456D657267C4
:102BAA003A004A79732C0041637473002C20456EF5
:102BBA00633A002C2020506F74002A2A2A20446588
:102BCA0073636F6E65637461646F2E2A2A2A00200C
:102BDA002A2A2A446573636F6E65637461646F2E73
:042BEA002A2A2A0069
:00000001FF
