:020000040C00EE
:100000000088FE1F010200089902000899020008FA
:1000100099020008990200089902000800000000F7
:10002000000000000000000000000000990200082D
:100030009902000800000000990200080D2600083F
:100040009902000899020008990200089902000824
:100050009902000899020008990200089902000814
:1000600099020008000000000000000000000000ED
:100070009902000800000000990200089902000897
:1000800099020008990200089902000899020008E4
:1000900099020008990200089902000899020008D4
:1000A00099020008990200089902000899020008C4
:1000B00099020008990200089902000899020008B4
:1000C00099020008990200089902000899020008A4
:1000D0009902000899020008990200089902000894
:1000E0009902000899020008990200089902000884
:1000F0009902000899020008990200089902000874
:100100009902000899020008990200089902000863
:100110009902000899020008990200089902000853
:100120009902000899020008990200089902000843
:100130009902000899020008990200089902000833
:100140009902000899020008990200089902000823
:100150009902000899020008990200089902000813
:10016000000000000000000000000000000000008F
:1001700099020008990200089902000899020008F3
:1001800099020008990200089902000899020008E3
:10019000CD20000899020008990200089902000881
:1001A0009902000899020008D92000089902000865
:1001B00099020008990200089902000899020008B3
:1001C00099020008990200089902000899020008A3
:1001D0009902000899020008990200080000000036
:1001E0009902000899020008990200089902000883
:1001F00099020008000000009902000800000000B9
:10020000DFF874D01D4880471D4C1E4DAC4209DA02
:1002100021686268A368043BA2BFC858D050FAE7BF
:100220000C34F3E7184B194CA34208DA19685A68E2
:100230000020043AA4BF8850FBE70833F4E71448D1
:100240008047144880470000344C000C0088FE1F93
:10025000E0030000344C000C0088FE1F000000008A
:10026000E08BFE1FA404000000000020000000003E
:1002700000000020000000000088FE1FF11D0008A3
:1002800048020008600200086002000878020008C6
:100290003D3F0008E5200008FEE70368C9B21B687F
:1002A0001847000038B50B4C0B4D0C4B0C491B6824
:1002B000B3FBF0F02860204601F07DFF296820465E
:1002C0000A2201F0DDFF20460649BDE8384001F072
:1002D0007FBF00BF988DFE1F788CFE1F4088FE1FD9
:1002E000FF4600088444000810B5084C4FF4E13183
:1002F000204601F0AFFE0649204601F069FF4FF4A9
:100300009641044801F0A6FE012010BD988DFE1F05
:100310003A470008B48DFE1F07B501220DF1070111
:10032000054801F0E1FF20B19DF8070003B05DF83A
:1003300004FB4FF0FF30F9E7B48DFE1F30B5194CC8
:1003400023680722013393FBF2F2C2EBC2029B1A2D
:10035000236041F8230014480023024651F823404B
:1003600040F823400133072BF8D10F4B012103F153
:1003700018051C6853F8040F844202DD43E90104A8
:1003800000219D42F5D10029EFD0D2E90130184477
:10039000D36818441369184453691844052390FB23
:1003A000F3F030BDB08CFE1FB48CFE1F70B51C4C3A
:1003B0001C4E05463146204601F0FDFE29462046EA
:1003C00001F0F9FE1849204601F0F5FE0A22E9681D
:1003D000204601F046FF3146204601F0ECFE29465A
:1003E000204601F0E8FE1149204601F0E4FE0A2211
:1003F000A968204601F035FF3146204601F0DBFEBA
:100400002946204601F0D7FE0949204601F0D3FED7
:10041000296920460A22BDE8704001F022BF00BFD2
:10042000988DFE1F594700085C4700086347000885
:100430006A470008F8B5B1F5486F154B0C46A8BFE0
:100440004FF448649C4207460D4612484FF0AA01FB
:10045000B8BF1C46FFF721FF3946C6B20D48FFF76B
:100460001CFF002D0FDA06210A48FFF716FF644231
:1004700004F01F010748FFF710FF61110548FFF75F
:100480000CFF3046F8BD05210248FFF706FFEFE7F5
:1004900080F3FFFFB48DFE1F38B50E4B0E4D18785C
:1004A0000E4C01F03BFF0E4B2860187801F036FF30
:1004B0000C4920602868FFF741FF0B4B0B4918607F
:1004C0000B4B18602068FFF739FF0A4B18600A4B86
:1004D000186038BDB088FE1F948CFE1F888CFE1FEC
:1004E000AC88FE1F3C8DFE1F808DFE1F208DFE1FE1
:1004F0008C8CFE1F7C8DFE1F808CFE1F08B50D4B63
:10050000187801F00BFF0C4B0C491860FFF716FF31
:100510000B4B18600B4B18600B4B187801F0FEFE6C
:100520000A4B0B491860FFF709FF0A4B18600A4B8A
:10053000186008BD9888FE1F1C8CFE1FD08CFE1F03
:10054000748DFE1F188CFE1F9488FE1FFC8BFE1FEF
:10055000EC8CFE1F788DFE1FF88BFE1F08B5124B2A
:10056000187801F099FF114BB0FA80F0400918702B
:100570000F4B187801F090FF0E4BB0FA80F0400955
:1005800018700D4B187801F087FF0C4BB0FA80F013
:10059000400918700A4B187801F07EFF094BB0FA39
:1005A00080F04009187008BDA488FE1F758CFE1FDE
:1005B0009C88FE1F688CFE1FC088FE1FA48CFE1F37
:1005C000B488FE1FA18CFE1F10B50D4C0D492046AE
:1005D00001F0F1FD0C4B0A221968204601F041FEA2
:1005E0000A49204601F0E7FD094B204619680A2216
:1005F00001F037FE20460749BDE8104001F0DBBDA1
:10060000988DFE1F8C4500088C8CFE1F92450008BB
:10061000808CFE1F9A45000810B5154C15492046E0
:1006200001F0C9FD144B0A221978204601F026FE7C
:100630001249204601F0BFFD114B0A2219782046CD
:1006400001F01CFE0F49204601F0B5FD0E4B0A22B9
:100650001978204601F012FE0C49204601F0ABFD4E
:100660000B4B20460A221978BDE8104001F006BE67
:10067000988DFE1FAB430008758CFE1FB343000826
:10068000A48CFE1FBB430008688CFE1FC3430008F8
:10069000A18CFE1F10B50824FFF7FEFEFFF72EFF0A
:1006A000013CF9D110BD000070B4184EE8B9184BE8
:1006B000184C1A78184B25681B68184C003218BF64
:1006C0000122246834604B4302B95B42002932683E
:1006D000B8BF49429142B8BF002398B9104A13608D
:1006E0002846194670BCFFF7A5BE0128EBD10D4B7B
:1006F0000D4C1A780D4B25681B680D4C003218BF45
:100700000122DEE70128EBD10A4AE8E7288CFE1F28
:100710001488FE1F3088FE1F1888FE1F1C88FE1FCD
:10072000048CFE1FE08BFE1F2C88FE1F0488FE1F1A
:100730000888FE1FE48BFE1F2DE9F0414F4C504E00
:100740002568504CD6F800C0D4F800E09DF8187029
:100750004D4E0EEB0508441B002A47D040452ADDCC
:1007600019B94A4A11684A4A11604A4A116884EA2A
:10077000E472A1EB0C01A2EBE4724A4346490C6817
:10078000651B92FBF5F262443260444A002B69D04B
:10079000434B1B68136011680020FFF785FF414B36
:1007A000002F65D0404A12681A6019680120BDE820
:1007B000F041FFF779BFA5EB0E0E86454ADDC6F87E
:1007C00000C00029E1D1314A1168384A1268002C72
:1007D000A2EB0102B8BF64425443354A1268AD1A15
:1007E0002B4A94FBF5F50D441560CEE7404516DD28
:1007F000C6F800C00029C8D1244A10682B4A1168E5
:1008000084EAE472091AA2EBE4724A4322490C68B2
:100810001F49651B92FBF5F202440A60B5E7A5EBA0
:100820000E0E864516DD1B4A281A12680028A2EB18
:100830000C02B8BF404250431D4A1268AA1A90FBEE
:10084000F2F26244326000299FD1104A1168104AC6
:1008500011609AE719B90D4A11680D4A1160C6F87E
:1008600000C092E70A4B13491B6809685B1A91E7BD
:10087000114932680968521A96E700BF7488FE1F52
:100880001088FE1FE488FE1FF48BFE1F2888FE1FC1
:10089000148CFE1F0C88FE1F7888FE1F0C8CFE1F18
:1008A000108CFE1FEC8BFE1FF08BFE1F2088FE1F9E
:1008B0007C88FE1F188CFE1FF88BFE1F034B044A1A
:1008C0001B6812689B1A034A136070471088FE1F4A
:1008D0000C88FE1FF08BFE1F034B044A1B68126836
:1008E0009B1A034A136070472088FE1F2888FE1F4A
:1008F000108CFE1F044B18B14FF4D8721A60704769
:100900004FF43572FAE700BF0C88FE1F10B5374C64
:100910003749204601F04FFC3649204601F04BFC98
:10092000354B0A221968204601F09BFC33492046CA
:1009300001F041FC324B0A221968204601F091FC7B
:100940003049204601F037FC2F4B0A221968204617
:1009500001F087FC2D49204601F02DFC2C4B0A228A
:100960001968204601F07DFC2A49204601F023FC4D
:10097000294B0A221978204601F080FC274920469D
:1009800001F019FC2649204601F015FC254B0A22EE
:100990001968204601F065FC2349204601F00BFC54
:1009A000224B0A221968204601F05BFC20492046B0
:1009B00001F001FC1F4B0A221968204601F051FC8E
:1009C0001D49204601F0F7FB1C4B0A2219682046FE
:1009D00001F047FC1A49204601F0EDFB194B204677
:1009E0000A221978BDE8104001F048BC988DFE1F1E
:1009F000CB430008D5430008188CFE1FDD430008D8
:100A0000148CFE1FE54300080C8CFE1FED4300080C
:100A1000048CFE1FF54300081588FE1FFF430008E5
:100A200009440008F88BFE1F11440008F48BFE1FD8
:100A30001A440008EC8BFE1F23440008E48BFE1FC1
:100A40002C4400080088FE1F10B5094B094C1B6898
:100A500022689A420AD30848FFF7A8FC0748FFF724
:100A6000A5FC0748FFF7A2FC0023236010BD00BFD0
:100A7000788CFE1F108DFE1F408CFE1F2C8CFE1FDD
:100A8000548CFE1F2DE9F84F804639B9844A116015
:100A9000844B1868BDE8F84FFFF7CCBC022959D148
:100AA000814B824A1B6812689C189A1A90427C4AB1
:100AB00003DBA04215DC002310E07D490968814278
:100AC0000FDC7C4804687C480068A8EB0308001B26
:100AD00008FB00F8CB1A98FBF3F32344136011686A
:100AE000D6E77349086840450EDD734B1C68734BAD
:100AF0001968A8EB0003091B4B4371490968A1EB76
:100B0000000893FBF8F3E8E76E49A04509680FDD9C
:100B100088450FDC674804686B480068A8EB030849
:100B2000204408FB00F8CB1A98FBF3F31B1BD5E716
:100B30008845D4DD644B1868644B1B68A8EB01083A
:100B40001B1A08FB03F8624B1B685B1A98FBF3F354
:100B50000344C3E7032940F08480534BD3F800904B
:100B6000A0EB090002F034FC0022002306460D46EB
:100B700002F028FF002853D105F1004B554B1868AF
:100B800002F026FC5B46324602F0FEFEDFF868B15A
:100B9000002840D0484602F01BFC32462B4602F0AB
:100BA00011FF002845D04C4B1B78DBB34B4B18682A
:100BB00003F098F94A4B8246186803F093F94FF016
:100BC000FF340746204602F003FC80465046894623
:100BD00002F0FEFB02460B463046294602F08CFD31
:100BE00042464B4602F05EFC02F09AF802460B4683
:100BF0004046494602F056FC80463846894602F097
:100C0000E7FB02460B464046494602F04BFC02F029
:100C1000E3FE07FB1400CBF80000DBF8001037E719
:100C2000AB46ABE72F4B186803F05CF92E4B8246BE
:100C3000C2E7C145C6DA284B1B785BB12B4B18685D
:100C400003F050F9264B8246186803F04BF907462B
:100C50000124B7E7264B186803F044F9824607469B
:100C6000F6E701291AD11B4A0F4B11681B685A1A63
:100C700082420B4A03DC0B448342BFF61CAF104B8D
:100C800019681C4BA8EB010803FB08F8104B1B6804
:100C90005B1A98FBF3F303F548631FE7BDE8F88F91
:100CA000A88CFE1F3488FE1F6888FE1FE088FE1F88
:100CB0001C8DFE1F3C88FE1F708CFE1F6088FE1F6F
:100CC0007088FE1F188DFE1F6C8CFE1F5C88FE1F37
:100CD0006C88FE1FE488FE1FA18CFE1F4C88FE1F3F
:100CE0004488FE1F5488FE1F4888FE1F5088FE1F40
:100CF0005888FE1F00E7FFFFAC8CFE1F10B50D4C9F
:100D00000D49204601F057FA0C4B0A22196820467B
:100D100001F0A7FA0A49204601F04DFA094B204696
:100D200019780A2201F09DFA20460749BDE81040D3
:100D300001F041BA988DFE1F36440008A88CFE1FB2
:100D400040440008A58CFE1F484400080021024BC7
:100D500008461970FFF796BEA58CFE1F08B5044B18
:100D6000187801F099FBB0FA80F0400908BD00BF87
:100D7000A088FE1F30B5DDE90354DDE905200799A1
:100D800001232B70237003700B702B781BB1237819
:100D9000003318BF01231370007818B108780030B1
:100DA00018BF0120089B18701378002B08BF002083
:100DB00030BD000008B5064B0121187801F07EFB1C
:100DC000044B01211878BDE8084001F077BB00BF53
:100DD000A888FE1FC488FE1F08B5064B002118789E
:100DE00001F06CFB044B00211878BDE8084001F0CD
:100DF00065BB00BFA888FE1FC488FE1F08B5064B50
:100E00000021187801F05AFB044B01211878BDE845
:100E1000084001F053BB00BFA888FE1FC488FE1F16
:100E20002DE9F0411C461D4B074613F820000D46E6
:100E3000904601F073FA012D06461BD1404529D298
:100E400054B31749174801F0B6F939460A22154834
:100E500001F016FA1449134801F0ADF931460A229F
:100E6000104801F00DFA11490E4801F0A4F90020D4
:100E7000BDE8F081002DFAD140450BD964B10C4991
:100E8000084801F098F939460A22064801F0F8F9B5
:100E90000849E0E70120EBE72046E9E7648DFE1F03
:100EA0001B470008988DFE1F264700088444000851
:100EB0002B470008354700082DE9F04F87B0CDE9F2
:100EC0000423059B9DF84C505A4C03900026067055
:100ED0000E7016701E70109B1E70119B1E708A463D
:100EE000FFF768FF129801F0EFFB22682B46012103
:100EF0003046FFF795FF012122684F4C2B460746ED
:100F00000846FFF78DFF226800902B460121022042
:100F1000FFF786FF226806462B4601210320FFF7D4
:100F20007FFF0446002F7AD0009B13F1000818BF02
:100F30004FF00108002E74D0002C08BF4FF00008BD
:100F4000FFF74AFFDFF8F4901298DFF8F4B001F0F1
:100F5000BBFB0021D9F800202B460846FFF760FFB5
:100F6000D9F8002001902B4600210120FFF758FFFF
:100F7000DBF8002002902B4600210220FFF750FFF3
:100F80002B46DBF80020814600210320FFF748FFB5
:100F9000019B8346002B46D0029B003318BF0123E0
:100FA000B9F1000F41D01BF1000518BF0125002B3E
:100FB00008BF0025FFF722FFB8F1000F08BF00258A
:100FC0001FB1019B1F1C18BF0127009B8AF80070EE
:100FD0006BB3029B003318BF0123039A13709AF876
:100FE0000020002A049A08BF002313701EB119F1D3
:100FF000000618BF0126109B1E701CB11BF10004D7
:1010000018BF0124059B1C70109B1B78002B119BA3
:1010100008BF002428461C7007B0BDE8F08FB84612
:1010200088E7B0468CE7019BBAE74D46BFE7009BD7
:10103000D3E700BFDC88FE1FD488FE1FD888FE1FC0
:10104000D088FE1F2DE9F04F87B0CDE901239DF830
:10105000403003939DF8483004939DF84C309DF840
:1010600044A005938B46DDE91445DDF85880894E90
:101070000746002840F0F0802378042B9CBF05230E
:101080002370FFF763FE33783BB98349834801F04F
:101090009FF8834A012313703370DFF86892BBF125
:1010A000000F40F0DB802278052A98BF06224FF01F
:1010B000010698BF227088F80060FFF70DFC2E70C3
:1010C000FFF7FCFB99F800203AB97649734801F024
:1010D0007FF8754A89F800601670019B734E002BEB
:1010E00040F0C0802378032B98BF04234FF0010900
:1010F00098BF237085F80090FFF7E0FB327842B983
:101100006B49664801F064F86A4A86F8009082F8F4
:101110000090029B684E002B40F0A7802378042BA0
:1011200098BF05234FF0010998BF237088F80090FD
:10113000FFF7D2FB327842B96049584801F048F8CD
:101140005F4A86F8009082F80090039B5D4E002B6A
:1011500040F08E802378042B9CBF05232370FFF77B
:10116000F5FD33783BB958494C4801F031F8574AFE
:10117000012333701370DFF89091BAF1000F7AD128
:101180002278052A98BF06224FF0010698BF2270E8
:1011900088F80060FFF7A0FB2E70FFF78FFB99F82F
:1011A00000203AB94A493D4801F012F8494B89F804
:1011B00000601E70049B484E002B60D12378022BE8
:1011C0009CBF0323237033783BB94449334800F074
:1011D000FFFF434A012333701370059B414E002BE0
:1011E00050D12378022B9CBF0323237033783BB963
:1011F0003D492A4800F0ECFF3C4A0123337013704C
:10120000BBF1000F0BD0BAF1000F08D0019B0BB15E
:1012100000232B70029B13B1002388F8003027B104
:10122000039B13B1324B02221A70324B1B7863B30B
:10123000314B1B784BB32378032B0AD9032323703C
:101240002E4C23782BB92E49144800F0C1FF0123FE
:10125000237007B0BDE8F08F00231DE7002289F856
:1012600000203AE70023337053E7002333706CE724
:10127000002333707FE7002289F800209AE70023DB
:101280003370AAE700233370BAE71C4B00221A70B0
:10129000DFE700BF5D8DFE1FA5450008988DFE1F8E
:1012A0009E8CFE1FB24500089F8CFE1F588DFE1FAE
:1012B000BF450008998CFE1F5A8DFE1FCD450008C2
:1012C0009B8CFE1F5E8DFE1FDC4500089D8CFE1F63
:1012D000EF450008A08CFE1F598DFE1F0246000836
:1012E0009A8CFE1F5B8DFE1F164600089C8CFE1F0D
:1012F000A58CFE1FA28CFE1FA38CFE1F608DFE1FFF
:101300002B4600085F8DFE1F5C8DFE1F08B50F4940
:101310000F4800F05DFF0F4B01211970FFF7CEFA67
:101320000D4B1B786BB10D4B19680D4B1B68C91A1F
:101330000C4B00201960FFF7B7F9BDE80840FFF734
:1013400005BD094B1970FFF7C7FAF6E78C43000893
:10135000988DFE1F0088FE1F008CFE1F2488FE1F34
:10136000188CFE1F0C8CFE1F1588FE1F70B50E46D4
:1013700015461C4618B90B490B4800F01CFF1EB956
:101380000A49094800F017FF1DB90949064800F04D
:1013900012FF2CB907490448BDE8704000F00BBFAC
:1013A00070BD00BFA5450008988DFE1FB24500081E
:1013B000BF450008CD45000830B5154C154A2368D7
:1013C00012680133934285B00546236003D2037847
:1013D00073B105B030BD104B104A114911481B784C
:1013E000127809780078FFF7C1FF002323600123FA
:1013F00003930D4B0D4A1B6802930D4B0193064B53
:1014000000930749054B0748FFF756FD2870E0E7B2
:101410000C8DFE1F088DFE1F008CFE1FE18BFE1F32
:10142000908CFE1F848CFE1F6488FE1F7C8CFE1F28
:10143000248CFE1F10B586B00C4B05930C4B049307
:101440000C4B03930C4B02930C4B01930C4B0093EE
:1014500004460C4B0C4A0D490D481B68126809687C
:101460000068FFF787FC207006B010BD258CFE1FBA
:10147000088CFE1FE88BFE1F7D8CFE1F918CFE1FCB
:10148000858CFE1F188CFE1FF88BFE1F8C8CFE1F98
:10149000808CFE1F10B50B4C0B49204600F08BFED4
:1014A0000A4B0A221978204600F0DBFE0849204644
:1014B00000F081FE074B20460A221978BDE8104053
:1014C00000F0CFBE988DFE1FEE460008748CFE1F04
:1014D000F6460008148DFE1F2DE9F0432E4D012322
:1014E00087B02B702D4B02AA03F108061746186827
:1014F0005968144603C40833B3422246F7D118682A
:101500001B792371206001230024DFF89880244E8A
:10151000DFF8A090CDE900448DF807303B5D6BB952
:10152000414630462B7000F046FE21460A223046E6
:1015300000F0A6FE4946304600F04AFE01340D2C6C
:10154000ECD1184F164EDFF8708000241DF80430DF
:1015500073B10023394630462B7000F02CFE214633
:101560000A22304600F08CFE4146304600F030FE44
:101570000134082CEAD10C4B1A680C4B1B689A42B8
:1015800005D900230A4906482B7000F021FE28786F
:1015900007B0BDE8F08300BF148DFE1F7443000840
:1015A000988DFE1F5B4600088C8DFE1FCC88FE1FA9
:1015B000BC460008664600089146000873B504461C
:1015C000084609499DF818500E7808490978009393
:1015D00013463246FFF7B0F82946204602B0BDE870
:1015E0007040FFF74FBA00BF988CFE1F758CFE1F2E
:1015F00038B5244B244D1878244C802100F038FF56
:10160000234B8021187800F033FF2878802100F0E8
:101610002FFF2078802100F02BFF28781D4D00211E
:1016200000F04CFF20781C4C002100F047FF287888
:10163000802100F01DFF2078802100F019FF28781C
:10164000002100F03BFF2078012100F037FF134B11
:101650001021187800F00CFF114B0021187800F0D1
:1016600007FF104B0021187800F002FF0E4B0021FD
:10167000187800F0FDFE0D4B00211878BDE83840C9
:1016800000F0F6BEC488FE1FB888FE1FBC88FE1F8F
:10169000A888FE1F8C88FE1F9088FE1FA088FE1F52
:1016A000A488FE1F9C88FE1FC088FE1FB488FE1FF2
:1016B00008B5FEF789FFFEF7AFFFFFF727F9FFF741
:1016C000C3F9FFF71BFBBDE80840FFF7E3BE0000CE
:1016D00008B52C492C4800F06EFD2C4B1B78002BD4
:1016E0004DD02B49284800F073FD2A49264800F0C8
:1016F0006FFD2949244800F06BFD2849224800F07D
:1017000067FD2749204800F063FD26491E4800F088
:1017100052FD254B1C4819680A2200F0B1FD2349EF
:10172000194800F055FD2249174800F044FD214BAF
:10173000154819780A2200F0A1FD1C49124800F052
:1017400047FD1D49104800F036FD1C4B0E48196836
:101750000A2200F095FD15490B4800F039FD1849A3
:10176000094800F028FD174B074819680A2200F0C5
:101770007AFD0E490448BDE8084000F029BD124931
:10178000B0E700BF52440008988DFE1F988CFE1FE2
:101790006F44000887440008A4440008C6440008B9
:1017A000E94400080E4500088888FE1F84440008AC
:1017B000284500088488FE1F3C450008088DFE1F50
:1017C0006B4500088C8DFE1F7B440008F8B50B4F5D
:1017D0000B4E3B680B4C35680B495D1B204600F0F7
:1017E000EAFC0A222946204600F019FD0749204656
:1017F00000F0EEFC3B683360F8BD00BF848DFE1F37
:10180000888DFE1F988DFE1F874300085A470008E9
:1018100008B5FEF769FD0D4B1878FEF743FDFFF79D
:10182000E7FEFFF7EBFAFEF735FF094B02221A70CD
:10183000FFF74EFFFFF750FE18B90649064800F0C3
:10184000C7FC064B1A68064B1A6008BD8488FE1F49
:10185000A58CFE1F71470008988DFE1F148EFE1F79
:10186000888DFE1FF8B5364B36481B783649037114
:1018700002F062FC354B36481B783649037102F0A2
:101880005BFC354B354836491B78037102F054FC3C
:10189000344B1868344B1D68344B451B1D60344B6A
:1018A0001C68344B241A1C6002F078F9324B1F6814
:1018B0000646284602F072F9394602F0C3F901469D
:1018C000304602F0B5F802F00DFB2C4B18602046B4
:1018D00002F064F9394602F0B5F9314602F0AAF88F
:1018E00002F000FB264B274A1860274B1B6803EBCE
:1018F00083031360254B186802F050F9244B1968D4
:1019000002F0A0F902F0EEFA224B1860224B40429E
:101910001860224B1A78224B1B68B3FBF2F3214A62
:101920001360214A214B12681A60214A12685A60DA
:10193000204A12689A60204A1268DA60F8BD00BF37
:101940003088FE1F408CFE1F814300082C88FE1F3C
:101950002C8CFE1F834300083488FE1F548CFE1F0E
:10196000854300086888FE1F7088FE1F948DFE1F47
:101970006C88FE1F908DFE1F8088FE1F1C8DFE1F31
:10198000188DFE1F208CFE1F1C88FE1FE888FE1F7E
:10199000C888FE1F708CFE1F6C8CFE1F8488FE1F83
:1019A0008888FE1F088DFE1FB088FE1F648DFE1FF5
:1019B000AC88FE1F9888FE1F9488FE1F38B510481B
:1019C0000D46AA211446FEF768FC29460C4800F093
:1019D0005FFA21210A48FEF760FC2146084800F022
:1019E00057FAFEF799FC0446FEF796FC002C04DB40
:1019F000002802DB04EB002038BD4FF0FF30FBE78E
:101A0000B48DFE1F10B5172201790446FFF7D6FFEB
:101A1000E06010BD10B5182201790446FFF7CEFF33
:101A2000A06010BD10B5002201790446FFF7C6FF83
:101A3000206110BD10B50446FFF7E4FF2046FFF714
:101A4000E9FF2046BDE81040FFF7ECBF0A4A08B5A1
:101A5000136801331360094A126893420AD3084895
:101A6000FFF7E8FF0748FFF7E5FF0748BDE8084034
:101A7000FFF7E0BF08BD00BF108DFE1F788CFE1F72
:101A8000408CFE1F2C8CFE1F548CFE1F08B5FEF7E9
:101A900003FDFEF763FDFEF731FDBDE80840FFF7EB
:101AA000D5BF0000284B294A1B6870B51360284A2F
:101AB00012689B1A274A1278934288B042DBFFF7DC
:101AC0004DF9254B1870002839D1FFF7DFFF234B64
:101AD000234E1878234C244DFEF70CFF2348FFF7C4
:101AE000A9FC2348FFF768FC224B234A23492448DA
:101AF0001B781278097800780496224E0694059592
:101B000036780396204E36780296204E3678019627
:101B10001F4E36780096FFF795FA1E491E48097841
:101B200000911E492B78227809680068FFF746FD6E
:101B3000FFF7BEFD08B0BDE87040FFF747BEFFF7F6
:101B4000E5FBF7E708B070BD148EFE1F848DFE1F05
:101B5000888DFE1F8488FE1F3888FE1FA18CFE1F03
:101B6000748CFE1F1588FE1F0088FE1FA38CFE1FAD
:101B7000A28CFE1F008CFE1FE18BFE1F908CFE1FAF
:101B8000848CFE1F088CFE1FE88BFE1F918CFE1FAD
:101B9000858CFE1FA58CFE1F808CFE1F8C8CFE1F6B
:101BA00082B000230193019B834201D302B07047AE
:101BB00000BF019B0133F5E772B60A4B0A4A9A60EF
:101BC000BFF34F8F62B65A69084922F008025A6182
:101BD00041F214028B5823F00F0343F004038B509F
:101BE000704700BF00ED00E0000000080010005842
:101BF00000487047001BB7001B4BDB68D90310B5CA
:101C000030D51A4CE368DA0723D4FFF7F1FF2368D5
:101C10005B0720D5A168A268A368C3F30643C1F39C
:101C20000361013301FB0333B0FBF3F0C2F306237E
:101C300003FB00000C4AD368DBB20133B0FBF3F0C6
:101C4000136903F001030133B0FBF3F0084B186094
:101C500010BD0848DBE7A36803F07F030133B0FB46
:101C6000F3F0E7E70348E5E700460050104700506F
:101C7000C0FF032000366E0138B54F4B1A68D007FD
:101C800006D45A6842F001025A601A68D107FCD59E
:101C90004A4B1A68920507D59A6842F400729A6016
:101CA00041F64C50FFF77CFF454C464D636843F4CA
:101CB0000023636040F6C410FFF772FF636823F4EB
:101CC000803323F0020363606B6813F0300F1DD084
:101CD0006B6823F4702323F030036B60FFF788FFF9
:101CE0006A68394BB0FBF3F0013842EA00406860A3
:101CF000E36823F00103E360636823F40033636067
:101D0000236803F46073B3F5607FF9D1636843F02F
:101D100001036360636843F0100363602B4BA360AF
:101D2000636843F040036360636823F010036360FB
:101D3000636843F48023636023685B07FCD56368B2
:101D400023F001036360216811F00101FBD1204AF7
:101D50004FF00113D360032351611161116251628D
:101D6000D3611C4B93611C4B9362636823F0400367
:101D700063601A4BA3604FF41660FFF711FF184B16
:101D8000A3604FF46160FFF70BFF164BA3604FF4A5
:101D90009650FFF705FF144BA36041F27070FFF7F8
:101DA000FFFE124BA3604FF4E150FFF7F9FE5160C4
:101DB000FFF722FF38BD00BF004200500044005032
:101DC0001047005000470050A0252600002F0B01AF
:101DD000004600500500010003002001002F05010E
:101DE000002F0301002F0201002F0101002F00012D
:101DF00038B5094A094D4FF00054234603CBAB4296
:101E0000106051601C4602F10802F6D1FFF7D4FEC3
:101E1000FFF732FF38BD00BFC4FF032010000020D1
:101E2000436958689A689B688242CABFC3F18003BD
:101E3000C01AC0187047436959689A6891421FBF19
:101E40009A681B68985CC0B208BF4FF0FF307047BB
:101E5000436959689A6891420CD09A681968885CFD
:101E60009A6801329A609A687F2AC0B204DD002223
:101E70009A6070474FF0FF307047836959689A68DD
:101E80009142FBD103691A68936B1B06FCD470471F
:101E900038B5036904461868A269836B1B060D46B2
:101EA0000ED49168536899420AD14FF4005100F062
:101EB000D0FC23692946186800F0B0FC012038BD29
:101EC00053680133802BA8BF002391689942FCD04E
:101ED000516812685554A2695360EFE708B5084B82
:101EE0002BB10848FFF79CFF08B1AFF30080064B09
:101EF0002BB10648FFF794FF08B1AFF3008008BD8F
:101F000000000000988DFE1F00000000B48DFE1F31
:101F100030B54FF0000C4FF47A75C0E901C5034DA0
:101F20000560C0E90412836130BD00BFE0470008CE
:101F30001FB500238DF80B3002F00F038DF8083029
:101F40008DF8093022F0FF03ADF80C30C2F3031214
:101F500003698DF80A2004460191186801A900F070
:101F600027FC236903F10C02197A586800F0E0FBA2
:101F70002369186893F82C10C26922F007020A43FB
:101F800093F82D10C26107291EBF026A22F00702D2
:101F90000A4393F82E1018BF026207291FBF426A36
:101FA00022F007020A43426293F82F20072A1FBF3C
:101FB000836A23F00703134383624FF4404100F028
:101FC00048FC236908215A6B186800F097FC2369C4
:101FD0000C215A6B186800F091FC236904215A6B9C
:101FE000186800F08BFC236993F93030002B25DB57
:101FF00003F1604303F561430C2283F80023236956
:1020000093F93030002B08DB5909012203F01F033C
:1020100002FA03F30D4A42F82130236903F120024A
:10202000197F986900F084FB23691A68136C23F008
:102030000F0343F00203136404B010BD044A03F01D
:102040000F031A440C231376D9E700BF00E100E028
:10205000FCEC00E01822FFF76BBF03691B6870B54A
:102060009D6C15F4404F044610D04FF44042DA64A2
:1020700023691868036D13F4C04F07D0666900F038
:10208000DEFBC1B2304600F009F9F1E7AB0417D529
:1020900023691868A3694FF40051C1649D685A68A8
:1020A00095420ED09A681B68995C00F0B7FBA36953
:1020B0009A6801329A609A687F2A01DD00229A604C
:1020C00070BDBDE8704000F0CFBB00000148FFF7D5
:1020D000C4BF00BF988DFE1F0148FFF7BEBF00BF01
:1020E000B48DFE1F08B500F009FA00F073F9FFF790
:1020F0008FFBFFF7D7FCFFF7F1FEFAE72DE9F04180
:10210000104E114F114C124D8021304600F0BAF89C
:102110008021384600F0B6F88021204600F0B2F861
:102120008021284600F0AEF83B46324609490A486D
:10213000FFF7EEFE2B46224608490948BDE8F0416C
:10214000FFF7E6BED08DFE1FF08DFE1FE08DFE1F57
:10215000008EFE1FEC88FE1F988DFE1F2489FE1F37
:10216000B48DFE1F2DE9F04106460D4601EB020835
:102170000C464445A4EB050707D0336814F8011B4F
:102180001B68304698470028F3D13846BDE8F081F7
:1021900070B5044608460D4601F0D6FF2368024696
:1021A000294620465B68BDE87040184709B1FFF733
:1021B000EFBF0846704708B5FFF7F8FF08BD036892
:1021C0001B6818470149FFF7E3BF00BF084B000831
:1021D00038B50546FFF7EAFF04462846FFF7F2FF49
:1021E000204438BD70B58AB00D460AA9002301F815
:1021F000043D012A98BF0A22B5FBF2F402FB1456F3
:10220000F3B2092E94BF30333733DBB2254601F8E1
:10221000013D002CF0D1FFF7C9FF0AB070BD2DE9D8
:10222000F04107460E4615462AB90368C9B21B6835
:10223000BDE8F04118470A2A05D1002905DBBDE8B1
:10224000F041FFF7CFBFD2B2F9E72D21FFF7B7FF7B
:102250002A46044671423846FFF7C4FF2044BDE8D1
:10226000F081FFF7DCBF10B422B9036810BC1B6813
:10227000C9B21847D2B210BCFFF7B4BFFFF7F3BF23
:10228000FFF7F1BF10B5C1600446C06800F041F827
:102290000023206063602046A36010BD4368C268CD
:1022A00001339A42D8BF0023826810B59A421FBFFB
:1022B00042680468A154436010BD000038B5094D60
:1022C0002A68C260044623682046DB6898470028D5
:1022D00007DAE2682B689B1AA2689342F3D34FF0A7
:1022E000FF3038BD148EFE1F2DE9F04180460D46AB
:1022F0008F180C46BC42A4EB050607D04046FFF7FA
:10230000DDFF002802DB04F8010BF3E73046BDE8EF
:10231000F08101F037BE01F03DBE000015282DE927
:10232000FF4705464FD8294F182404FB007494F842
:102330001480B8F1000F2DD1102241466846D4F820
:1023400010A0D4F8089001F02DFE9DF80030012671
:1023500066F301038DF800309DF802306AF3030341
:102360008DF80230FF238DF80D306A4621794846FA
:1023700000F058FC2369A268A03342F82380237B35
:1023800021799B0003F140238E40D3F8802116432E
:10239000C3F880614FF04022D2F8043243F4007356
:1023A000C2F80432182303FB05752B69AA68C033F1
:1023B00052F82300064B1B7880B2C3F10C03D840BF
:1023C00004B0BDE8F0874FF0FF30F9E75C89FE1FED
:1023D0006C8BFE1F10B58EB01822002108A801F0EA
:1023E000E1FD002408A94FF04020CDE9004402940B
:1023F00000F0FBFA1422214603A801F0D3FD03A943
:10240000174800F049FB03A9164800F045FB0321DB
:10241000134800F083FB0321124800F07FFB03A95F
:10242000114800F039FB03A9104800F035FB0321E7
:102430000D4800F073FB03210C4800F06FFB4FF0D8
:10244000402000F0EBFA69464FF0402000F06EFBB0
:10245000E0B20134FFF762FF162CF9D10EB010BDC7
:102460000044004000480040004C00400050004044
:102470001FB54FF480330293064B8DF8041003EB25
:10248000C00101AA097953F8300000F051F905B0F4
:102490005DF804FBF847000832281FBF064A52F8CF
:1024A000303002EBC0025B6A1DBF107923FA00F0E6
:1024B00000F0010000207047F8470008074B10B5F6
:1024C00053F8304003EBC00300291B790CBF4FF4D5
:1024D0008032012202FA03F3636010BDF84700085E
:1024E000054B53F8302003EBC00319794FF001136B
:1024F0008B405360704700BFF8470008134B144AE5
:10250000144870B55A60144A144DFC2182F8231007
:10251000002407229C6021461A604FF4C07201F02B
:1025200041FD0C480E4B21460C2202FB01060F29EF
:10253000D4BF43F8215043F8214031810131202993
:10254000F3D1054B102283F8232070BD10E000E08A
:102550007F320200008FFE1F00ED00E0992C000882
:102560007C8EFE1F2DE9F84F214B224CDFF8908026
:10257000DFF890A0DFF890B001221A701E4B1F68A0
:102580001E4B1A681F600025A7EB02092560206812
:102590001F2802DD2846BDE8F88F0C2606FB00F355
:1025A00008EB0302B2F90A1000290CDD58F80330D9
:1025B000FB1A4B4507D85AF8203043B901218BF854
:1025C000001053810135236801332360DFE7B2F93E
:1025D0000810984723685E4308EB060300B2002802
:1025E0005881C2BF5B68DB1948F80630EAE700BFD4
:1025F000188EFE1FFC8EFE1F148EFE1F1C8EFE1FEB
:10260000008FFE1F7C8EFE1F108EFE1F064A38B5FF
:102610001368064C01331360237803F0FF0513B9E8
:10262000FFF7A0FF257038BD148EFE1F188EFE1F09
:102630001F2805D8044B1B68181A18BF01207047C3
:102640004FF0FF30704700BFFC8EFE1F38B50546C7
:10265000FFF7EEFF00280EDB074C4FF00C0202FBE9
:1026600005F204EB0203596005D0044B1B680133EB
:102670001944A150012038BD008FFE1F148EFE1F8B
:1026800010B50246FFF7D4FF002810DD0C490C20DE
:1026900050430B185C686CB1B3F90A20002A0CDCBB
:1026A000084A126822440A500120588110BD4FF098
:1026B000FF30FBE76FF00100F8E76FF00200F5E78D
:1026C000008FFE1F1C8EFE1F10B501461F20FFF756
:1026D000BDFF1F20FFF7D4FF044C00F0DCFA237885
:1026E000002BFAD00023237010BD00BF108EFE1FF8
:1026F0000B4A116808B5034609B90A491160106808
:102700000949033323F0030303448B4201D21360CE
:1027100008BD01F00DFC0C2303604FF0FF30F7E71C
:10272000208EFE1F00000020C0FF03207047000025
:1027300001F0FC030344F0B501F003051C69ED0052
:10274000F826AE4024EA06041C61446F4F000326BD
:10275000BE4024EA06044467144CA04203D004F5AA
:102760008074A0420CD1046E012606FA01F124EA1D
:102770000101016612781969AA400A431A61F0BD85
:1027800054688C404460CC0800EB840001F00701E1
:10279000046C890007268E4024EA06040464147A37
:1027A000066C04FA01F131430164E3E7008E02484C
:1027B00070B50E46044600F0D5F8F5793168002D65
:1027C00008BF10252A46204600F05CF8B3795A1E4F
:1027D000114B6D0843EA4203013543EA0525E563E1
:1027E0003379013B1A0642F48172626372796AB1ED
:1027F000636B013A43EA024262634FF4A063A3634E
:102800004FF0FF33E3643389236470BD626B42EAA7
:1028100003436363F1E700BF01000300D0F8083110
:1028200013F0E06F08D1836B1B06FCD44FF4005308
:10283000C364C0F880107047C0F880117047D0F8AA
:102840000C3113F0E06F0CBF406DD0F81C0180B26A
:102850007047026C01F4FE3313430364C36B01F051
:10286000F8011943C1637047036C01F4FE3223EA97
:1028700002030364C36B01F0F80123EA0101C163A1
:102880007047000063292DE9F04105460C461646C5
:1028900030D97AB300F02CFA642140F2FF3EB0FB4D
:1028A000F1FCB4FBF1F401217443CCEB8C270A4614
:1028B0007046B7FBF4F34FEA9328B8F5806F06D261
:1028C000C3F3090373453EBF9E46414602460138A5
:1028D000A7EB0C07EDD142F400422A616A69064B6E
:1028E000013E134043EA8623013943EA01436B6109
:1028F000BDE8F0810120FBE7EF8000FC10B58369A3
:1029000007248C4023EA04038A401343836110BDEB
:1029100008B50F4B984209D14FF4006000F0F4F96C
:102920004FF40060BDE8084000F0D8B9094B984268
:1029300004D1094800F0E8F90748F3E7074B98424B
:1029400004D1074800F0E0F90548EBE708BD00BFF7
:1029500008000340080002488000001008400248B8
:1029600000010010164B984210B5044603D003F541
:102970000073984203D11348FFF7CAFF0CE0124BD3
:10298000984203D003F5007398420FD10F4800F02E
:10299000BBF90E4800F0A2F90323E360E368DB070C
:1029A000FCD5236C23F00F03236410BD084B984221
:1029B00003D003F500739842EED10648DCE700BF70
:1029C000000003400800034000000248800000109F
:1029D000004002480840024808B5012000F094F980
:1029E0000120BDE8084000F079B938B50D4604462D
:1029F000FFF7F2FF6B6923606B6843F40043C4F890
:102A00008030AB68C4F8A030EB68C4F8A4302B6900
:102A1000C4F880322B68C4F8B83038BDD0F88030A4
:102A20000A4943F00043C0F88030002351F82320C6
:102A3000D2F8800010F4403F04D0D2F8800010F0AB
:102A4000805FF9E70133042BF0D170471C4B00087D
:102A5000F0B5B2B901F01F041F25C1F302214FF4F4
:102A6000E067082600EB8303B140D3F8A00020EA1A
:102A70000700014321EA050194402143C3F8A01057
:102A8000F0BDC1F304444FF4F815C1F302614FF0F7
:102A9000E06710221826E5E7F8B50C460023054646
:102AA0001A464968FFF7D4FF0023012261682846CF
:102AB000FFF7CEFF01230022A1682846FFF7C8FFD9
:102AC00001231A46A1682846FFF7C2FFE27823696E
:102AD000C5F88030C2F38107C2F3001CC2F3401670
:102AE000C2F380116288E368C5F8B830C2F3090008
:102AF000227802F0070242EA0042C5F8F021D5F838
:102B0000F03143F0004343EA0C7343EA876343EA3E
:102B1000467343EA8173C5F8F031F8BDD0F88030D0
:102B200023F003031943C0F880107047DFF8F0C0AA
:102B3000DCF8843023F08063F0B5CCF88430354B7A
:102B4000354FD3F88420354E22F08062C3F88420BC
:102B5000D7F8842022F08062C7F88420D6F8842039
:102B600022F08062C6F884200C7814F003050CBFB4
:102B700000224FF40062C4F3810442EA0422DCF82C
:102B8000844024F440741443CCF88440D3F8844047
:102B900024F440741443C3F88440D7F8844024F4E8
:102BA00040741443C7F88440D6F8844024F4407439
:102BB0002243C6F884204A6842F4000242F40042EC
:102BC000C0F800228A68164942F00102C0F80422C7
:102BD000022D02BFD0F8042242F48032C0F8042251
:102BE000D1F8842042F08062C1F88420D3F8842098
:102BF00042F08062C3F88420074AD2F8843043F060
:102C00008063C2F88430D2F8843443F08063C2F821
:102C10008434F0BD00480040004C004000500040AB
:102C200000440040D0F8883030B501248C4023EABD
:102C30000404137B8B402343C0F8883092F90D3095
:102C4000002B0EDB01291DD1D0F8B04024F4F8543C
:102C5000C0F8B0400824D0F8B050A3402B43C0F8CF
:102C6000B030D0F8C83054682343C0F8C830D0F82A
:102C7000D030946880312343C0F8D030136840F8D6
:102C8000213030BD29B9D0F8B04024F01F04C0F87D
:102C9000B0400024DFE77047F8B50E4E0E4F56F8EF
:102CA00021400D466CB1785CFFF71AFC56F82530D0
:102CB000002B04DD56F82530013B46F82530012075
:102CC00007E02146FFF7C2FC785D2146FFF7F6FBDF
:102CD0002046F8BD248EFE1F648EFE1F020F0C23BB
:102CE0005343024A20F070409850704714440050FB
:102CF000034B044A5B69106803F00103D840704736
:102D000000460050C0FF0320020F0C235343024A29
:102D100020F0704098507047484600500000000076
:102D20002DE9F043DFF8E4808BB004460D4600F057
:102D30006FF898F90030013306460F4633D020462D
:102D4000294600F0EBF970B329A3D3E9002320460C
:102D5000294600F037FE814650BB27A3D3E9002364
:102D60002046294600F010FEE8B198F90030244AC8
:102D7000CDF82090042600200021022BCDE9044547
:102D8000CDE90245CDE90062CDE9060129D06846CA
:102D900000F0CAF928B3089B1BB101F0C9F8089BE1
:102DA0000360DDE90667304639460BB0BDE8F083C5
:102DB000134A98F90030019203210022CDE904451D
:102DC000CDE90245009108922BB90E4B4FF06042BD
:102DD000CDE90623DBE70C490020022BCDE90601F3
:102DE000D5D101F0A5F822230360D4E7AFF300802A
:102DF000EF39FAFE422E864051302DD5104987C05A
:102E00002C4B0008FFFFEF470000F07F6D8BFE1F8B
:102E10002DE9F047B84F21F00042BA4284B00C4689
:102E20004FEAD176054612D9B44FBA4240F28E80AD
:102E3000C1F313030343024640F0F780002E00F075
:102E4000818000252946284604B0BDE8F087AC4BB8
:102E50009A4200F2B880AB4B9A4240F2D3804FF0D6
:102E6000000A2A4623462846214600F01BFB8CA375
:102E7000D3E9002306460F4600F014FB8AA3D3E9EA
:102E8000002300F057F932463B4600F00BFB88A3C5
:102E9000D3E9002300F050F932463B4600F002FB34
:102EA00085A3D3E9002300F045F932463B4600F004
:102EB000F9FA83A3D3E9002300F03EF932463B46FA
:102EC00000F0F0FA02460B462846214600F032F99F
:102ED00002460B4606460F462846214600F0E2FA17
:102EE00080468946BAF1000F00F0B38032463B4677
:102EF00000204FF0804100F01DF902460B4640468D
:102F0000494600F0F9FB02460B46DDE9020100F0FC
:102F100011F9DDE9002300F00DF90B4602467A496C
:102F2000002000F007F96FF47F739A4580F2AD80BE
:102F30000AF57A7A01EB0A5100224FF0B87300F0DB
:102F4000B1FA0546284604B0BDE8F0875EA3D3E990
:102F5000002300F037FD00286FD1284621465CA3EE
:102F6000D3E9002300F010FD00287FF46AAF674B1F
:102F7000284603EBC606214657A3D3E9002300F0F9
:102F800091FAD6E9002300F0D7F800F025FD82463B
:102F900000F01EFA52A3D3E9002306460F4600F0C4
:102FA00081FA02460B462846214600F0C3F84EA39C
:102FB000D3E90023CDE900013046394600F072FA2A
:102FC000CDE9020115E0524B9A42D0D8514BF400A2
:102FD0002344D3E9002300F0ADF84F4B2344D3E959
:102FE0000034CDE90001CDE90234C6F1010AAAEBB3
:102FF000060ADDE90223DDE9000100F09BF8054641
:103000000C462EE73AA3D3E9002300F095F80022FE
:103010003D4B00F0D7FC00283ED028462146002238
:10302000394B00F089F805468CE70B4600F084F830
:103030000546284604B0BDE8F0872DA3D3E9002358
:103040001046194600F02EFA0546284604B0BDE8A1
:10305000F0873046394600224FF0804300F06AF88E
:1030600002460B464046494600F046FB2A462346A8
:1030700000F060F802460B460020234900F05AF8A1
:103080000546284604B0BDE8F087054601EB0A5125
:10309000284604B0BDE8F0878246E2E6AFF3008040
:1030A000D0A4BE726937663EF16BD2C541BDBB3E4E
:1030B0002CDE25AF6A56113F93BDBE166CC1663F2C
:1030C0003E5555555555C53FEF39FAFE422E8640BF
:1030D00051302DD5104987C0FE822B654715F73F2B
:1030E0000000E0FE422EE63F763C7935EF39EA3DBE
:1030F0009C7500883CE4377E412E8640FFFFEF7FC1
:10310000422ED63FFFFF2F3E0000F03F304B00081D
:10311000B1A2F03F404B0008504B000841F0004185
:1031200001F58010C00F70470020704781F000410A
:1031300002E000BF83F0004330B54FEA41044FEA9C
:10314000430594EA050F08BF90EA020F1FBF54EA37
:10315000000C55EA020C7FEA645C7FEA655C00F0D3
:10316000E2804FEA5454D4EB5555B8BF6D420CDDA4
:103170002C4480EA020281EA030382EA000083EA27
:10318000010180EA020281EA0303362D88BF30BDC7
:1031900011F0004F4FEA01314FF4801C4CEA11311D
:1031A00002D0404261EB410113F0004F4FEA03337C
:1031B0004CEA133302D0524263EB430394EA050F07
:1031C00000F0A780A4F10104D5F1200E0DDB02FA76
:1031D0000EFC22FA05F2801841F1000103FA0EF20A
:1031E000801843FA05F359410EE0A5F120050EF1D0
:1031F000200E012A03FA0EFC28BF4CF0020C43FA01
:1032000005F3C01851EBE37101F0004507D54FF00D
:10321000000EDCF1000C7EEB00006EEB0101B1F55D
:10322000801F1BD3B1F5001F0CD349085FEA3000A3
:103230004FEA3C0C04F101044FEA445212F5800FAE
:1032400080F09A80BCF1004F08BF5FEA500C50F14B
:10325000000041EB045141EA050130BD5FEA4C0C2E
:10326000404141EB010111F4801FA4F10104E9D1B7
:1032700091F0000F04BF01460020B1FA81F308BFAE
:103280002033A3F10B03B3F120020CDA0C3208DD7A
:1032900002F1140CC2F10C0201FA0CF021FA02F155
:1032A0000CE002F11402D8BFC2F1200C01FA02F1C5
:1032B00020FA0CFCDCBF41EA0C019040E41AA2BFEA
:1032C00001EB0451294330BD6FEA04041F3C1CDAB2
:1032D0000C340EDC04F11404C4F1200220FA04F0D2
:1032E00001FA02F340EA030021FA04F345EA03017C
:1032F00030BDC4F10C04C4F1200220FA02F001FA3E
:1033000004F340EA0300294630BD21FA04F02946BF
:1033100030BD94F0000F83F4801306BF81F4801158
:103320000134013D4EE77FEA645C18BF7FEA655CCB
:1033300029D094EA050F08BF90EA020F05D054EA9D
:10334000000C04BF1946104630BD91EA030F1EBFA2
:103350000021002030BD5FEA545C05D140004941A6
:1033600028BF41F0004130BD14F580043CBF01F599
:10337000801130BD01F0004545F0FE4141F470017F
:103380004FF0000030BD7FEA645C1ABF194610465A
:103390007FEA655C1CBF0B46024650EA013406BF5B
:1033A00052EA033591EA030F41F4002130BD00BF1A
:1033B00090F0000F04BF0021704730B54FF48064D7
:1033C00004F132044FF000054FF0000150E700BF58
:1033D00090F0000F04BF0021704730B54FF48064B7
:1033E00004F1320410F0004548BF40424FF00001A4
:1033F0003EE700BF42004FEAE2014FEA31014FEAE7
:1034000002701FBF12F07F4393F07F4F81F0605135
:10341000704732F07F4208BF704793F07F4F04BF80
:1034200041F40021704730B54FF4607401F000455D
:1034300021F000411CE700BF50EA010208BF7047BD
:1034400030B54FF000050AE050EA010208BF7047AE
:1034500030B511F0004502D5404261EB41014FF417
:10346000806404F132045FEA915C3FF4D8AE4FF01F
:1034700003025FEADC0C18BF03325FEADC0C18BF02
:10348000033202EBDC02C2F1200300FA03FC20FA53
:1034900002F001FA03FE40EA0E0021FA02F11444A0
:1034A000BDE600BF70B54FF0FF0C4CF4E06C1CEAB9
:1034B00011541DBF1CEA135594EA0C0F95EA0C0F2A
:1034C00000F0DEF82C4481EA030621EA4C5123EA9D
:1034D0004C5350EA013518BF52EA033541F48011CC
:1034E00043F4801338D0A0FB02CE4FF00005E1FB7F
:1034F00002E506F00042E0FB03E54FF00006E1FBC9
:1035000003569CF0000F18BF4EF0010EA4F1FF040B
:10351000B6F5007F64F5407404D25FEA4E0E6D414B
:1035200046EB060642EAC62141EA55514FEAC5205C
:1035300040EA5E504FEACE2EB4F1FD0C88BFBCF5D8
:10354000E06F1ED8BEF1004F08BF5FEA500E50F189
:10355000000041EB045170BD06F0004646EA01014F
:1035600040EA020081EA0301B4EB5C04C2BFD4EB81
:103570000C0541EA045170BD41F480114FF0000E7A
:10358000013C00F3AB8014F1360FDEBF002001F0E8
:10359000004170BDC4F10004203C35DA0C341BDC62
:1035A00004F11404C4F1200500FA05F320FA04F034
:1035B00001FA05F240EA020001F0004221F0004168
:1035C00010EBD37021FA04F642EB06015EEA430EDB
:1035D00008BF20EAD37070BDC4F10C04C4F120050B
:1035E00000FA04F320FA05F001FA04F240EA0200BE
:1035F00001F0004110EBD37041F100015EEA430E8F
:1036000008BF20EAD37070BDC4F1200500FA05F2AE
:103610004EEA020E20FA04F301FA05F243EA02032D
:1036200021FA04F001F0004121FA04F220EA02003C
:1036300000EBD3705EEA430E08BF20EAD37070BD82
:1036400094F0000F0FD101F00046400041EB010162
:1036500011F4801F08BF013CF7D041EA060195F044
:10366000000F18BF704703F00046520043EB0303FE
:1036700013F4801F08BF013DF7D043EA06037047EB
:1036800094EA0C0F0CEA135518BF95EA0C0F0CD0F6
:1036900050EA410618BF52EA4306D1D181EA03013C
:1036A00001F000414FF0000070BD50EA410606BF36
:1036B0001046194652EA430619D094EA0C0F02D17B
:1036C00050EA013613D195EA0C0F05D152EA0336C0
:1036D0001CBF104619460AD181EA030101F00041DE
:1036E00041F0FE4141F470014FF0000070BD41F027
:1036F000FE4141F4780170BD70B54FF0FF0C4CF401
:10370000E06C1CEA11541DBF1CEA135594EA0C0F1F
:1037100095EA0C0F00F0A7F8A4EB050481EA030E6C
:1037200052EA03354FEA013100F088804FEA033353
:103730004FF0805545EA131343EA12634FEA022221
:1037400045EA111545EA10654FEA00260EF00041E2
:103750009D4208BF964244F1FD0404F5407402D234
:103760005B084FEA3202B61A65EB03055B084FEAC5
:1037700032024FF480104FF4002CB6EB020E75EBC2
:10378000030E22BFB61A754640EA0C005B084FEAEA
:103790003202B6EB020E75EB030E22BFB61A754667
:1037A00040EA5C005B084FEA3202B6EB020E75EBB2
:1037B000030E22BFB61A754640EA9C005B084FEA2A
:1037C0003202B6EB020E75EB030E22BFB61A754637
:1037D00040EADC0055EA060E18D04FEA051545EA26
:1037E00016754FEA06164FEAC30343EA52734FEACF
:1037F000C2025FEA1C1CC0D111F4801F0BD141EA48
:1038000000014FF000004FF0004CB6E711F4801FAC
:1038100004BF01430020B4F1FD0C88BFBCF5E06F8C
:103820003FF6AFAEB5EB030C04BFB6EB020C5FEA9C
:10383000500C50F1000041EB045170BD0EF0004EF1
:103840004EEA113114EB5C04C2BFD4EB0C0541EA23
:10385000045170BD41F480114FF0000E013C90E620
:1038600045EA060E8DE60CEA135594EA0C0F08BFE4
:1038700095EA0C0F3FF43BAF94EA0C0F0AD150EAE3
:1038800001347FF434AF95EA0C0F7FF425AF104676
:1038900019462CE795EA0C0F06D152EA03353FF49E
:1038A000FDAE1046194622E750EA410618BF52EA1B
:1038B00043067FF4C5AE50EA41047FF40DAF52EAEF
:1038C00043057FF4EBAE12E74FF0FF3C06E000BF8C
:1038D0004FF0010C02E000BF4FF0010C4DF804CD99
:1038E0004FEA410C7FEA6C5C4FEA430C18BF7FEA59
:1038F0006C5C1BD001B050EA410C0CBF52EA430C87
:1039000091EA030F02BF90EA020F0020704710F106
:10391000000F91EA030F58BF994208BF90422CBF95
:10392000D8176FEAE37040F0010070474FEA410C8E
:103930007FEA6C5C02D150EA013C07D14FEA430CAC
:103940007FEA6C5CD6D152EA033CD3D05DF8040B1D
:10395000704700BF8446104662468C46194663464F
:1039600000E000BF01B5FFF7B7FF002848BF10F126
:10397000000F01BD4DF808EDFFF7F4FF0CBF01206B
:1039800000205DF808FB00BF4DF808EDFFF7EAFFE7
:1039900034BF012000205DF808FB00BF4DF808EDA2
:1039A000FFF7E0FF94BF012000205DF808FB00BF97
:1039B0004DF808EDFFF7CEFF94BF012000205DF821
:1039C00008FB00BF4DF808EDFFF7C4FF34BF01202E
:1039D00000205DF808FB00BF4FEA410212F500121B
:1039E00015D211D56FF47873B3EB625212D94FEA46
:1039F000C12343F0004343EA505311F0004F23FA30
:103A000002F018BF404270474FF00000704750EA84
:103A1000013005D111F0004008BF6FF00040704741
:103A20004FF00000704700BF80F0004002E000BF90
:103A300081F0004142001FBF5FEA410392EA030F99
:103A40007FEA226C7FEA236C6AD04FEA1262D2EBE3
:103A50001363C1BFD218414048404140B8BF5B42E8
:103A6000192B88BF704710F0004F40F4000020F081
:103A70007F4018BF404211F0004F41F4000121F097
:103A80007F4118BF494292EA030F3FD0A2F10102E1
:103A900041FA03FC10EB0C00C3F1200301FA03F11F
:103AA00000F0004302D5494260EB4000B0F5000F42
:103AB00013D3B0F1807F06D340084FEA310102F101
:103AC0000102FE2A51D2B1F1004F40EBC25008BFB3
:103AD00020F0010040EA03007047490040EB00007D
:103AE00010F4000FA2F10102EDD1B0FA80FCACF1AC
:103AF000080CB2EB0C0200FA0CF0AABF00EBC250AB
:103B000052421843BCBFD0401843704792F0000F98
:103B100081F4000106BF80F400000132013BB5E7EB
:103B20004FEA41037FEA226C18BF7FEA236C21D061
:103B300092EA030F04D092F0000F08BF08467047C6
:103B400090EA010F1CBF0020704712F07F4F04D194
:103B5000400028BF40F00040704712F100723CBFA7
:103B600000F50000704700F0004343F0FE4040F4D1
:103B7000000070477FEA226216BF08467FEA23638F
:103B80000146420206BF5FEA412390EA010F40F47A
:103B9000800070474FF0000304E000BF10F00043C6
:103BA00048BF40425FEA000C08BF704743F09643AD
:103BB00001464FF000001CE050EA010208BF7047C8
:103BC0004FF000030AE000BF50EA010208BF70474F
:103BD00011F0004302D5404261EB41015FEA010C64
:103BE00002BF84460146002043F0B64308BFA3F15C
:103BF0008053A3F50003BCFA8CF2083AA3EBC2533E
:103C000010DB01FA02FC634400FA02FCC2F120025C
:103C1000BCF1004F20FA02F243EB020008BF20F093
:103C20000100704702F1200201FA02FCC2F12002F9
:103C300050EA4C0021FA02F243EB020008BF20EAEE
:103C4000DC7070474FF0FF0C1CEAD0521EBF1CEA1C
:103C5000D15392EA0C0F93EA0C0F6FD01A4480EA0A
:103C6000010C400218BF5FEA41211ED04FF00063F3
:103C700043EA501043EA5111A0FB01310CF000401F
:103C8000B1F5000F3EBF490041EAD3715B0040EA45
:103C9000010062F17F02FD2A1DD8B3F1004F40EB15
:103CA000C25008BF20F00100704790F0000F0CF0E8
:103CB000004C08BF49024CEA502040EA51207F3AAC
:103CC000C2BFD2F1FF0340EAC250704740F4000087
:103CD0004FF00003013A5DDC12F1190FDCBF00F078
:103CE00000407047C2F10002410021FA02F1C2F126
:103CF000200200FA02FC5FEA310040F1000053EAC2
:103D00004C0308BF20EADC70704792F0000F00F00F
:103D1000004C02BF400010F4000F013AF9D040EA15
:103D20000C0093F0000F01F0004C02BF490011F4A9
:103D3000000F013BF9D041EA0C018FE70CEAD153A7
:103D400092EA0C0F18BF93EA0C0F0AD030F0004C27
:103D500018BF31F0004CD8D180EA010000F00040DB
:103D6000704790F0000F17BF90F0004F084691F099
:103D7000000F91F0004F14D092EA0C0F01D14202D3
:103D80000FD193EA0C0F03D14B0218BF084608D19C
:103D900080EA010000F0004040F0FE4040F40000E6
:103DA000704740F0FE4040F4400070474FF0FF0C79
:103DB0001CEAD0521EBF1CEAD15392EA0C0F93EAC0
:103DC0000C0F69D0A2EB030280EA010C49024FEA12
:103DD000402037D04FF0805343EA111143EA1013CB
:103DE0000CF000408B4238BF5B0042F17D024FF483
:103DF000000C8B4224BF5B1A40EA0C00B3EB510F5E
:103E000024BFA3EB510340EA5C00B3EB910F24BF46
:103E1000A3EB910340EA9C00B3EBD10F24BFA3EBCB
:103E2000D10340EADC001B0118BF5FEA1C1CE0D193
:103E3000FD2A3FF650AF8B4240EBC25008BF20F046
:103E4000010070470CF0004C4CEA50207F32C2BF9A
:103E5000D2F1FF0340EAC250704740F400004FF037
:103E60000003013A37E792F0000F00F0004C02BF68
:103E7000400010F4000F013AF9D040EA0C0093F032
:103E8000000F01F0004C02BF490011F4000F013B8C
:103E9000F9D041EA0C0195E70CEAD15392EA0C0FF4
:103EA00008D142027FF47DAF93EA0C0F7FF470AF2C
:103EB000084676E793EA0C0F04D14B023FF44CAF6F
:103EC00008466EE730F0004C18BF31F0004CCAD104
:103ED00030F000427FF45CAF31F000437FF43CAF40
:103EE0005FE700BF4FEA4002B2F1FE4F0FD34FF041
:103EF0009E03B3EB12620DD94FEA002343F0004357
:103F000010F0004F23FA02F018BF404270474FF004
:103F10000000704712F1610F01D1420205D110F08B
:103F2000004008BF6FF0004070474FF0000070473E
:103F3000014B1868704700BF708BFE1F70B50D4EA7
:103F40000D4CA41BA4100025A54209D10B4E0C4C0E
:103F5000FEF7ECFBA41BA4100025A54205D170BD03
:103F600056F8253098470135EEE756F82530984742
:103F70000135F2E7D48BFE1FD48BFE1FD48BFE1FBE
:103F8000DC8BFE1F024B0146186800F061B800BFD1
:103F9000708BFE1F024B0146186800F00BB800BF83
:103FA000708BFE1F02440346934200D1704703F812
:103FB000011BF9E738B50546002945D051F8043C06
:103FC0000C1F002BB8BFE41800F0C6F81F4A136896
:103FD000104633B9636014602846BDE8384000F0ED
:103FE000BCB8A3420CD921686218934204BF1A6876
:103FF0005B68636004BF521822600460ECE71346FC
:104000005A680AB1A242FAD919685818A0420BD1CD
:1040100020680144581882421960DDD11068526846
:104020005A6001441960D7E702D90C232B60D3E70B
:10403000206821188A4204BF11685268626004BF78
:10404000091821605C60C7E738BD00BF748EFE1F91
:1040500070B5CD1C25F0030508350C2D38BF0C2597
:10406000002D064601DBA94203D90C233360002052
:1040700070BD00F071F8214A1468214691B9204CB6
:1040800023681BB9304600F03DF8206029463046D1
:1040900000F038F8431C24D10C233360304600F084
:1040A0005CF8E4E70B685B1B18D40B2B0FD90B6093
:1040B000CD50CC18304600F050F804F10B00231D11
:1040C00020F00700C31AD3D05A42E250D0E78C4206
:1040D0004B6816BF636013600C46EBE70C464968FB
:1040E000CCE7C41C24F00304A04205D0211A3046BA
:1040F00000F008F80130CFD02560DBE7748EFE1F9A
:10410000788EFE1F38B5064C00230546084623600E
:10411000FEF7EEFA431C02D1236803B12B6038BDD1
:104120008090FE1F10F8012B11F8013B012A28BFD7
:104130009A42F7D0D01A7047034611F8012B03F8C2
:10414000012B002AF9D17047034613F8012B002AEE
:10415000FBD1181A013870477047704710B5034BF0
:104160000360044600F0B2F8204610BD9C4B0008E6
:1041700010B50446FFF7F2FF20460C2100F0F8F8D6
:10418000204610BD2DE9F041069E9642074688461E
:1041900015461C460AD0B868036806961E6A2A4669
:1041A00023464146B446BDE8F0416047194600F059
:1041B00057F80028EFD00620BDE8F0812DE9F14F37
:1041C0000E461946834617469946DDE90A4ADDE957
:1041D0000C8500F045F890B1002E2C602F7109DBA2
:1041E0003444A0450CBF06240124AC71002001B06A
:1041F000BDE8F08F0236F9D10123AB71F6E74445F3
:1042000006D15146584600F02BF808B16F71EDE722
:10421000DBF808000368CDE90C85CDE90A4ADC69C2
:104220003A464B463146A44601B0BDE8F04F6047E0
:104230002DE9F04104460D4616461F4600F077F87A
:1042400048B9A06803689C6932463B462946A446A3
:10425000BDE8F0416047BDE8F0817047002070473D
:10426000814208B50ED0406803782A2B0CD04968EB
:104270000B782A2B08BF0131FFF754FFB0FA80F00A
:10428000400908BD0120FCE70020FAE77FB50024C3
:104290001023CDE902340368009415469E698DF819
:1042A00004406B461268B0479DF8043003F00603E3
:1042B000062B03BF009B2B600120204604B070BD7D
:1042C000009890420CBF06200120704710B5034BA8
:1042D00003600446FFF7C1FF204610BD104C0008E4
:1042E00010B50446FFF7F2FF2046082100F040F821
:1042F000204610BD2DE9F0419846DDE90834069EC0
:104300009E420746154607D10799FFF7A9FF18B146
:1043100065710020BDE8F08141463846FFF7A0FFF7
:104320000028F6D0012326602571A371F1E738B586
:1043300015461C46FFF794FF20B10823E3600623CF
:104340002560237138BD2DE9F04105460C4616461F
:104350001F46FFF785FF48B9032F07D82368324669
:10436000294620465B69BDE8F0411847BDE8F08169
:10437000FDF7D1BF010101010001010101010101AE
:10438000014200410056002C09543A002A2A50618B
:10439000726F20646520456D657267656E63696143
:1043A000204D616E75616C2E2A2A002C09624642EE
:1043B0003A20002C206250553A20002C20625044B4
:1043C0003A20002C20624D433A20002C09425F61C4
:1043D000633A2031002C20425F703A20002C2042AA
:1043E0005F743A20002C20425F653A20002C204266
:1043F0005F633A20002C20425F696E683A20002CEF
:1044000009415F61633A2031002C20415F703A20FE
:10441000002C2020415F743A20002C2020415F6551
:104420003A20002C2020415F633A20002C20415F7D
:10443000696E683A20002C09566F6C5F633A200061
:104440002C20565F6D3A20002C20565F61633A2085
:1044500031002A2A4D6F646F204F70657261636965
:10446000C3B36E204A6F79737469636B3A2000445A
:1044700069726563746F2E202A2A00496E76657210
:10448000736F2E202A2A002A2A456C204672656EF8
:104490006F20657374C3A120416374697661646F92
:1044A0002E2A2A002A2A456C204163656C657261B8
:1044B000646F7220657374C3A1204163746976616F
:1044C000646F2E2A2A002A2A4E4F5F56414C494ECD
:1044D00044414E444F5F4C494D495445535F4A4F08
:1044E00059535449434B2A2A002A2A4E4F5F5641BA
:1044F0004C494E44414E444F5F4C494D49544553FD
:104500005F4143545541444F5245532A2A002A2AB9
:10451000506572696F646F20766572696669636160
:104520006369C3B36E3A20002A2A506572696F64CA
:104530006F204465736561646F3A20002A2A4361E5
:104540006E74696461642064652069746572616376
:10455000696F6E657320706172612076657269663D
:104560006963616369C3B36E3A20002A2A54696D96
:10457000654F75742073657474656420666F72206E
:10458000736D6353657269616C3A20004A5F593AF2
:1045900020002C094A5F583A20002C20204A5F61F5
:1045A000633A2031002A2A4A5F785F446573632AA0
:1045B0002A002A2A4A5F795F446573632A2A002AFF
:1045C0002A4163656C5F446573632A2A002A2A4680
:1045D00072656E6F5F446573632A2A002A2A4A5FF8
:1045E000785F4F75744F6652616E67652A2A002A9C
:1045F0002A4A5F795F4F75744F6652616E67652A0C
:104600002A002A2A4163656C5F4F75744F665261B8
:104610006E67652A2A002A2A4272616B655F4F75B0
:10462000744F6652616E67652A2A002A2A436F6DAD
:10463000706F6E656E746573205265636F6E65632F
:104640007461646F73207920656E2052616E676FAC
:104650002056C3A16C69646F2A2A002A2A456C651A
:104660006D656E742000206F66204D757374426511
:104670004163746976617465642041727261792066
:1046800069732064656163746976617465642A2A5C
:1046900000206F66204D75737442654465616374D4
:1046A0006976617465642041727261792069732052
:1046B0004163746976617465642A2A002A2A546900
:1046C0006D654F757420536574746564203E205485
:1046D000696D654F757420546172676574206F6EE3
:1046E00020736D6353657269616C2E2A2A002C2039
:1046F00065646F3A20002C206E4465663A20002ADB
:104700002A497465726174696F6E73546F4472697B
:1047100076655265616469673A20002C20202A2A58
:1047200045506F745F005F483A20002C202A2A45CC
:10473000506F745F005F4C3A2000436F6D756E6977
:1047400063616369C3B36E2053657269616C20490C
:104750006E6963696164612E002C20005F56696E8A
:104760003A20005F546D703A20005F4572723A2023
:10477000002A2A4E4F5420414C4C20444546494E75
:10478000455320464F52204E4F524D414C205553D9
:104790004520415245205345545445442121212A66
:1047A0002A003653747265616D0000009C4B00084E
:1047B000A24700080C4B00089C4B0008C4470008A7
:1047C000AC470008313448617264776172655365A3
:1047D0007269616C0000000000000000B84700082A
:1047E000911E000865210008211E0008511E0008C6
:1047F000371E00087B1E0008008202480F000000E0
:10480000008202480E000000008102480000000003
:1048100000810248010000000081024808000000F9
:10482000008202480C000000008202480B000000D9
:104830000081024809000000008102480A000000CF
:10484000008102480B000000008302480A000000BB
:1048500000830248080000000083024807000000AF
:1048600000830248090000000082024803000000A3
:10487000008302480F000000008002480D00000085
:10488000008E024800000000008E02480100000077
:10489000008E024802000000008E02480300000063
:1048A000008E024804000000008E0248050000004F
:1048B000008302480C000000008502480900000047
:1048C0000085024808000000008F02480D0000002B
:1048D000008F02480C000000008402480100000024
:1048E0000083024805000000008402480000000028
:1048F0000083024806000000008102480600000014
:104900000081024807000000008102480400000006
:1049100000810248050000000083024804000000F6
:1049200000800248050000000080024803000000EB
:104930000080024801000000008002480A000000D8
:1049400000830248020000000083024801000000CA
:10495000008F024806000000008F0248050000009A
:10496000008F024803000000008E02480F00000084
:10497000008E02480D000000008E02480700000073
:10498000008F02480F000000008E0248090000005E
:10499000008202480D000000008502480A00000065
:1049A000008502480B000000008102480E00000054
:1049B000008E024808000000008F02480E00000030
:1049C000008E024806000000008E02480C00000025
:1049D000008E02480E000000008F02480200000016
:1049E000008F024804000000008F0248070000000A
:1049F0000083024800000000008002480900000017
:104A00000080024800000000008002480200000010
:104A100000800248040000000080024806000000F8
:104A2000008002480B000000008302480D000000D7
:104A3000008302480B000000008002480E000000C6
:104A4000008302480E0000000080024807000000BA
:104A500000810248020000000086024801000000B8
:104A6000008502480300000000860248050000009F
:104A7000008102480F00000000850248010000008C
:104A80000085024803000000008502480500000080
:104A9000008502480700000000820248060000006E
:104AA000008502480600000000850248040000005E
:104AB0000085024802000000008502480000000056
:104AC000008602480600000000860248040000003C
:104AD0000086024802000000008602480000000034
:104AE0000080024808000000008302480300000024
:104AF000008002480F000000008002480C00000007
:104B0000008302480C0000000D0A0000104C000851
:104B1000144B0008355072696E7400000044004068
:104B200000480040004C0040005000406578700094
:104B3000000000000000E03F000000000000E0BFB7
:104B40000000E0FE422EE63F0000E0FE422EE6BFFF
:104B5000763C7935EF39EA3D763C7935EF39EABD77
:104B60009C4B00086C4B0008D84B00084E31305F5E
:104B70005F637878616269763132305F5F73695F55
:104B8000636C6173735F747970655F696E666F459E
:104B90000000000000000000604B00085D410008BC
:104BA000714100085D4200085D420008474300086B
:104BB0008D42000831420008BD41000885410008CF
:104BC000104C0008C84B0008537439747970655F45
:104BD000696E666F000000009C4B0008E44B000803
:104BE000C04B00084E31305F5F6378786162697650
:104BF0003131375F5F636C6173735F747970655FC8
:104C0000696E666F4500000000000000D84B000888
:104C1000CD420008E14200085D4200085D42000804
:104C2000474300088D4200082F430008F542000862
:044C3000C142000875
:104C3400010000001E00000003000000D402000078
:104C4400D903000001010000120000000900000067
:104C54002503000020030000FA0000000A00000001
:104C6400030000000400000001000000C800000070
:104C7400F40100000000A040000020426666984154
:104C84006666A0416666E0419A99EB4180F3FFFFB6
:104C9400800C000001000000FE0100007B02000007
:104CA40079010000FF01000080020000780100008B
:104CB4009A99193F1E000000D00700003900000037
:104CC400380000002E0000002D0000003A00000013
:104CD4003C0000003B0000003E0000002C000000EF
:104CE4002B000000600000004100000040000000B4
:104CF40061000000420000003333B33E02000000B4
:104D0400B40000008403000050000000840300008D
:104D14000200000001000000800C000000000340BD
:104D240000810248040000000000000001000000AF
:104D3400020000000081024805000000900000000D
:104D440001000000020000000107070754000000F2
:104D54000000000000000248008202480F0000002A
:104D64000000000001000000020000000082024870
:104D74000E0000009000000001000000020000008E
:104D8400020707075A00000000000000004000402E
:104D9400000000000044004000000000000000008B
:104DA40000000000004000400100000000440040FA
:104DB400000000000100000000000000004000406E
:104DC4000200000000480040010000000200000052
:104DD40000000000004000400300000000480040C4
:104DE400010000000300000000000000004000403B
:104DF40000000000004C0040020000000000000021
:104E0400000000000040004001000000004C004091
:104E1400020000000100000000000000004000400B
:104E240006000000004C00400200000006000000E4
:104E3400000000000040004005000000004C00405D
:104E440002000000050000000000000000400040D7
:104E540003000000004C00400200000003000000BA
:104E6400000000000040004007000000004800402F
:104E740001000000070000000000000000400040A6
:104E8400050000000048004001000000050000008B
:104E94000000000000400040070000000044004003
:104EA4000000000007000000000000000040004077
:104EB400070000000050004003000000070000004D
:104EC40000000000004000400100000000480040D5
:104ED400010000000100000000000000004000404C
:104EE4000000000000480040010000000000000035
:104EF4000000000000400040060000000050004098
:104F04000300000006000000000000000040004014
:104F140006000000004400400000000006000000FD
:104F24000000000000400040040000000048004071
:104F340001000000040000000000000000400040E8
:104F440006000000004800400100000006000000C8
:104F5400000000000040004002000000004C00403F
:104F640002000000020000000000000000400040B9
:104F740004000000004C0040020000000400000097
:104F8400000000000040004007000000004C00400A
:104F94000200000007000000000000000A010000F9
:104FA400748BFE1F000000000000000000000000E1
:104FB40000000000000000000000000000000000ED
:104FC40000000000000000000000000000000000DD
:104FD40000000000000000000000000000000000CD
:104FE40000000000000000000000000000000000BD
:104FF40000000000000000000000000000000000AD
:105004000000000065180008FD20000800000000F2
:0400000508000201EC
:00000001FF
